:020000040800F2
:1000000040C10420ED020008D5C80008FF93000895
:1000100031C70008B90F00081D14010800000000D6
:10002000000000000000000000000000C1D5000832
:100030003114000800000000E9CB00086DD600086C
:100040000703000807030008070300080703000868
:100050000703000807030008070300080703000858
:100060000703000807030008070300080703000848
:100070000703000807030008070300080703000838
:100080000703000807030008070300080703000828
:100090000703000807030008070300080703000818
:1000A0000703000807030008070300080703000808
:1000B00007030008C5FE0008FDFE0008070300084E
:1000C00007030008070300080703000807030008E8
:1000D00007030008A113010807030008070300082D
:1000E00007030008070300080703000807030008C8
:1000F00007030008070300080703000807030008B8
:1001000007030008070300080703000807030008A7
:100110000703000807030008070300080703000897
:100120000703000807030008070300080703000887
:100130000703000807030008070300080703000877
:100140000703000807030008070300080703000867
:100150000703000807030008070300080703000857
:100160000703000807030008070300080703000847
:100170000703000807030008070300080000000049
:100180000703000807030008070300080703000827
:100190000703000807030008070300080703000817
:1001A0000703000807030008070300080703000807
:1001B00007030008070300080703000807030008F7
:1001C00007030008070300080000000007030008F9
:1001D00007030008070300080703000807030008D7
:1001E00007030008070300080703000807030008C7
:1001F000070300080703000800F002F800F067F8A2
:100200000AA090E8000C82448344AAF10107DA4571
:1002100001D100F05CF8AFF2090EBAE80F0013F05C
:10022000010F18BFFB1A43F001031847EC3A020014
:100230000C3B02000A444FF0000C10F8013B13F095
:10024000070408BF10F8014B1D1108BF10F8015B2F
:10025000641E05D010F8016B641E01F8016BF9D122
:1002600013F0080F1EBF10F8014BAD1C0C1B09D179
:100270006D1E58BF01F801CBFAD505E014F8016BEB
:1002800001F8016B6D1EF9D59142D6D3704700007D
:100290000023002400250026103A28BF78C1FBD88F
:1002A000520728BF30C148BF0B607047642900F077
:1002B000A980782900F0E280732900F011830020E2
:1002C00070471FB51AF0D2FF1FBD10B510BD00F06A
:1002D000A1FB1146FFF7F5FF1AF0D0FE00F0BFFBBF
:1002E00003B4FFF7F2FF03BC1AF08AFE0948804707
:1002F00009480047FEE7FEE7FEE7FEE7FEE7FEE708
:10030000FEE7FEE7FEE7FEE704480549054A064B1F
:100310007047000071D60008F901000840B50420BC
:1003200040C1042040B7042040B7042070470000BB
:100330000FB4044910B503AA029800F0D5FA10BC16
:100340005DF814FB100002202DE9F0410E46044632
:10035000002020622046E168884730B3252805D078
:10036000D4E901219047206A401CF2E7E168204669
:1003700000278847050018D0A5F14100192802D8A8
:1003800020354FF400673246294620462760FFF7A4
:100390008DFF40B1012804D0F61D26F0070608366F
:1003A000D8E7361DD6E72846DAE7206ABDE8F081AF
:1003B00070B50C460546012A05D02878800600D580
:1003C000EA69002302E0012305E05B1C934202D2AC
:1003D000E05C0028F9D1A869E618C01AA861286A6B
:1003E000184428622846AFF3008004E0D5E90121D3
:1003F00014F8010B9047B442F8D32846AFF30080BD
:1004000070BD00002DE9F0410646002410687529F2
:10041000314616A510D0AFF30080002802DA404222
:1004200013A507E031688A0701D512A502E0490744
:1004300004D511A5012401E0AFF3008000210A22B8
:1004400006F1240709E0B0FBF2FCB0FBF2F302FB7B
:100450001C00303078541846491C0028F3D123463C
:100460002A463046BDE8F04100F0CFB90000000058
:100470002D0000002B0000002000000070B5044695
:100480000D4621461068AFF300802188090502D58A
:100490000F4A7A4402E00E4A7A440E32002104F1F7
:1004A000240305E000F00F060009965D5E54491C28
:1004B0000028F7D120780023000704D5702D02D042
:1004C00009B1022311322046BDE8704000F09DB909
:1004D000BA36020040EA010310B59B070FD1042A87
:1004E0000DD310C808C9121F9C42F8D020BA19BAFF
:1004F000884201D9012010BD4FF0FF3010BD1AB164
:10050000D30703D0521C07E0002010BD10F8013BB8
:1005100011F8014B1B1B07D110F8013B11F8014BDF
:100520001B1B01D1921EF1D1184610BD40EA0103F8
:10053000024630B59B0710D14FF0013400E008C2ED
:1005400008C91D1B9D4315EAC41FF8D013F0FF0115
:1005500002F8011B0DD01B0AF8E711F8013B002B34
:1005600002F8013B05D011F8013B002B02F8013BDA
:10057000F3D130BD10B5431C02E010F8011B71B17E
:100580008107FAD14FF0013202C88C1A8C4314EA69
:10059000C211F9D0C01A0A0603D0C01E10BDC01A7D
:1005A00010BD0A0401D0801E10BD0902FCD0401EFF
:1005B00010BD032A40F2308010F0030C00F01580CB
:1005C00011F8013BBCF1020F624498BF11F801CB56
:1005D00000F8013B38BF11F8013BA2F1040298BFBB
:1005E00000F801CB38BF00F8013B11F0030300F025
:1005F0006780083AC0F0088051F8043B083A51F887
:1006000004CBA0E80810F5E7121D5CBF51F8043BCD
:1006100040F8043BAFF30080D20724BF11F8013B40
:1006200011F801CB48BF11F8012B24BF00F8013BA2
:1006300000F801CB48BF00F8012B7047431A28BFD0
:100640009A427FF6B6AF032A1044114440F2268046
:1006500010F0030F1EBF11F8013D521E00F8013DBE
:1006600010F0030F7FF4F6AF11F0030300F0618187
:10067000083AC0F00B8051F8043D083A51F804CD17
:1006800040F8043D40F804CDFFF7F3BF121D5CBFF6
:1006900051F8043D40F8043DAFF30080D20724BF79
:1006A00011F8013D11F801CD48BF11F8012C24BF0C
:1006B00000F8013D00F801CD48BF00F8012C70475B
:1006C00010B5203AC0F00B80B1E81850203AA0E8ED
:1006D0001850B1E81850A0E81850BFF4F5AF5FEA21
:1006E000027C24BFB1E81850A0E8185044BF18C9D4
:1006F00018C0BDE810405FEA827C24BF51F8043B7B
:1007000040F8043B08BF7047D20728BF31F8023BCE
:1007100048BF11F8012B28BF20F8023B48BF00F862
:10072000012B704702F0FF0343EA032242EA024230
:1007300000F02BB94FF0000200B5134694469646E0
:10074000203922BFA0E80C50A0E80C50B1F12001E4
:10075000BFF4F7AF090728BFA0E80C5048BF0CC092
:100760005DF804EB890028BF40F8042B08BF7047F0
:1007700048BF20F8022B11F0804F18BF00F8012B62
:10078000704700004FF0013C50F8042B51F8043B37
:100790009A4215D1A2EB0C03934313EACC130BD16D
:1007A00050F8042B51F8043B9A4209D1A2EB0C03F8
:1007B000934313EACC13E7D04FF00000704700BF1B
:1007C000D01A01BAB1FA81F101F0180122FA01F050
:1007D000CB40C1F12001DBB2C0B2C01A2CFA01F348
:1007E000D11A914311EAC311E6D17047704770479F
:1007F0007047704710B500F0E9F8006810BD10B5FB
:10080000044600F0E3F8046010BD2DE9F0470D4602
:1008100099469246044600F124080168880604D5EA
:10082000E06921F01001216000E00120A84201DD13
:10083000471B00E00027A1697A1902EB0900081A9A
:10084000A0612078C00602D42046AFF300800026C5
:1008500008E0D4E901211AF806009047206A401CFC
:10086000761C20624E45F4DB2078C0060AD520466F
:10087000AFF3008006E0D4E9012130209047206AE0
:10088000401C2062381EA7F10107F4DC07E0D4E920
:10089000012118F805009047206A401C2062281E9C
:1008A000A5F10105F3DC2046AFF3008020780006B7
:1008B00002D50220BDE8F0870120FBE710B54369AF
:1008C00013B1AFF3008001E0FFF772FD012010BD0E
:1008D000127800F124010A7000224A700122EDE72B
:1008E00011684FF0FF32E9E7074B70B50D467B44C6
:1008F00000F075F80446284600F084F810B14FF077
:10090000FF3070BD204670BD77A70100431A28BF95
:100910009A427FF6D5AE104410F0030F11441EBF6B
:1009200011F8013D521E00F8013D10F0030F7FF455
:10093000F6AF103AC0F00A8010B531E91850103AFD
:1009400020E91850BFF4F9AFBDE81040530724BFA9
:1009500031E9081020E9081044BF51F8043D40F87F
:10096000043D12F0030F08BF7047D20728BF31F8CB
:10097000023D48BF11F8012C28BF20F8023D48BFB6
:1009800000F8012C70474FF000020429C0F01280DB
:1009900010F0030C3FF4D0AECCF1040CBCF1020F0C
:1009A00018BF00F8012BA8BF20F8022BA1EB0C0107
:1009B000FFF7C2BE5FEAC17C24BF00F8012B00F83C
:1009C000012B48BF00F8012B70470000004870471A
:1009D000DCB4042001694A1C02610878704700B544
:1009E0008FB0CDE901310021059105497944CDE968
:1009F000031011466846FFF7A7FC0FB000BD0000CA
:100A0000E5FFFFFF007B00F0800070470048704763
:100A1000DCB404207546FFF7F9FFAE4605006946D1
:100A2000534620F00700854618B020B5FFF76CFC50
:100A3000BDE820404FF000064FF000074FF00008DF
:100A40004FF0000B21F00701AC46ACE8C009ACE860
:100A5000C009ACE8C009ACE8C0098D46704710B5C4
:100A60000446AFF300802046BDE81040FFF738BCD5
:100A700008F0EEBC2DE9F0410D46014600204E196C
:100A8000044608E00702301B401E80B200F007F861
:100A9000641C3844E4B2AC42F4D3BDE8F08110B534
:100AA000044608F08FFD200AA02101EB4000C0B2EF
:100AB00008F052FD08F0D6FDE0B208F04DFD08F058
:100AC000D1FD08F07FFDA12008F046FD08F0CAFD29
:100AD000002008F00DFD044608F09CFD204610BDE6
:100AE0002DE9F041002416460D46074609E0E000D6
:100AF00025FA00F0C1B2381980B200F006F8641C83
:100B0000E4B2B442F3D3BDE8F08170B50D460446BB
:100B100008F058FD200AA02101EB4000C0B208F007
:100B20001BFD08F09FFDE0B208F016FD08F09AFDED
:100B3000284608F011FD08F095FD08F06BFDBDE8B2
:100B400070400A201AF068BA002800DC4042704762
:100B500038B5456804460146284610F079FC00285F
:100B60002BD02068304A11280DD006DC0B2825D068
:100B70000E2833D00F2852D112E0282849D0B0F5E2
:100B8000107F4CD108E09268002A16D021462846F2
:100B900001B0BDE830401047214628465268F7E7CB
:100BA000284603F0D9F90090406E0468684603F0C7
:100BB0003DFA002C01D02846A04738BD284603F056
:100BC000CBF90090683003F01DF9009803216C30D8
:100BD00003F026F9684603F029FA20E0E168486846
:100BE00009680D2902D0202913D105E0002810DD65
:100BF000284616F0F4FF06E0002804DD2846BDE88C
:100C0000384016F0ECBF2846BDE83840022116F007
:100C1000FCBFE06818B90021284600F097F920468B
:100C2000BDE8384011F07CB854010220F0B504460C
:100C300085B08069B4F90850668A0027CDE902655D
:100C4000CDE900170490B4F90C00B4F91060C11894
:100C5000B4F90A00B4F90E50104433462A4600F0A5
:100C600007F80546616800F07AF905B02846F0BD3E
:100C70002DE9F04F85B01F46DDE911B4DDE90E56D0
:100C800090468946824604F0D1F916484C34CDE9A5
:100C90000204CDE900563B4642464946504610F014
:100CA00087FF040018D003F057F91022594604902A
:100CB00010F0B0FD049830220B493430FFF700FDEE
:100CC000094D04990C3D2868486604A803F0AEF964
:100CD000286841682046884705F07CFC05B020461E
:100CE000BDE8F08F510B000860010220F0B504460A
:100CF00080688B4989B051F82050606800287DD009
:100D0000052804D006287AD0122879D1AEE0E86907
:100D100000284FD095E80E008DE80F0004F1100177
:100D20000FC906F0A3F8002655F8260004F071FF5D
:100D3000A169E8690A1A216901446069304403F035
:100D4000C7FEA169E8690A1A21690144E069801BAC
:100D500003F0BEFEE169E8690A1A6169014420698D
:100D6000304403F06BFFE169E8690A1A61690144E4
:100D7000A069801B03F062FF761C022ED4DBA868FA
:100D800004F047FFE069E9696669431A206942187F
:100D90003144801C521E03F09BFFE169E869A2699F
:100DA0000B1A61690144101A401C921E03F090FF57
:100DB000EE6913E05FF0000655F8260004F029FF05
:100DC000E069831BA069821B606981192069304436
:100DD00003F0F4FE761C022EEEDB0226D5E90301B9
:100DE000CDE900016169E06908444310A069891CEC
:100DF000821B2069304403F02FFE02E089E012E0FC
:100E00008AE0D5E90501CDE90001E36960690121C6
:100E1000184401EB6001A0699B1E821B20693044CD
:100E200003F01AFE78E0206803F096F8049020683A
:100E300012F02CFB40B1A06808B1002008E0049833
:100E4000006F28B1012003E00498406F00B1022038
:100E5000049901EB8000C56E04A803F0E7F80023B5
:100E60001A462846216803F063FB55E0206803F02A
:100E700073F80490866EEEB3B0F95C70A168D1B3DC
:100E8000032942D05FF0000100EB8101406D0C6C42
:100E900004F0DCFE204604F0BCFE05A803F0DAFFF7
:100EA000BDF81410A88B0144ADF81410BDF818104B
:100EB000081AADF81800BDF81600801CADF8160031
:100EC000BDF81A00801EADF81A000498B0F9602031
:100ED000B0F95E1005A804F093FD04A803F0A6F88D
:100EE000022004F01FFF304603F036F83A4605A909
:100EF000079001E00BE006E003F01EFC0DF11C0082
:100F000003F094F808E00121BEE70221BCE704A841
:100F1000F6E7206811F07AFF09B00020F0BD00006C
:100F20001432020838B50D4604000ED004F07EF8E5
:100F3000204603F011F800904565684603F076F806
:100F4000204611F035FC05F045FB38BD4FF48072AA
:100F50000029114601D010F00FBB10F060BA2DE946
:100F6000FF410E4605004FF0010421D004F05EF869
:100F7000284602F0F1FF0190876E01A8009703F068
:100F800055F83146684606F04BFA78B100980024CF
:100F9000B84208D0284602F0DFFF01900099816630
:100FA00001A803F043F8284611F002FC05F012FBFB
:100FB00004B02046BDE8F081FEE7000070B5144D96
:100FC00000224021284606F050FC124C206820F0F8
:100FD000C0002060206840F04000206002201AF02D
:100FE00029F800222046082106F03FFC02201AF0D2
:100FF00021F801222846402106F037FC02201AF091
:1010000019F82846BDE870400022402106F02DBCAA
:10101000001C024000200240124800B587B0016861
:1010200041F080010160016801F0800105910168D3
:1010300041F4807101600068694600F48070059099
:101040004020009001200190029003200390064868
:1010500006F018FB082000900448694606F012FBD1
:1010600007B000BD30380240001C024000200240A2
:1010700070B5144D00224021284606F0F6FB124CB4
:10108000206820F0C0002060206840F04000206010
:10109000022019F0CFFF01222046082106F0E5FBCF
:1010A000022019F0C7FF01222846402106F0DDFB8F
:1010B000022019F0BFFF2846BDE870400022402101
:1010C00006F0D3BB001C0240002002402DE9F04195
:1010D000184E07460024306820F0C00030603068A9
:1010E00030601E2019F0A6FFB046134E00250022E6
:1010F0003046402106F0B9FB022019F09BFF012287
:101100003046402106F0B1FB60060821040E40463F
:1011100006F0A6FB08B1641CE4B26D1CEDB2082D0C
:10112000E5D327B1FFF74AFF2046BDE8F081FFF77E
:101130009FFFF9E700200240001C02402DE9F0412A
:101140001A4F0546386820F0C0003860386840F013
:1011500040003860164E00224021304606F085FBE4
:10116000022019F067FF0024280601D5012200E0C3
:1011700000223846082106F078FB68060122050E99
:101180003046402106F071FB022019F053FF002287
:101190003046402106F069FB022019F04BFF641C29
:1011A000E4B2082CE0D3BDE8F0810000002002404A
:1011B000001C024070B5134C206820F0C000206075
:1011C000206840F04000206001222046082106F0FF
:1011D0004CFB0D4D01224021284606F046FB1E2007
:1011E00019F028FF00222046082106F03EFB0220CD
:1011F00019F020FF2846BDE870400022402106F08B
:1012000034BB000000200240001C024010B5104C0E
:10121000206820F0C0002060206840F0400020607E
:101220000C480122402106F020FB1E2019F002FF8D
:1012300000222046082106F018FB022019F0FAFED1
:1012400001222046BDE81040082106F00EBB000038
:1012500000200240001C024070B5164D00242846B4
:10126000296821F0C001296029682960012208212C
:1012700006F0FBFA104E01224021304606F0F5FA46
:1012800007E0641CE4B2FA2C03D9FFF7BFFF01208A
:1012900070BD022019F0CEFE0821284606F0E0FAC3
:1012A0000028EED100223046402106F0DEFA002070
:1012B00070BD000000200240001C0240F0B5BFF3EA
:1012C0004F8FBFF36F8F184900200860174C2168BB
:1012D00041F400312160BFF34F8FBFF36F8F13498B
:1012E00070310860BFF34F8F081F006843F6FF7529
:1012F0000D4E1036C0F34E31C0F3C90305EA41125A
:10130000184642EA80773760401EFAD2491EF5D26D
:10131000BFF34F8F206840F480302060BFF34F8FC1
:10132000BFF36F8FF0BD000050EF00E014ED00E060
:1013300010B50446C07A60B120460BF087FAA07A57
:1013400028B10020A07220460BF02EFA05E0012003
:10135000F8E7A07A18B10020A072A07A10BD012091
:10136000FAE741F27C52521A10B594B2027822B1D7
:10137000012A0AD0022A02D100E044808480C27A85
:101380000AB110F02FF8204610BD4480F7E70000A6
:101390001CB510F037FE0346044A0020009001906F
:1013A0000421034802F0ACFF1CBD0000EDAC0108B5
:1013B000B0FF01081CB510F025FE0346044A0020CA
:1013C000009001900121034802F09AFF1CBD00002B
:1013D000D5AC010894FF01081CB510F013FE0346BC
:1013E000054A0020009001900E21044802F088FF79
:1013F000034908601CBD000011A50108DCFB0108C1
:10140000A40002201CB510F0FDFD0346054A002093
:10141000009001901421044802F072FF0349086013
:101420001CBD000021A9010864FD0108B4000220D0
:1014300070472DE9FC470E465FEA00097FD003F0B4
:10144000F5FD484602F088FD009090F85470D0F801
:101450005880456BC46C684602F0E8FDB8F1000F97
:1014600004D0314648464246904761E0122E18D0DB
:1014700006DC082E43D0102E3CD0112E06D112E0EF
:10148000132E21D01D2E43D01E2E3DD0202E4FDBFB
:1014900017B1484613F059F8B1B2484616F000FAB1
:1014A00060B3611C27E04DB3284602F055FD0546A8
:1014B0002146019004F07CFF4419204604F018FFF7
:1014C00001462346012210E0C5B1284602F044FD42
:1014D00005462146019004F06BFF4419204604F0B4
:1014E00007FF014623464FF0FF32484612F090FDB9
:1014F00001A81BE0611E484600F02EFA18E0BCB1BE
:10150000611E484600F028FA484613F01EF80FE026
:10151000484602F021FD0090012F12D0012180F8F1
:1015200054102146484600F017FA684602F07EFD46
:10153000484611F03DF900E001E005F04BF8BDE848
:10154000FC87002180F85410EFE7FEB5446805469B
:10155000204611F09BFF0646294620460FF078FFF3
:10156000002837D028680F2830D004DC0B2832D070
:101570000E2853D13AE0A0F58070133804D0A0F5BE
:1015800080702D384AD110E0204611F0E3FA204651
:10159000002116F059FE204602F0DEFC0190C06FDB
:1015A000002111F09EFA01A81DE0E86860B1017AFF
:1015B00029B10168204600F0DFF8012100E0022196
:1015C000204611F0D6F929E00321F9E70121204650
:1015D00016F03AFEFEBD204602F0BEFC009034300C
:1015E00002F010FC684602F021FD17E0B6B1E86891
:1015F0004168002912DD01681B290FD006DC09298A
:101600000CD00A290AD00D2904D107E0212905D0E0
:10161000222903D02046FFF70CFFFEBD284610F01C
:101620007FFBFEBDF0B587B004460DF1080CD4E990
:101630000567B0F90850408A8CE8E1000020CDE948
:101640000010B4F90C00B4F91060C118B4F90A0024
:10165000B4F90E50104433462A4600F009F805004C
:1016600002D0618A00F063F907B02846F0BD00009F
:101670002DE9F04F85B01F46DDE91254DDE90E6A11
:1016800090468946834603F0D1FC0DF1040C4AF4E0
:1016900080501F49583400968CE813003B46424660
:1016A0004946584610F084FA04002AD002F054FC4F
:1016B00010220490119910F0ADF804981C221549DD
:1016C0006030FEF7FDFF049A012082F85500681C87
:1016D00000D0012082F88000002D00DC08252DB20A
:1016E000158700205087506304A86D1C02F09EFCF3
:1016F0002946204615F0B7FF18B9204610F048FBE0
:10170000002404F067FF05B02046BDE8F08F00001C
:101710004B150008900102202DE9FC4115460E00F2
:10172000044627D0002C25D003F080FC204602F090
:1017300013FC002701903770406BB0B102F00CFC35
:10174000009005F017FD0146009804F031FE0446B4
:10175000681E844200DD0446224630460099FEF7AA
:1017600028FF684602F062FC375501A802F05EFCD3
:1017700004F030FFBDE8FC812DE9F04186B00C4655
:10178000060055D003F052FC304602F0E5FB009015
:10179000406B98B302F0E0FB03900098806E04F079
:1017A00055FA8046304610F035FD0746039803F0A1
:1017B0009BFB0546009890F8601001F00301012999
:1017C00016D002290DD0416EC06A00680844241A60
:1017D000641E039805F0CEFC0146002C0FDA0021B0
:1017E00015E0781B401C00EBD070A4EB6004F0E720
:1017F000406E791B081A241A641CEAE713E0AC4215
:1018000005DC02462146039805F05EFC01463046A1
:1018100000F0A2F803A802F009FC404604F016FA12
:10182000304610F0C5FF684602F000FC04F0D2FE1E
:1018300006B0BDE8F08138B50D4604000ED003F0C7
:10184000F5FB204602F088FB00908566204610F0EC
:10185000AFFF684602F0EAFB04F0BCFE38BD2DE99C
:10186000FC4788465FEA00094FF0000652D003F0BB
:10187000DDFB484602F070FB0090B0F93850446B35
:10188000684602F0D3FB0027B8F1000F44D04CB1FA
:10189000204602F061FB0190FEF76CFE461C01A899
:1018A00002F0C4FB404605F065FC0446A84200DD9A
:1018B0002C462146404604F07BFD451CA91B4846AA
:1018C00016F099F808B3484602F046FB0090406BCA
:1018D00002F042FB2A4641460190FEF76AFE01985B
:1018E000284400F8017C0098C464B0F938108C4298
:1018F00005D190F85410012901D1641EC46401A8D7
:1019000002F094FB684602F091FB484610F050FF4D
:1019100004F060FEBDE8FC87484602F01DFB009025
:10192000343002F06FFA00984787C764EAE738B5A9
:101930000C4605000FD003F079FB284602F00CFBA3
:10194000009018B10466284610F032FF684602F095
:101950006DFB04F03FFE38BD1CB50C4602F0FCFAEE
:101960000090406BF0B102F0F7FA019005F002FC34
:10197000009991F8542002B10122002C00DA0024D1
:10198000844200DD0446B1F93800801AA04200DA32
:101990000446C86CA04200D0CC640020086501A8B1
:1019A00002F044FB684602F041FB1CBD70B5B3F584
:1019B000804F05D06FF0704140F82210002070BDBC
:1019C00050F82230084C2340D1E900458E8944EA82
:1019D00005148D6889692D0245EA06452C430C43A0
:1019E0001C4340F82240E9E70000F0CFF0B50C6856
:1019F00050F824501A4A1540D1E90123D1E9036770
:101A00001A433E4332434E6932438E693243CE69B4
:101A100032430E6A32434E6A32438E6A3243CE6A92
:101A200032430E6B32438E6B32434E6B32432A434A
:101A3000082B01D142F0400240F824200A6BB2F595
:101A4000801F05D10A684AB1026842F48012026020
:101A50000A681AB10268496B0A4302600020F0BDAF
:101A60008004C0FF00EB8202F0B553688E8903F05A
:101A70004044D1E9003543EA05138D682D0245EA5B
:101A800006450E8A2B430D4D05EB065633430E7D5E
:101A90006F0107EB066633438E693343234353607C
:101AA0000268D20207D54268098A22F4700205EB67
:101AB0000151114341600020F0BD00000000F0FF23
:101AC00030B5D1E901230D681A43D1E9033423432A
:101AD0001A434B691A438B691A43D1E90734496A9F
:101AE000012D056807D01A4322430A436FF30E0500
:101AF0002A4302600AE025F4F845234329430B43B7
:101B0000416803606FF30E010A434260002030BD5C
:101B1000426942EA4101416100207047F8B514462C
:101B20000546D1E900026FF01F0310438A68C968B7
:101B300003EB421242EA412108430090286105F07C
:101B400099FE064609E0601C07D024B105F092FE1C
:101B5000801BA04201D90320F8BDA8698006F2D4F9
:101B60000020F8BDF0B5D1E900346FF00F055B1E21
:101B70002E0105EB041423438C682F034FEA054C18
:101B80000D8A06EB04248E8A2343CC68097E4FF02D
:101B90007F4E012A07EB05450CEB06560EEB016163
:101BA0000CD082683F1107EB043423432B433343AB
:101BB0000B4302F07042134383600FE08768084ACA
:101BC00017402203C468A2F5805232433A43826030
:101BD0002B430B4304F070442343C3600020F0BD4B
:101BE000FF0F0FFF2DE9F047044640688EB0002735
:101BF000804602F0B1F90090B0F87CA0D0F868906F
:101C0000D0F88060D0F88850C06D00B10768684691
:101C100002F00CFA05E0696820468847002843D1A5
:101C20002D68002DF7D12068172853D00CDC0F2821
:101C30003DD004DC0B2877D00D2825D18BE011286E
:101C400010D0142820D13BE0262846D004DC1E28E2
:101C500051D0202818D18AE02A2816D0B0F5107F5C
:101C600012D128E04046E56802F076F90290697AE0
:101C700039B9297A012904D130F87C1F41F48071E7
:101C8000018002A802F0D2F975E0404602F064F942
:101C90000090E16811B1C0F8841002E0D0F884002F
:101CA000E060684602F0C2F90EB0BDE8F087D7B335
:101CB0004046B8475FE02146404616F0A1F8F3E7FA
:101CC00005A9404600F05AFBE068069901600799B3
:101CD0004160E9E7C4F80C90E6E7E0680228E3D148
:101CE000CDF83080E0680D9027200A900AA9A068FE
:101CF00011F0DCFDD8E7E068012804D0002140465F
:101D000000F0BBFAD0E7304610F0CDFD68B13046A8
:101D100010F0F6FF304610F077FC98B10121304604
:101D20000FF02AFC0EE026E02FE0484611F03CF8C8
:101D30000646404602F010F90090C0F88060684600
:101D400002F074F90121404600F097FA002EABD161
:101D50000020E060A8E75FEA0A700CD4E068C06881
:101D600048B1007A38B1404610F0CAFF03E021467E
:101D7000404615F067FF214640460FF069FB0028FA
:101D800092D020460FF0CCFF8EE7404602F0E4F8F8
:101D90000090703002F036F8684673E7F0B587B00F
:101DA000B0F908400DF10C0C0C9E876945688CE871
:101DB000F000448A0025CDE900150294B0F90C101A
:101DC000B0F91050B0F90E40B0F90A0019441044AF
:101DD0002B46224600F002F807B0F0BD2DE9F04F87
:101DE0008BB09846DDE9155691468A468346149F86
:101DF0001A9C03F01BF93348603445F48055CDE953
:101E00000204CDE9007543464A46514658460FF054
:101E1000CFFE04004FD002F09FF8302204901799B3
:101E20000FF0F8FC0498282227493430FEF748FCCC
:101E300004981999244F4166A0F87C600026C0F8E8
:101E40008060C666083FC0F888607968C16504A8EC
:101E500002F0ECF805A9204600F090FA1B4841F288
:101E6000827103960094CDE90110BDF91E00BDF901
:101E70001A10BDF91C20431ABDF918005B1C121A78
:101E8000521C0FF095FE0646786841682046884748
:101E9000204602F061F80490866604A802F0C6F8B5
:101EA00042F20400054202D1204610F00CF8204610
:101EB000189900F027FA04F08DFB0BB02046BDE81E
:101EC000F08F0000E51B0008B40102208526000801
:101ED0002DE9F041044694B0006800F0B7F908B16C
:101EE000D94D01E0D84D2C35606815281ED00CDC8A
:101EF0000B281FD004DC00287ED005287DD12FE1DF
:101F00000E287BD01228F9D141E1162806D01728D7
:101F100008D0182808D01C28F0D109E0E86914B0CE
:101F2000BDE8F081286AFAE7686AF8E7A86AF6E788
:101F30006869F4E720680B901C200C90206802F080
:101F40000BF80390016D0BA88847064603A802F022
:101F50006DF8022E0FDB95E807008DE80700D4E945
:101F600004023346A16904F047FF20698719A0697C
:101F7000A0EB06082CE0286803F04BFE2169E86915
:101F80000A18521E606902F0A3FDA269E869111ADD
:101F9000491C606902F09CFDD4E904077F1C3946A6
:101FA00002F0E6FD3946A06902F0E2FD686803F040
:101FB00030FE20693946401C02F0DAFDA06939463E
:101FC000401E02F0D5FDA0692769A0F10208BF1CE0
:101FD000286803F01EFE42463946606902F078FD2B
:101FE000686803F016FE606942463946401C02F0FC
:101FF0006FFD686A022802E015E1B0E000E10BDD48
:10200000A86803F006FE61696A6A881C8B1801469D
:10201000424638465B1E27E0296AB14226DD6069E8
:10202000022E074600F1020801DB374401E007F108
:102030000207206901DB304401E000F1020022695F
:102040003B460A444146A2F1010202F041FE022E43
:1020500002DBA069821B01E0A269921EA069E96906
:102060003B46401A4146401C02F032FE022E02DB83
:102070006069064401E06669B61CE76928687F1E4E
:1020800003F0C7FD3A463146206902F0D7FD3A46D3
:102090003146A06902F0D2FDE7696868BF1E03F00F
:1020A000B8FD20693A463146401C02F0C7FDA069E0
:1020B0003A463146401E02F0C1FDE869022802DCC2
:1020C000286A022823DDA86A022802DDE1690F1AC6
:1020D00001E0E769BF1EA86803F09BFDE9690229DA
:1020E00009DD20693B46421800F1020C314660468A
:1020F000521E02F0EDFD286A022808DDA269E86997
:102100003B46101A3146401C921E02F0E1FD286841
:1021100003F07FFDD4E90620216902F0D9FC68684C
:1021200003F077FDD4E906202169401E491C521EA8
:1021300002F0CEFCA86A022811DDA1692669E469D3
:10214000A1F10208271AA41EB61C7F1CA86803F080
:1021500060FD234642463946304602F0B9FD71E043
:10216000208A00B2ADF81400A18A09B2ADF81610A9
:10217000228B12B2ADF81820A38B1BB2ADF81A3027
:102180002C69ED68CDE9005402F066FC5AE0208A23
:10219000298B0844ADF81400A08AADF81600208BF6
:1021A000298B401AADF81800A08BADF81A002068F2
:1021B00001F0D2FE0390006FF0B1022003F0B2FDF7
:1021C000039890F87C10C1F3C00100EB8100006C13
:1021D00003F01FFD0398406B03F038FD0398006F78
:1021E00001F0BAFE03990990B1F95A2005A902F04D
:1021F000A3FA09A801F01AFF03A801F017FF21E0D4
:10220000208AADF81400A08AADF81600208BADF836
:102210001800A08BADF81A00A86803F0FAFC05A816
:1022200002F082FD0EE0206801F096FE039030F887
:102230005A1F41F00C01018003A801F0F7FE20684D
:1022400010F0E4FD00206AE6F403022038B5050032
:102250004FF000040FD002F0E9FE284601F07CFEAA
:10226000009090F87C00000700D50124684601F03A
:10227000DDFE04F0AFF9204638BD70B50D46040010
:1022800009D002F0D3FE2946204616F0C9FEBDE86B
:10229000704004F09FB970BD2DE9FC410D468046A9
:1022A00002F0C4FE5FEA080028D001F055FE01905C
:1022B000C16D8C6800F0C9F807460198456301A814
:1022C00001F0B4FE2268012140469047064622688C
:1022D000032140469047054622680021404690472A
:1022E0000446404600F097F92B46324639464046B0
:1022F000009400F020F9404610F05AFA04F06AF910
:10230000BDE8FC817CB50D4604001DD002F08EFEB8
:10231000204601F021FE0090006F0190684601F018
:1023200085FE294601A805F07BF858B1204601F04A
:1023300013FE009001990167684601F077FE204680
:1023400010F036FA04F046F97CBD38B50C460500AD
:1023500013D002F06BFE284601F0FEFD0090B0F9AC
:102360005A10A14204D0A0F85A40284610F020FA92
:10237000684601F05BFE04F02DF938BD2DE9F34FFE
:1023800085B000270C46B846059801F0E5FD0090A1
:10239000C06D0121856805982A68904782462A68A1
:1023A00003210598904704902A68022105989047D8
:1023B00003902A680021059890470646009810F07F
:1023C000E3FE8346009810F0E6FE8146009890F800
:1023D0003210890601D5B0F9588000F036F805466C
:1023E0000098C06E10B10FF02CFF07462580678063
:1023F000A4F804A0049AABEB020006EB0802401E0E
:102400002A4420813A44E280039BA9EB0302521E36
:102410006281A4F80CA020827019E681401E6082BF
:10242000684601F003FEB4F90C000190B4F9100005
:10243000029002AA01A9059800F03AF80198A0813B
:102440000298208207B0BDE8F08F10B50146002049
:1024500091F83220920607D5B1F95400002803D133
:10246000486B02F06BFD801C10BD70B58AB00C4645
:10247000054601F071FD0990C06D866809A801F05C
:10248000D5FD009534B1012C06D0022C0BD0032CC5
:1024900004D10AE0182000E0162001907168684617
:1024A00088470AB070BD1520F7E71720F5E7000050
:1024B0002DE9FC4117468846044601F04DFD009089
:1024C000C16D056868468E6801F0B0FD3268002174
:1024D00020469047064620460FF0BBFD27E000BF90
:1024E00001F03AFD0190B0F900102AB2B0F90430C1
:1024F000891A9A1AB0F90230A3EB2543B34210D1DE
:1025000090F82800000605D53868884209DB491E86
:10251000396006E0D8F80000904202DC521CC8F88E
:10252000002001A801F082FD20460FF0D5FD040037
:10253000D6D1BDE8FC812DE9FF4F83B00E4607469A
:10254000DDF8409001F008FD0190C16D8D68FFF746
:102550007CFF044601A801F069FD2A680121384684
:10256000904783462A6803213846904782462A6866
:102570000021384690470546B44207D105998B455E
:1025800004D106998A4501D14D4541D0A41B0026AE
:10259000B04638460FF05DFD38E001F0DDFC0090FC
:1025A000806A010601D5800502E0810528D5000674
:1025B000002825DB24B122461146384610F017FAD0
:1025C000009890F8280000060AD50698A5EB0902A5
:1025D000A0EB0A0004FB16013846761C10F0BAF98D
:1025E0000098008D80050BD50599A5EB0902ABEB92
:1025F000010004FB080108F10108384610F0AAF9AF
:10260000684601F013FD38460FF066FD0700C4D19F
:1026100007B0BDE8F08F70B586B0064601F09CFCAF
:102620000590D0E91A4505A801F000FD54EA05001F
:1026300026D069463046FFF7A1FEACB1BDF90620B1
:10264000BDF90410204610F049F9BDF90A00BDF9A2
:102650000610421ABDF90800BDF90410521C411AB7
:102660002046491C10F0F6FB002D09D0BDF90600EC
:10267000BDF90210421ABDF90410284610F02EF9D7
:1026800006B070BD2DE9F0430446406889B00546A8
:102690000FF02FFD814601F05FFC0290D0F84880DA
:1026A000D0F88070466E02A801F0C0FC20681728A0
:1026B00053D008DC0E283AD00F2811D014284CD063
:1026C00015283DD149E01E281ED01F282AD02228D7
:1026D00040D0312834D10020E06009B0BDE8F0835B
:1026E0006FF070414046884503D008F09DF801F036
:1026F000BBFD002EF1D0D4E902122068CDE904051B
:10270000CDE9061204A81FE0E0680028E5D02FB14B
:10271000AF4203D0384610F0F3FADEE7284610F057
:1027200043FBDAE7214648460EF092FED5E7E06823
:102730004168002904DD00680928EFD00A2805D087
:102740005EB12046C4F80490B047C6E7284610F0B2
:102750003AFBC2E7C4F80C80BFE720460FF0E0FA6E
:10276000BBE7000070B54C4888B0016841F08001BB
:102770000160016801F080010791016841F48071F6
:102780000160006802A9002400F480700790802096
:10279000012681E8510003200590404804F072FFB3
:1027A0003502CDE902563E4E02A9304604F06AFFDA
:1027B000FEF732FC00222946304605F056F8142078
:1027C00018F02AFC01222946304605F04EF8322046
:1027D00018F022FC02226946A1208DF8004000F08A
:1027E0006FF89DF80010302903D19DF801000328EF
:1027F00031D09DF8010001282DD002282BD00422D1
:10280000694648F2401000F05FFD26A069468DF849
:102810000440FDF78DFD264848F24005009901224D
:10282000C0F80210022069468DF80000284600F02A
:10283000A1FE01226946E81D00F046FD0A2018F0BD
:10284000EBFB0122694628468DF8004000F092FE1D
:1028500008B0002070BDC0B200EB012115A0FDF74B
:1028600067FD01226946002000F078F901226946DF
:10287000A42000F073F91620694601228DF80000AB
:10288000802000F06BF90C20694601228DF80000D1
:10289000882000F063F9DBE730380240001C02407A
:1028A000002002404354502049443A25730D0A0049
:1028B0005C0002204354502049443A25780D0A0018
:1028C0002DE9F04115460F460446FEF773FC7020D3
:1028D000FEF734FCFEF7C0FCE0B2FEF72FFCFEF77B
:1028E000BBFCFEF767FC7120FEF728FCFEF7B4FC8A
:1028F00000246E1E09E0B44201D0012000E0002057
:10290000FEF7E4FB3855641CE4B2AC42F3D3BDE8F7
:10291000F041FEF77BBC00002DE9F1478A4D83B002
:1029200000274FF00A0A894CB8468DF80470687881
:10293000401CC0B26870B0FBFAF20AFB120109B188
:102940000A2870D2804882A1801CFDF71BFF03A9D2
:102950004FF0010208B30220FFF7B2FF9DF80C0010
:10296000010760D000F00F01287881425BD8FF2278
:1029700094F8209004EB40008A40D14341F0C0011C
:1029800084F82010A1894181E18A8182042018F015
:1029900043FB704E8DF8047085E048F24E163046C9
:1029A00000F092FC9DF80C000106D7D5297800F0C4
:1029B0000F008842D2D80122304601A98DF8047058
:1029C00000F0D8FDCAE7012294F82010824011429D
:1029D00064D05D485EA1801CFDF7D4FE20B35E4844
:1029E00004229DF8041030F811006946FFF768FFD3
:1029F00094F830009DF80010C0079DF8010001F028
:102A00000F0139D000EB01219DF8040004EB4000D8
:102A1000C1829DF802209DF8031002F00F0201EB25
:102A2000022181813AE058E04B4804229DF80410CD
:102A30000A3030F81100694600F046FC94F8300086
:102A40009DF80110C0079DF8000000EB01219DF8E2
:102A5000040004EB400005D081819DF802109DF830
:102A6000032018E0C1829DF803209DF8021001EBBD
:102A700002213288511AD4E700EB01203188091A6B
:102A80009DF8040004EB400081819DF802209DF830
:102A9000031002F00F0201EB0221C1829DF8040035
:102AA000401C8DF804009DF80400297888428AD3E0
:102AB000A0894FF001083188884203D8E08A7188E4
:102AC000884209D99DF80C0000F00F00012812D9A6
:102AD000E089A081208BE0826F701DA11A48801CC4
:102AE000FDF750FE00289DF80C004FF6FF710FD047
:102AF000C00624D01AE0287804EB40004189A18167
:102B0000808AE08280208DF80C0084F82090E4E731
:102B100000F08F00802812D008E020F0800003E051
:102B2000A18100F0E000E18284F820006878F028BC
:102B300001D985F801A004B04046BDE8F08794F8BB
:102B400020000206ECD5E8E75C0002202800022005
:102B500039313100AC080220D4F901082DE9F041E7
:102B6000002715460E460446FEF724FB7020FEF7AC
:102B7000E5FAFEF771FBE0B2FEF7E0FAFEF76CFB58
:102B8000002408E0305DFEF7D9FAFEF765FB070088
:102B900003D1641CE4B2AC42F4D3FEF737FB3846F1
:102BA000BDE8F0811CB50024019401AC009400F054
:102BB000E7F81CBD2DE9FF4F83B0814606988A4691
:102BC000A0EB0A08109E00200090A2EB09043568D3
:102BD000934654EA080018D02046FDF7B5FF074693
:102BE0004046FDF7B1FF87420BDA20464446804657
:102BF0004846D14682465846DDF818B00690012076
:102C00000090002C07DD204606E007B04846BDE8EE
:102C1000F04F00F03BB96042A0420AD04846D94686
:102C20006442C8F1000883464FF0FF37DDF818A072
:102C300000E001275148B8F1000F11D004EBD47126
:102C40004FEA610B01DACBF1000B4C480068807E43
:102C500088B3002F02DA30682044306000257BE022
:102C600000990029016821D0897E11B10027804692
:102C700015E007B05A4649465046BDE8F04F07F008
:102C80004BB828466D1C16F0A7FA38B9D8F80000E2
:102C900009EB0701406E4268504690477F1CA742EF
:102CA000EFDD6D1E356007B0BDE8F08F8A7E1AB18A
:102CB0000027804617E019E0486E5A4651460368DF
:102CC00007B04846BDE8F04F184728466D1C16F07F
:102CD00083FA38B9D8F8001009EB0700496E4A6842
:102CE000514690477F1CA742EFDDDAE700250FE051
:102CF00008FB05B090FBF4F101EB0A00009951B11B
:102D00001E4A09EB05011268526E526890476D1C0D
:102D1000A542EDDDC7E7194909EB05030968496ECE
:102D20004A6801461846F1E708FB05B090FBF4F14C
:102D300001EB0A00019030683844306016F04CFA1C
:102D400048B9009890B10D4809EB05010068406E44
:102D50004268019890476D1CA542E5DD3068002F60
:102D600001DA20443060C01B30609CE7034909EB66
:102D700005000968496E4A680199EBE7D80002200E
:102D80002DE9FF470F4640491646804609680C98D2
:102D90001D460A7E012A1CD0A8EB0600791B50EACA
:102DA00001031CD0A2F1010917F048FB00F5806077
:102DB000824604F024FC00FB09F4504604F024FC95
:102DC00000FB09F1002C0CDAC4F5007080124042BF
:102DD0000AE00090324639464046FFF7EBFEBDE878
:102DE000FF8704F50074A012002904DAC1F5007110
:102DF00089124C4202E001F500718C12002804DDBA
:102E0000411C01EBD171491003E000EBD071491076
:102E1000401E00EBD0704210002C04DD601C00EB63
:102E2000D070401003E004EBD4704010641E04EB3B
:102E3000D47308EB0104ADF800403C18ADF8024033
:102E4000A8EB02045B10B21AADF80440ADF80820FC
:102E50003144FC1AEA1AADF80C102844ADF80A20E7
:102E6000ADF80E000023ADF806401A46042168466E
:102E700000F07AF83946404613F00CF929463046FE
:102E800013F008F9ABE70000D8000220064A1368E7
:102E90001A7E012A05D0521E02EBD272521000F0A7
:102EA00005B85A6E52681047D80002202DE9F05F2D
:102EB0000646884640F2C32002FB00F14FF47A70C8
:102EC00091FBF0F702FB02F102EBD27001EB600B19
:102ED0001446B118234A301B7F1C1268526E1368C7
:102EE0000A4641469847012538E000BF05FB05F03A
:102EF00004FB040159451CDDBC4219DD194B06EBEE
:102F0000050AA6EB05091B68AAF1010208EB0401FA
:102F10005B6E09F101001B689847124BAAF1010290
:102F2000A8EB04011B6809F101005B6E1B68984760
:102F3000641E0C4B3219301B1B68924608EB0501CE
:102F40005B6E81461B689847064B5246A8EB05010D
:102F50001B6848465B6E1B6898476D1CBD42C5DD0B
:102F6000BDE8F09FD80002202DE9FF4F43F6FF7423
:102F70000F46664283B09B46814600210BE000BFAE
:102F800009EB8100B0F90200A04200DA0446B04229
:102F900000DD0646491CB942F2DB6748006840691B
:102FA00000280DD0B0F906101A46A1EB0B01B14272
:102FB00000DA0E46B0F90200801AA04200DD044695
:102FC000B4E0DFF878A100200546CAF8000088E0E8
:102FD000781E854201DA6B1C00E0002309EB850CAA
:102FE00009EB8302BCF90200B2F90210A04244D1FD
:102FF000A14215D139F92330059A39F9251003EB8F
:10300000020C4D4A05981268084404EB0B01526EFD
:103010006045136801DA62462AE00246604627E00E
:103020002846A4464FF000087A1E0BE008B1401E67
:1030300000E0781E09EB8003B3F90230634504D148
:1030400008F101089045F1DB2346A34248D01A1B42
:1030500039F92500A1EB040C059B92EA0C0F09D469
:10306000354A184404EB0B011268526E136802468D
:10307000984735E010F008FD32E0A14230D001DB86
:10308000A04203DDA0422BDBA14229DCE0468842BE
:103090000ADC0346A04223DC0846A14220DBB8F943
:1030A00000C0B2F9001008E00B46A14218DCA042B3
:1030B00016DBB2F900C0B8F90010E21AA1EB0C015E
:1030C00051430029A0EB030202DD01EB620102E0A3
:1030D000A1EB6201491CC01A91FBF0F06044C9E702
:1030E0006D1CBD42FFF674AF0598009004EB0B0019
:1030F000019000208046054613E01149B8F1000F09
:1031000031F915A009D0009901EB0A0208440A49D7
:103110000968496E0B680199984788F00108504684
:103120006D1C064909688D42E7DB641CB4427FF7D9
:1031300048AF07B0BDE8F08FD80002202406022077
:10314000B8B4042010B5002002F058FD6FF07F40A5
:1031500002F05FFD012002F0C7FD002002F0D2FD69
:10316000002002F0DFFD002002F064FD044800684A
:1031700002F06CFDBDE81040002002F087BD0000A9
:10318000D40002202DE9F043414889B0016841F0A4
:1031900080010160016801F080010791016841F43C
:1031A00080710160006801AADFF8E890802500F4D2
:1031B0008070079000240095012669460327484641
:1031C00082E8D00004F05EFA4FF480786946CDE9D9
:1031D0000086314E304604F055FAFDF71DFF0022FF
:1031E0004146304604F041FB0A2017F015FF01224A
:1031F0004146304604F039FB0A2017F00DFFCDE9B7
:103200000054CDE902476946484604F03BFA642081
:1032100017F002FF042248F2401005A900F054F80C
:1032200005A98DF818401DA0FDF782F81EA105A87C
:10323000FDF7A8FA40BB022048F2400501228DF8B4
:10324000140005A9284600F095F90122E81D05A9FA
:1032500000F03AF89DF8141060290BD214A0FDF785
:1032600067F818488088A0F5AA41103902D10120DA
:1032700000F05AF90A2017F0CFFE0122284605A9CE
:103280008DF8144000F076F909B00020BDE8F08315
:1032900030380240001C02400020024043545020BD
:1032A00049443A25730D0A003931343700000000D3
:1032B00044656661756C74205665723A25640D0A22
:1032C00000000000AC0802202DE9F04115460F4631
:1032D0000446FDF76FFF2820FDF730FFFDF7BCFF28
:1032E000200AFDF72BFFFDF7B7FFE0B2FDF726FF41
:1032F000FDF7B2FFFDF75EFF2920FDF71FFFFDF789
:10330000ABFF00246E1E09E0B44201D0012000E0B2
:103310000020FDF7DBFE3855641CE4B2AC42F3D369
:10332000BDE8F041FDF772BF2DE9F14F7A4E002460
:103330004FF00A0B794D82B0A1463078401CC0B2E4
:103340003070B0FBFBF20BFB120109B10A2878D2F6
:1033500048F24E170122384602A9FFF7B5FF9DF843
:1033600008004FF0000801060AD500F00F000628FB
:1033700006D20122384601A98DF8048000F0FAF83F
:103380009DF8080001075CD000F00F01062958D213
:10339000FF20634F4FF0010988408DF80400C043BF
:1033A00095F820A040F0C00085F82000A889A882E8
:1033B000E88AE88395F8201009FA04F0014268D001
:1033C00058480422694630F81400FFF77DFFB8889A
:1033D000A0F5AA41103908D0A0F5864142391AD08B
:1033E000A0F5864184392DD053E095F83000C00710
:1033F0002CD09DF801109DF8000000EB012105EB99
:103400004400C1829DF803209DF8021001EB0221C7
:10341000C1F548713CE095F83000C00716D19DF821
:1034200001109DF8000000EB012105EB4400C18272
:103430009DF803209DF8021001EB0221C1F588716F
:1034400026E041E095F83000C00710D09DF801104B
:103450009DF8000000EB012105EB440081819DF8FF
:1034600003209DF8021001EB0221C18211E09DF8BA
:1034700001109DF8000000EB012105EB4400C18222
:103480009DF803209DF8021001EB0221C1F5F071B7
:103490008181641CE4B2052C8CD3A9894FF0010909
:1034A0003A882846914203D8C18A7A88914209D93C
:1034B0009DF8081001F00F0101290CD9C189818103
:1034C000018BE98286F800809DF8080000F08F00EB
:1034D00080280AD018E0818A8181C18BC182802135
:1034E0008DF8081085F820A0EEE795F82000010679
:1034F00002D520F0800005E04FF6FF71A98100F0B1
:10350000E000E98285F820003078F02801D986F8BB
:1035100000B04846BDE8FE8F63000220280002206C
:10352000AC080220A0FA010808B500218DF80010AF
:103530008DF801000E489DF80020435C491CC9B27B
:10354000B8291A448DF80020F5D3D0B20849C043F9
:10355000401C8DF80000B82248F2470000F00AF83D
:103560000222694648F2FF0000F004F8002008BD7E
:10357000E8F901082DE9F041002715460E460446FA
:10358000FDF718FE2820FDF7D9FDFDF765FE200A9E
:10359000FDF7D4FDFDF760FEE0B2FDF7CFFDFDF7CE
:1035A0005BFE002408E0305DFDF7C8FDFDF754FE2A
:1035B000070003D1641CE4B2AC42F4D3FDF726FE4D
:1035C0003846BDE8F08100002DE9F0433F4889B05E
:1035D000016841F080010160016801F080010791FC
:1035E000016841F480710160006801AADFF8E09091
:1035F000802500F48070079000240095012669461C
:103600000327484682E8D00004F03CF84FF4807865
:103610006946CDE900862F4E304604F033F8FDF7B9
:10362000FBFC00224146304604F01FF90A2017F047
:10363000F3FC01224146304604F017F90A2017F046
:10364000EBFCCDE90054CDE902476946484604F059
:1036500019F8642017F0E0FC042248F2401005A994
:1036600000F050F805A98DF818401BA0FCF760FE8B
:103670001DA105A8FDF786F818B1012009B0BDE825
:10368000F083022048F2400501228DF8140005A9BC
:103690002846FFF76FFF0122E81D05A9FFF714FE7A
:1036A0009DF81410412905D211A0FCF741FE01201C
:1036B00000F02EF90A2017F0AFFC0122284605A9D8
:1036C0008DF81440FFF756FF0020D7E7303802404E
:1036D000001C0240002002404354502049443A2537
:1036E000730D0A0D0A000000393237310000000066
:1036F00044656661756C74205665723A25640D0ADE
:10370000000000002DE9F04115460F460446FDF784
:1037100051FD2820FDF712FDFDF79EFD200AFDF763
:103720000DFDFDF799FDE0B2FDF708FDFDF794FDF5
:10373000FDF740FD2920FDF701FDFDF78DFD00247B
:103740006E1E09E0B44201D0012000E00020FDF728
:10375000BDFC3855641CE4B2AC42F3D3BDE8F04183
:10376000FDF754BD2DE9F14783B000258DF80050D9
:103770004FF00A0A624C2F46624E4FF6FF792078CE
:10378000401CC0B22070B0FBFAF20AFB120109B172
:103790000A287DD248F24E180122404603A9FFF7BD
:1037A000B1FF9DF80C0001060AD500F00F000B28B0
:1037B00006D28DF8005001226946404600F0CEF84E
:1037C0009DF80C00010771D000F00F000B286DD29E
:1037D00009FA00F196F82080C84340F0C00086F84E
:1037E0002000B089F083F08A30858DF8005042E0E7
:1037F00096F820009DF8002001219140084235D024
:1038000041499DF80000062231F8100001A9FFF798
:1038100079FF96F830009DF80710C0079DF8060064
:1038200000EB012010D09DF8001006EB4101C8828A
:103830009DF805009DF8041001EB00209DF8001094
:1038400006EB4101888111E09DF80010C0F5487039
:1038500006EB410188819DF805109DF8040000EBFE
:1038600001209DF8001006EB4101C8829DF8000080
:10387000401C8DF800009DF800000A28B8D32348AA
:103880000127B1890288914205D8F18A408800E079
:103890000CE0814209D99DF80C0000F00F000128CE
:1038A0000BD9F089B081308BF08225709DF80C0027
:1038B00000F08F0080280AD018E0F08BB081308DA6
:1038C000F08280208DF80C0086F82080EEE796F8D4
:1038D0002000010604D520F0800086F8200005E0D5
:1038E000A6F80C90A6F8169086F820502078F028BC
:1038F00001D984F800A004B03846BDE8F087000084
:1039000065000220280002206EFB0108AC0802209E
:1039100008B500218DF800108DF801000E489DF8C3
:103920000020435C491CC9B2B8291A448DF8002014
:10393000F5D3D0B20849C043401C8DF80000BA222C
:1039400048F2470000F00AF80222694648F2FF00F8
:1039500000F004F8002008BDB4FA01082DE9F04198
:10396000002715460E460446FDF724FC2820FDF7E7
:10397000E5FBFDF771FC200AFDF7E0FBFDF76CFCB1
:10398000E0B2FDF7DBFBFDF767FC002408E0305DEB
:10399000FDF7D4FBFDF760FC070003D1641CE4B223
:1039A000AC42F4D3FDF732FC3846BDE8F0810000AC
:1039B0002DE9F04FDFF828B191B04FF0FF35DBF87B
:1039C0000030B3F922100691DE69B3F92490F4694E
:1039D000A189814206D8E289824203D3471AD4F8EA
:1039E000008012E0D4E9018100296FD00A88824268
:1039F0006CD84D88854269D3801A82B2486800EB42
:103A00008200B0F90070B0F90250781C5ED0307EB0
:103A1000A17C10FB01FA217CCDE90701B3F92A60F2
:103A2000304606F0D5FFC0B20E90DBF8000007FB71
:103A30000A81A37C826B0127CDE90412CDE90273D0
:103A4000C069089AC17E807ECDE90001DDE90603E8
:103A5000494605F09BFF681C18D046F0020006F0AE
:103A6000B7FFDBF80000A37C05FB0A81826BCDE980
:103A70000273CDE90412C069089AC17E807ECDE947
:103A80000001DDE90603494605F080FFDBF8000090
:103A90005D46C069417E007E814214D9022E12D05B
:103AA00086F0040006F094FF2868C069027EC37E99
:103AB00012FB0391437E857E089A06984B4412FBC5
:103AC000050206F05DFA0E9806F082FFDBF80000B2
:103AD000627C418C1144418411B0BDE8F08F00003C
:103AE000D800022004480068C069C06909B1027C9E
:103AF0000A60407C70470000D80002200220088045
:103B00007047C06982898A4202D8C2898A4210D22B
:103B1000806880B102888A420DD843888B420AD3DC
:103B2000406800EB8100A0EB8200B0F900000028A3
:103B300001DB012070470020704700002DE9F043B1
:103B4000304C034687B020681946B0F92A60C06936
:103B5000C06900F086F8002850D041680088181A23
:103B600001EBC0053046AF7806F032FF8146206891
:103B70006A680123816BCDE90237CDE90421C1696F
:103B8000CB7E8A7ECDE900230B7EB0F924102A7803
:103B9000B0F9220005F0FAFE2068C069417E027E7D
:103BA00091421FD9C07E11FB00F812FB00F7022ED4
:103BB00018D001F054F9064601F01AF902F029F87C
:103BC00021682A78CB69B1F92200DB7E12FB03025F
:103BD000B1F9241001EB0803394406F0D1F930465D
:103BE00002F017F8484606F0F3FE20686A78C369C9
:103BF000B0F922109B7E12FB0311418407B0BDE88F
:103C0000F0830000D800022030B50F4C05460B466B
:103C100020682946C069C06900F023F8002812D046
:103C20004168008824682A1A0120E46900EBC20078
:103C3000085CA47E10FB04F0002B04D011F83210B5
:103C400011FB04F1196030BDD8000220012008806A
:103C5000704700B5C06900F004F8002800D00120CA
:103C600000BD06E002888A4202D842888A4202D217
:103C700080680028F6D1704770B50025124C19E015
:103C800020691249C5EB051600EBC60070220968D1
:103C9000001DFCF715FD2069002140F8361000EBEF
:103CA000C60000F10C018161011D0A1DC0E90F125F
:103CB0006D1C4164A0688542E2DB01F0B7F9BDE804
:103CC000704002F087BC000008030220D8000220E8
:103CD00070B50F490D480860084603F099FB0C4C7D
:103CE000143CA068C0EB0010C500284600F0A6F800
:103CF0002A460021206103F004FC4FF0FF302060D1
:103D000002F0B1FCBDE8704013F008BC397D010839
:103D10001C030220F8B50C0005460FD001F086F90F
:103D2000204600F017F8060010D000F015F92246E2
:103D300000902DB12946FCF73CFC04E00020F8BDC2
:103D4000002103F0DEFB684600F070F902F042FC4F
:103D50003046F8BD10B5040009D001F067F92046DF
:103D60000FF068FF044602F035FC204610BD00202D
:103D700010BD38B5054601F059F92846FFF7EAFFAE
:103D8000040009D000F0E8F82A460021009003F072
:103D9000B8FB684600F04AF902F01CFC204638BD2A
:103DA000024A106021F0030050607047E0B2042026
:103DB00010B5040016D001F039F90B48406B10F82B
:103DC000341059B1022909D2042101EBC401415830
:103DD00048680FF075FE204615F01CF8BDE810404D
:103DE00002F0F8BB10BD000020B20420002805D06E
:103DF000034AD16B016001B14860D0637047000095
:103E000020B2042010B5044601F010F92068FFF735
:103E1000CFFF00202060BDE8104002F0DBBB0000B7
:103E200070B50D460646002405E000BF06EB840091
:103E3000FFF7E8FF641CAC42F8DB70BD2DE9F041F0
:103E4000044613F0D9FC2848E41C24F00305016C57
:103E50002D1DA94200D90D46C46B13E054F8042C63
:103E6000AA420ED184B1216809B162684A606168D2
:103E700009B122680A60C26BA24231D12168C163D4
:103E80002EE02468002CE9D18046816BC0680F18B1
:103E900057F8040C3E1A306838B1002015F030F89D
:103EA00057F8040C3E1A3068D0B97068A84217DB86
:103EB0003044441B3046241D14F0DAFFD8F80C10AF
:103EC000491BC8F80C10D8F814102944C8F814106D
:103ED0007068401B02D031460FF0F2FD44F8045CDC
:103EE0002046BDE8F081000020B2042010B5002477
:103EF00013F082FC0C490F2001EBC002526C1AB186
:103F000001EBC000406C08E0401EF5D508E04168B8
:103F1000A14200D90C46806810B180680028F6D113
:103F2000A4F10C0010BD000020B20420002138B123
:103F30000449042202EBC000496B085841680C395F
:103F40000846704720B2042002488169491C8161FB
:103F50007047000020B204200549CA69521CCA619A
:103F6000496B01EBC0010A78521C0A7000F076B868
:103F700020B204207CB506460C460846FFF7EAFE50
:103F8000050020D0FEB13046FFF7D0FFA04200DA96
:103F9000044601F04BF82846FFF7DEFF009030465C
:103FA000FFF7DAFF0146019022460098FCF701FB7B
:103FB000684600F03BF801A800F038F83046FFF7FB
:103FC000F7FE02F007FB28467CBD000010B501F0AB
:103FD0002DF8FFF78BFF64220849B0F5800F04D954
:103FE00090FBF2F4086A444303E0096A4143B1FBE1
:103FF000F2F402F0EFFA204610BD000020B20420D7
:104000000549102805D94A68B0EB520F02D3500871
:1040100000E0102088607047E0B204200248816907
:10402000491E81617047000020B204200A490268DD
:104030004B6B52F8082C03EBC2021378022B03D30C
:10404000CB690BB15B1ECB611178491E1170002149
:10405000016008467047000020B20420002806D006
:104060000349042202EBC000496B0858083070472E
:1040700020B204202DE9FC414FF000060B465FEA18
:10408000000834462BD032B111461846FFF742FEE5
:10409000060000D101244046FFF75EFF009007882C
:1040A00045686846FFF7C2FFCCB9B9002846091D2C
:1040B000FFF760FF050015D0FFF74EFF019040F8B5
:1040C000276001A8FFF7B2FF4046FFF745FF0090C9
:1040D00045600188491C01806846FFF7A7FF20461C
:1040E000BDE8FC813046FFF763FE0124F7E70820B6
:1040F000FFF73FBE7CB5050023D0FFF72DFF0090F2
:104100004068C0B1FFF728FF0024019005E0019846
:1041100000EB8400FFF776FE641C00980088A04244
:10412000F5DC01A8FFF782FF0098001DFFF76AFE8B
:104130000099002008806846FFF778FF2846FFF7BF
:1041400037FE7CBD38B5002430B1FFF705FF009085
:1041500004886846FFF76AFF204638BD38B50D462B
:10416000002448B1FFF7F8FE2946009000F018F847
:1041700004466846FFF75AFF204638BD38B50D465D
:1041800001880024A94209D9406838B1FFF7E4FE4C
:10419000009050F825406846FFF748FF204638BD9C
:1041A00010B50024FFF7EAFF10B1FFF7D5FE044673
:1041B000204610BD70B514460D46064600F036FF89
:1041C000204600F059FE0300174804EB840109D093
:1041D00050F8210041688068711A2A1A184601F0C7
:1041E00045FD1CE000EB8104A268B24201D001222F
:1041F00000E00022E368AB4201D0012300E000238D
:104200001A430CD0236943B150F8210081684068FB
:104210006A1A311A184601F0ADFCC4E90265BDE81E
:10422000704002F0D7B9000024B4042010B5C2B227
:10423000CBB2D21A00D5524293B25B43C0F30722ED
:10424000C1F30724121B00D55242000C92B2A0EB1E
:10425000114002FB023200B2002801DA404200B2F3
:1042600080B200FB002010BD10B50021084600F010
:104270007BFE43F6FF725042BDE8104013460146F4
:10428000AFF300802DE9FC411C4615460E4607465B
:1042900000F0CCFE042006F09BFB80461248C0686C
:1042A000C16C006D0F4406440D440444ADF8007029
:1042B000ADF80450ADF80260ADF8064068460EF067
:1042C00071FF07E023462A463146384605F058FE7E
:1042D0000EF01CFF0028F5D1404606F079FB02F0F5
:1042E00079F9BDE8FC810000CC000220B0F906306D
:1042F000B0F90420B0F90210B0F90000FFF7C2BF16
:104300002DE9F8431C00DDE9089816460F460546DE
:1043100002D10DF077FE044600962E6843464A46C9
:1043200021462846B047060039D00DF060FE814690
:10433000698A30460DF020F930460EF0BFFD484640
:104340000EF0BCFD4FF000080CE000BFCDF800807F
:1043500055F81CCF00231A4649462846E04700B3CB
:104360000EF0ACFD7F1E002FF0DC1D2148460EF044
:1043700022FC601C12D000F059FE0DF077FE30B127
:10438000FFF76CFE8469B44201D02000F8D1B4423A
:1043900002D030460EF008FD02F01CF93046BDE8B0
:1043A000F88330460DF0F4FC0020F8E72DE9F041E9
:1043B0001C4616460D460746022B02DB0020BDE8D0
:1043C000F0811C20FFF73AFD0028F8D00DB10561FF
:1043D0000AE0094A52F8241009B905E011460A68B2
:1043E000002AFBD109690161846186820021016094
:1043F0004160C0E90217E2E7F000022070B51D46F7
:10440000FFF7D4FF040009D000F00EF8E068006860
:1044100020B90348006800EB85008465204670BD24
:10442000D8000220FFF7E2BC70B590B38269022A7F
:1044300030DA1E4C54F8221019B944F8220032E048
:1044400019464B68002BFBD106E0CB68C5681B689A
:104450002D68AB4203DD09680029F6D11AE0C1B12D
:10446000CB68C6681B683668B3420CD1838A012BBF
:1044700005D008E01946DB681B68AB4203DB0B681C
:10448000002BF7D129B14B6833B118604A684260FC
:1044900004E0FFE7012070BD44F822004860884234
:1044A00000D100210160002070BD0000F00002205A
:1044B00010B503E00468FFF7B7FF20460028F9D1E4
:1044C00010BD15F06BBB00002DE9F0410026DFF8B0
:1044D00034800D4F354600BF58F8254009E0E068AC
:1044E0000068385C20B1204615F058FB266026464F
:1044F0002468002CF3D16D1C022DEDDB3046BDE8A5
:10450000F0810000F0000220C0130208022801DB45
:1045100000207047054951F8200004E0C16809688F
:104520000029F6D000680028F8D17047F00002207A
:104530002DE9F8431D461646884604000CD0FFF7C7
:104540000BFD0090006807686846FFF76FFD2B467B
:10455000324641462046B847BDE8F88338B50400E6
:104560004FF000000AD02046FFF7F6FC00900068EC
:1045700045686846FFF75AFD2046A84738BD38B55C
:1045800004004FF000000AD02046FFF7E5FC009041
:10459000006885686846FFF749FD2046A84738BD92
:1045A0002DE9F041044602F057F806191EE000BF5D
:1045B00000F06CFB052F00DD052700F037FD1148EA
:1045C0000568FFF7C1FC2C0017D000BF02F002F80D
:1045D000641EFBD1384602F031F81DB100F026FD13
:1045E0006D1EFBD1FFF71AFD01F0F4FF02F034F865
:1045F000371A002FDCDCBDE8F081384602F01EF8E7
:10460000F0E70000140302202DE9FC4706005FD00C
:1046100000F00CFD00F03AFC3C4C81462068B0F9FB
:10462000228000F06DFC216807468A8CD01B8884AC
:1046300041E000BF47F6FF71304602F07FFD824641
:104640000146304602F050FD2168054691F82C00E5
:1046500000F00300012841D002283BD000204A8C02
:10466000101A4884ADF800006A1E1044ADF804002A
:10467000888CADF80200A9F101010844ADF80600EC
:104680006A465146304602F0C7F92168BDF802007B
:1046900088845146304601F08BFE064430780A2863
:1046A0001ED00D281CD0BDF8000021682844488485
:1046B000307818B1761C30780028BBD12068818C06
:1046C00039448184818D21F00301818501F082FFCD
:1046D000BDE8FC8705EBD5704010C0E72846BEE773
:1046E000206890F82C1001F0030101290BD0022959
:1046F00009D0018C418431780A29D9D1828C02EB0E
:1047000009018184D4E7A0F82280F4E7D8000220D0
:1047100070B514460D46064600F088FC0548006852
:10472000458484843046FFF76FFFBDE8704001F098
:1047300051BF0000D800022047F6FF7300F044B8D4
:104740002DE9FF471F460C9E90460D46814696B3C5
:1047500000240094019400F069FCADB12868009039
:1047600068680190174800990160019941602846E6
:104770000EF094FB040007D00246294602A802F07E
:104780004AFD02A80EF08AFB304615F00BF80546EC
:104790007168684688473B4642466946484602F08B
:1047A00093F920460EF07AFB284614F0FBFF01F047
:1047B00011FFBDE8FF87FFE704B0BDE8F04700F058
:1047C00003B80000800502202DE9FC411F469046F9
:1047D0000D4606004FF000041AD000F027FC65B12A
:1047E00028460EF05BFB040007D0024629466846C7
:1047F00002F011FD68460EF051FB3B464246294649
:10480000304602F061F920460EF048FB01F0E2FE6E
:10481000BDE8FC812DE9FF4F87B09046894607002F
:104820007DD000F003FCD9F80040D9F8045021B243
:1048300028B2401A401C029000F028FB064618F0EF
:104840000C0F1ED038460A9A029901F0CDFE08F0EE
:104850000C01042904D0082902D00C2911D104E04C
:10486000291400FB1610401C09E02114C1EB25425D
:1048700000FB1620401C00EBD07001EB600060F3E1
:104880001F4448460EF00AFB5FEA000B09D00246BF
:10489000494604A8CDE9044502F0BDFC04A80EF089
:1048A000FDFAA6F1010A38460A9A029902F0F8FDCB
:1048B00003900AEB244060F31F45CDE900453846DC
:1048C000039902F011FC18F003010ED001292CD03D
:1048D00002290ED1B9F90420B9F90010521A101AA0
:1048E00000EBD07001EB600001E0B9F80000ADF81A
:1048F00000006A463846039902F08EF838460A9A54
:10490000029902F0C3FD074406EB244060F31F4404
:1049100038780028C7D158460EF0C0FA00E001E010
:1049200001F058FE0BB0BDE8F08FB9F80410081A7A
:10493000401CDCE71CB50A460146684602F05AFDF9
:1049400000F074FB2548BDF80010006830F84C2FCB
:104950001144ADF80010BDF8021082881144ADF882
:104960000210BDF8041002881144ADF80410BDF81F
:10497000061080880844ADF8060068460EF012FC68
:1049800027E000BFBDF900400BE000BFBDF90210F9
:10499000204605F075F9BDF90610204605F070F9BE
:1049A000A41CBDF90400A042F0DABDF902400AE0FF
:1049B000BDF90000214605F063F9BDF90400214668
:1049C00005F05EF9A41CBDF90600A042F0DA0EF075
:1049D0009DFB0028D6D101F0FDFD1CBDD8000220B2
:1049E0002DE9F04F87B09B46DDE9109892460C46C2
:1049F000054600F01BFB16480168C86C096D471995
:104A00000E1900EB0A0501EB0B04ADF81070ADF8C0
:104A10001450ADF81260ADF8164004A80EF0C2FBB9
:104A200088B1DFF830B04FF0000ACDE90098CDE949
:104A300002BA2B4622463946304611F001FA0EF0F2
:104A400065FB0028F1D101F0C5FD07B0BDE8F08F8E
:104A5000D8000220199D00082DE9F04F87B09B4631
:104A6000DDE9109892460C46054600F0DFFA16483C
:104A70000168C86C096D47190E1900EB0A0501EBB6
:104A80000B04ADF81070ADF81450ADF81260ADF82D
:104A9000164004A80EF086FB88B1DFF830B04FF066
:104AA000010ACDE90098CDE902BA23462A463146EB
:104AB000384611F0C5F90EF029FB0028F1D101F0BC
:104AC00089FD07B0BDE8F08FD8000220919B000857
:104AD0002DE9FC4114460D46064600F0A7FA114F99
:104AE0003968C86C096D054404440E44ADF80050A3
:104AF000ADF80440ADF80260ADF8066068460EF00F
:104B000051FB08E0386822463146406E036828466B
:104B100098470EF0FBFA0028F4D101F05BFDBDE8E8
:104B2000FC810000D80002202DE9F0411C4615460A
:104B30000E46074600F07AFA0C480168C86C096D09
:104B4000074405440E440C4400200EF02BFB07E004
:104B500023462A4631463846FEF724F80EF0D6FAA8
:104B60000028F5D1BDE8F04101F034BDD8000220A5
:104B70007CB50C46064600F059FA0F4D2868C16C0A
:104B8000006D0E440444ADF80460ADF80060ADF86B
:104B90000640ADF8024068460EF004FB07E02868C6
:104BA0002146406E4268304690470EF0AFFA00282A
:104BB000F5D101F00FFD7CBDD80002202DE9FC41AC
:104BC0001C4616460D46074600F030FA1A480168A2
:104BD000087ECA6C096D17440D440C44401E391AF6
:104BE0001644ADF800103118ADF80410291A20440D
:104BF000ADF80600ADF8021068460EF0D3FA15E0E5
:104C000032462946384604F0C3FF3246214638462C
:104C100004F0BEFF621E691C384605F07DF8621E76
:104C2000691C304605F078F80EF070FA0028E7D1DC
:104C300001F0D0FCBDE8FC81D80002207CB5144610
:104C40000D46064600F0F2F90F480068C16C006D91
:104C50000E4405440444ADF80060ADF80460ADF8BE
:104C60000250ADF8064068460EF09CFA06E0224677
:104C70002946304605F050F80EF048FA0028F6D1E3
:104C800001F0A8FC7CBD0000D800022010B5002473
:104C900000E0012400F004F80028FAD1204610BDFD
:104CA000094810B50068002410B1804700B1012404
:104CB0000DF01CF900B101240448006810B18047D0
:104CC00000B10124204610BDFC000220F8000220A3
:104CD0002DE9FC411C4615460E46074600F0A6F994
:104CE00010480068C16C006D0F4406440D44044434
:104CF000ADF80070ADF80450ADF80260ADF80640B4
:104D000068460EF04FFA07E023462A4631463846F9
:104D100005F036F90EF0FAF90028F5D101F05AFC49
:104D2000BDE8FC81D8000220B0F90630B0F90420BB
:104D3000B0F90210B0F90000FFF7CABF08B50B4682
:104D4000002805D0009281888268C08800F001F8B0
:104D500008BD10B50828029C30D008DC04FB01F423
:104D600001280AD0022813D0042804D11CE01028FE
:104D700028D020282CD0002010BD04EBD30003F055
:104D80000701105CC1F10701C84000F0010010BD2F
:104D900004EB93000621105C01EA4301C1F1060116
:104DA000C84000F0030010BD04EB5300D907105CAD
:104DB00002D000F00F0010BD000910BD04FB01304F
:104DC000105C10BD481004FB003032F8100010BD1C
:104DD000881004FB003052F8200010BD034951F840
:104DE0002000C1688A6A082110470000F0000220F4
:104DF00010B500F01BF905F0F3F805F0C3F904460F
:104E000001F0E8FB204610BD10B5044600F00EF995
:104E1000054800210068C069426820469047044662
:104E200001F0D8FB204610BDD800022070B50C461A
:104E3000054600F0FBF8064821460068C069426854
:104E400028469047044601F0C5FB204670BD00008F
:104E5000D8000220002801D00DF0A6B8704710B588
:104E600000F0E4F805F0C4F805F08CF9044601F010
:104E7000B1FB204610BD00000021022802D20249E9
:104E800051F82010084670470003022010B500F0CA
:104E9000CDF804480068C069447E01F09BFB2046C1
:104EA00010BD0000D800022070B514460D4606461D
:104EB00000F0BCF822462946304605F005F910B14D
:104EC000002028602060BDE8704001F083BB70B511
:104ED0000C46054600F0AAF82146284602F058F98B
:104EE000BDE8704001F076BB10B5044602F042F90F
:104EF00001462046BDE8104002F0F6B801F0ACBB18
:104F000010B5002400F092F80B48006890F82C10BF
:104F100001F00C01042904D0082906D00C2907D17E
:104F200003E0C069047E641E02E0C069007E44089C
:104F300001F050FB204610BDD8000220017EC07E4B
:104F400011FB00F070470000024951F82000006991
:104F500000687047F0000220024951F82000006903
:104F600040687047F000022070B50D46044600F01E
:104F70005DF8204612F04CFB0446284612F050FB28
:104F8000044301F027FB204670BD000010B501F07E
:104F900073FC0A492E20087001F064FB084812F0E7
:104FA000DDFB05F015F904460021084600F07CFE03
:104FB0000DF054FBFEF760FE204610BDCC00022031
:104FC000ECB204202DE9FC411C4615460E4607466E
:104FD00000F02CF8012000F02DFE804612480068F9
:104FE000C16C006D0F4406440D440444ADF80070DC
:104FF000ADF80450ADF80260ADF8064068460EF01A
:10500000D1F807E023462A463146384604F0B8FF77
:105010000EF07CF80028F5D1404600F00BFE01F0C0
:10502000D9FABDE8FC810000D800022070B5184C08
:10503000E06820B101F00DFB6168884204D001F006
:1050400013FB01F006FB6060E068401CE060012893
:105050001CD112F063FA05462068854216D000285C
:1050600013DBFFF731FA01462068C0EB001220691C
:1050700000EBC2025167C5EB0511064A00EBC10007
:10508000011D1160406FFFF713FA256070BD00002D
:1050900008030220D80002201CB5040004D10E48E9
:1050A0000068046E002C16D0FFF7C0FF2046FEF704
:1050B00053FF009044696846FEF7B8FF4CB12046A4
:1050C000FEF74AFF019081688968884701A8FEF7CA
:1050D000ADFF01F07FFA1CBDD800022001490A464D
:1050E00000F002B801F0FFFF2DE9F04387B015464C
:1050F0000C465FEA000846D0FFF798FF002000F05A
:1051000099FD814621480068066E4046FEF724FF5F
:1051100000900068806900F055FD074640F6FF707A
:10512000C44204D10098B0F90440B0F90650009888
:10513000611E0289ADF804401144ADF808104189A0
:10514000681E0844ADF80650ADF80A000CF068FC83
:105150006846FEF76BFF01A80EF024F806E02A4629
:105160002146404600F082FB0DF0D0FF0028F6D12A
:10517000384600F027FD304600F08AF9484600F036
:1051800059FD01F027FA07B0BDE8F083D8000220EE
:105190002DE9FE4F984691468A46834600270C9E8D
:1051A000FFF744FF184819490068407C51F8204037
:1051B000E1680968042903D02468002CF8D100E0D4
:1051C0001CB9FFF7A3F904001BD0E0680121C26AF3
:1051D00020469047050011D02469A0688047401CF4
:1051E00002D10B4C46F001060096CDE9015443462E
:1051F0004A465146584600F0DFF9074601F0EAF901
:105200003846BDE8FE8F0000D8000220F0000220E2
:105210008032020838B504001CD0FFF707FF0E48A3
:105220000068006EA04201D100F0BEFC2046FEF7EF
:1052300093FE0090406908B101F0B5F9009800684C
:10524000FFF7F0F86846FEF7F1FE2046FEF7B0FDE6
:1052500001F0C0F938BD0000D80002202DE9FF4F51
:10526000DFF83891074683B0D9F800009A468B469C
:10527000447C4B4800570128204606DD04F04CFFD3
:105280000546204604F054FF05E004F033FF0546D0
:10529000204604F035FF04461FB302A901A8FFF71A
:1052A00016FEB7F90000002800DA0020B7F9026006
:1052B0008046002E00DA002601984119B7F9040053
:1052C000491E12F00CFC054602980119B7F90600B8
:1052D000491E12F004FCA5EB0802841B521C641C3E
:1052E00003E04FF0000846462A46BAF1000F01D10C
:1052F000C4F1000A002A4FDD002C4DDD109800900B
:10530000534631464046FFF743FF5FEA000A10D09C
:1053100000F078F80746A04206D0D9F80000806C6B
:1053200010B132210EF0EEFA504600F0B1F800252F
:1053300021E0594605988847012007B0BDE8F08F65
:10534000611BB94202DA504600F086F83DB172198D
:105350004146504600F0C4F85046FFF79DFE5946BE
:10536000059888470F48016809B1002088475046D2
:10537000FFF7B4FE3D44A542E2DB5046FFF74AFF8B
:10538000002000F085F8A74206D0D9F80000806C14
:1053900010B133210EF0B6FA0020CEE7D80002207B
:1053A000100102204C03022038B505004FF0000424
:1053B00011D0FFF73BFE2846FEF7CEFD00900068B7
:1053C00000698068804705F023FF04466846FEF7C1
:1053D0002DFE01F0FFF8204638BD38B504000ED090
:1053E000FFF724FE2046FEF7B7FD00F118040090F9
:1053F0006846FEF71BFE01F0EDF8204638BD0020A0
:1054000038BD000038B504460025FFF70FFE1CB973
:1054100008480068046E44B12046FEF79DFD0090E8
:10542000B0F90A506846FEF701FE01F0D3F82846AD
:1054300038BD0000D800022070B50546002428467B
:105440000EF0CCFF641C18B1BDE8704000F07AB8D3
:10545000052CF4DB70BD000038B50C46050004D106
:105460000A480068056E002D0FD0FFF7DFFD2846C3
:10547000FEF772FD0090B0F90A10A14200DD4481F0
:105480006846FEF7D3FD01F0A5F838BDD80002202C
:10549000F8B50546FFF7CAFD104E3068046ECDB171
:1054A0000CB100F081FB0CF02BFC2846FEF754FDFC
:1054B000009031680D660068FEF7B6FF6846FEF79B
:1054C000B5FD05F0CFFC05F0D9F900BF01F082F879
:1054D0002046F8BD00F068FBF8E70000D800022085
:1054E0007CB515460E46040004D115480068046ECC
:1054F000002C24D0FFF79AFD2046FEF72DFD2DB29B
:105500000090C58034B2848005F0B8F900984069F5
:1055100080B1FEF721FD009A0190B2F90810818058
:10552000B2F90A20C28011B10AB10480458001A8F5
:10553000FEF77CFD6846FEF779FD01F04BF87CBD77
:10554000D800022001490A4600F002B801F0FFFF2E
:105550007FB515460C4606002DD0FFF767FD304697
:10556000FEF7FAFC40F6FF710190CC4203D1B0F98E
:105570000440B0F906500289611E1144ADF808409C
:10558000ADF80C104189681E0844ADF80E00ADF866
:105590000A5001A8FEF74AFD02A80DF003FE06E03E
:1055A0002A462146304600F049F90DF0AFFD0028AB
:1055B000F6D101F00FF87FBD2DE9FF4FDFF8E8B01D
:1055C00083B01C46DBF80010DDE9106092464FF016
:1055D00000084B7C42461299FEF7E8FE050060D0B9
:1055E00028698068804705F013FE81460AFB09F1AF
:1055F000C91DCF08FEF7EAFCF10705D1C11700EB82
:105600009170801000EB4000002C09DC1FB11838AD
:10561000B0FBF7F000E000206442A04200DC04464A
:10562000F00707D10090DDE903012346524600F060
:105630003FFF8046002C03DC2846FEF7F3FE30E0F7
:1056400004FB07F01830F10702D0FEF783FB01E0FE
:10565000FEF78FFB06001CD0FEF77EFC0190056074
:10566000039981800499C180A0F808A04481C0F802
:105670001480C0E9037901A8FEF7D8FC1298AE6047
:105680002861DBF80000407CA861304607B0BDE827
:10569000F08F2846FEF7C6FE5FEA080001D0FEF74D
:1056A00087FB0020F2E70000D80002202DE9F74F29
:1056B0008EB0144689460E98FEF74EFC0990B0F95C
:1056C00008B0B0F90A600068006940680C9009A849
:1056D000FEF7ACFC564D574F2868407C57F8200029
:1056E000C1688A6A082190470790182801D32020B2
:1056F00007902868407C57F820000069069003C88E
:105700000B904D48814201D0012000E000200A901A
:10571000002000F0ABFF00287DD1286809EB0B01C9
:10572000B0F90C20891A491E002902DDABEB0105F6
:1057300000E05D46B0F90810494505DDA1EB09011F
:1057400089446D1A089101E000210891002D6BDD5C
:10575000B0F90E20A119891A491E002902DDA6EB15
:10576000010800E0B046B0F90A00A04204DD061BC3
:105770003444A8EB060800E00026B8F1000F53DD22
:10578000089801900DA95F46DDF830A00E980091B1
:10579000FFF723FE774300EB870101982B4601EBCF
:1057A000800200994846CDE900A1214601F03CFA6B
:1057B0000090002838D00A98E8B1DDE90632294681
:1057C000009801F053F8B0B90698009FDA46D0F877
:1057D00010C0BCF1000F05D004235A4639463846A4
:1057E000E04708E00B993868884701C7AAF1010033
:1057F0005FEA000AF6D100990020079ACDE903017B
:10580000059001200090CDE9010221460346641C69
:105810002A46484600E007E004F0B8F8A8F1010085
:10582000761C5FEA0008ABD111B0BDE8F08F000034
:10583000D8000220F0000220A3A10008F8B5154608
:105840000E460746FEF788FB009000681621C068E8
:10585000426A0020904704466846FEF7E7FB002CAA
:1058600003D02A4631463846A047F8BDF8B516465B
:105870000F46050012D0FEF76FFB009044696846A2
:10588000FEF7D4FB2846FFF78FFD0346082800DD0E
:105890002CB132463946284614F0B4F9F8BD3246E8
:1058A0003946284614F04EFBF8BD00000248006857
:1058B000407C00F003B80000D8000220F8B51D4974
:1058C000096809B1002200E002461B498D56012DEE
:1058D0002EDD1849143151F822305B1C41F822307A
:1058E000012B25D1A1F108030026103953F82240DD
:1058F00051F8221053F822707F1C43F82270AF42F7
:1059000001D143F8226053F822708F42F2D03D4615
:10591000FEF7FCFD009000280AD0C0682121426AF1
:1059200068469047030003D02A46214600989847CE
:10593000F8BD0000CC0202201001022002480068DD
:10594000407C00F003B80000D800022038B51449AC
:10595000096809B1002200E002461249895601296E
:105960001CDD0F49143151F822305B1E41F8223002
:1059700014D1083951F82240103141F82240FEF785
:10598000C5FD0090002809D0C0682221426A6846FF
:105990009047020002D021460098904738BD000091
:1059A000CC0202201001022010B5002821D009B33A
:1059B0000AB3B1F90040B2F900309C4200DA234644
:1059C0000380B1F90240B2F902309C4200DA23466A
:1059D0004380B1F90440B2F904309C4200DD234613
:1059E0008380B1F90610B2F90620914200DC11461D
:1059F000C18010BD11460A6802604968416010BD4F
:105A000000280BD003880B440380838819448180CD
:105A1000418811444180C1881144C1807047000011
:105A200070B50E4D0446D5E90001884209D10C49F4
:105A3000884201D13C3000E00C3807C884E80700F8
:105A400006E090E80E0084E80E0011F0FFFD2860EB
:105A5000207A002800D0012070BD000088050220B7
:105A60004CB404200448D0E90010814201D1012047
:105A7000704700207047000088050220054A10B5D5
:105A80000349116013F046FFBDE8104000F05AB919
:105A9000712201080001022070B50025FFF7C6FA47
:105AA000094CD4E9002082420AD0D2E900561046BF
:105AB00011F0D6FD2060314628460CF063FF012529
:105AC00000F088FD284670BDF00202202DE9FC415F
:105AD000154DDDE908742D68B5F90860864200DDD2
