:020000040800F2
:10000000A0C00420ED02000889C10008638E00082A
:1000100011C10008B90F000805090108000000001F
:100020000000000000000000000000000DCE0008ED
:100030009D130008000000009DC4000895CE000834
:100040000703000807030008070300080703000868
:100050000703000807030008070300080703000858
:100060000703000807030008070300080703000848
:100070000703000807030008070300080703000838
:100080000703000807030008070300080703000828
:100090000703000807030008070300080703000818
:1000A0000703000807030008070300080703000808
:1000B000070300088DF60008C5F6000807030008CE
:1000C00007030008070300080703000807030008E8
:1000D00007030008C1080108070300080703000818
:1000E00007030008070300080703000807030008C8
:1000F00007030008070300080703000807030008B8
:1001000007030008070300080703000807030008A7
:100110000703000807030008070300080703000897
:100120000703000807030008070300080703000887
:100130000703000807030008070300080703000877
:100140000703000807030008070300080703000867
:100150000703000807030008070300080703000857
:100160000703000807030008070300080703000847
:100170000703000807030008070300080000000049
:100180000703000807030008070300080703000827
:100190000703000807030008070300080703000817
:1001A0000703000807030008070300080703000807
:1001B00007030008070300080703000807030008F7
:1001C00007030008070300080000000007030008F9
:1001D00007030008070300080703000807030008D7
:1001E00007030008070300080703000807030008C7
:1001F000070300080703000800F002F800F067F8A2
:100200000AA090E8000C82448344AAF10107DA4571
:1002100001D100F05CF8AFF2090EBAE80F0013F05C
:10022000010F18BFFB1A43F001031847A022020078
:10023000C02202000A444FF0000C10F8013B13F0FA
:10024000070408BF10F8014B1D1108BF10F8015B2F
:10025000641E05D010F8016B641E01F8016BF9D122
:1002600013F0080F1EBF10F8014BAD1C0C1B09D179
:100270006D1E58BF01F801CBFAD505E014F8016BEB
:1002800001F8016B6D1EF9D59142D6D3704700007D
:100290000023002400250026103A28BF78C1FBD88F
:1002A000520728BF30C148BF0B607047642900F077
:1002B000A980782900F0E280732900F011830020E2
:1002C00070471FB519F04CFE1FBD10B510BD00F0F2
:1002D000A1FB1146FFF7F5FF19F04AFD00F0BFFB47
:1002E00003B4FFF7F2FF03BC19F004FD094880478F
:1002F00009480047FEE7FEE7FEE7FEE7FEE7FEE708
:10030000FEE7FEE7FEE7FEE704480549054A064B1F
:100310007047000099CE0008F9010008A0B404203D
:10032000A0C00420A0B60420A0B60420704700009E
:100330000FB4044910B503AA029800F0D5FA10BC16
:100340005DF814FB100002202DE9F0410E46044632
:10035000002020622046E168884730B3252805D078
:10036000D4E901219047206A401CF2E7E168204669
:1003700000278847050018D0A5F14100192802D8A8
:1003800020354FF400673246294620462760FFF7A4
:100390008DFF40B1012804D0F61D26F0070608366F
:1003A000D8E7361DD6E72846DAE7206ABDE8F081AF
:1003B00070B50C460546012A05D02878800600D580
:1003C000EA69002302E0012305E05B1C934202D2AC
:1003D000E05C0028F9D1A869E618C01AA861286A6B
:1003E000184428622846AFF3008004E0D5E90121D3
:1003F00014F8010B9047B442F8D32846AFF30080BD
:1004000070BD00002DE9F0410646002410687529F2
:10041000314616A510D0AFF30080002802DA404222
:1004200013A507E031688A0701D512A502E0490744
:1004300004D511A5012401E0AFF3008000210A22B8
:1004400006F1240709E0B0FBF2FCB0FBF2F302FB7B
:100450001C00303078541846491C0028F3D123463C
:100460002A463046BDE8F04100F0CFB90000000058
:100470002D0000002B0000002000000070B5044695
:100480000D4621461068AFF300802188090502D58A
:100490000F4A7A4402E00E4A7A440E32002104F1F7
:1004A000240305E000F00F060009965D5E54491C28
:1004B0000028F7D120780023000704D5702D02D042
:1004C00009B1022311322046BDE8704000F09DB909
:1004D000BE1E020040EA010310B59B070FD1042A9B
:1004E0000DD310C808C9121F9C42F8D020BA19BAFF
:1004F000884201D9012010BD4FF0FF3010BD1AB164
:10050000D30703D0521C07E0002010BD10F8013BB8
:1005100011F8014B1B1B07D110F8013B11F8014BDF
:100520001B1B01D1921EF1D1184610BD40EA0103F8
:10053000024630B59B0710D14FF0013400E008C2ED
:1005400008C91D1B9D4315EAC41FF8D013F0FF0115
:1005500002F8011B0DD01B0AF8E711F8013B002B34
:1005600002F8013B05D011F8013B002B02F8013BDA
:10057000F3D130BD10B5431C02E010F8011B71B17E
:100580008107FAD14FF0013202C88C1A8C4314EA69
:10059000C211F9D0C01A0A0603D0C01E10BDC01A7D
:1005A00010BD0A0401D0801E10BD0902FCD0401EFF
:1005B00010BD032A40F2308010F0030C00F01580CB
:1005C00011F8013BBCF1020F624498BF11F801CB56
:1005D00000F8013B38BF11F8013BA2F1040298BFBB
:1005E00000F801CB38BF00F8013B11F0030300F025
:1005F0006780083AC0F0088051F8043B083A51F887
:1006000004CBA0E80810F5E7121D5CBF51F8043BCD
:1006100040F8043BAFF30080D20724BF11F8013B40
:1006200011F801CB48BF11F8012B24BF00F8013BA2
:1006300000F801CB48BF00F8012B7047431A28BFD0
:100640009A427FF6B6AF032A1044114440F2268046
:1006500010F0030F1EBF11F8013D521E00F8013DBE
:1006600010F0030F7FF4F6AF11F0030300F0618187
:10067000083AC0F00B8051F8043D083A51F804CD17
:1006800040F8043D40F804CDFFF7F3BF121D5CBFF6
:1006900051F8043D40F8043DAFF30080D20724BF79
:1006A00011F8013D11F801CD48BF11F8012C24BF0C
:1006B00000F8013D00F801CD48BF00F8012C70475B
:1006C00010B5203AC0F00B80B1E81850203AA0E8ED
:1006D0001850B1E81850A0E81850BFF4F5AF5FEA21
:1006E000027C24BFB1E81850A0E8185044BF18C9D4
:1006F00018C0BDE810405FEA827C24BF51F8043B7B
:1007000040F8043B08BF7047D20728BF31F8023BCE
:1007100048BF11F8012B28BF20F8023B48BF00F862
:10072000012B704702F0FF0343EA032242EA024230
:1007300000F02BB94FF0000200B5134694469646E0
:10074000203922BFA0E80C50A0E80C50B1F12001E4
:10075000BFF4F7AF090728BFA0E80C5048BF0CC092
:100760005DF804EB890028BF40F8042B08BF7047F0
:1007700048BF20F8022B11F0804F18BF00F8012B62
:10078000704700004FF0013C50F8042B51F8043B37
:100790009A4215D1A2EB0C03934313EACC130BD16D
:1007A00050F8042B51F8043B9A4209D1A2EB0C03F8
:1007B000934313EACC13E7D04FF00000704700BF1B
:1007C000D01A01BAB1FA81F101F0180122FA01F050
:1007D000CB40C1F12001DBB2C0B2C01A2CFA01F348
:1007E000D11A914311EAC311E6D17047704770479F
:1007F0007047704710B500F0E9F8006810BD10B5FB
:10080000044600F0E3F8046010BD2DE9F0470D4602
:1008100099469246044600F124080168880604D5EA
:10082000E06921F01001216000E00120A84201DD13
:10083000471B00E00027A1697A1902EB0900081A9A
:10084000A0612078C00602D42046AFF300800026C5
:1008500008E0D4E901211AF806009047206A401CFC
:10086000761C20624E45F4DB2078C0060AD520466F
:10087000AFF3008006E0D4E9012130209047206AE0
:10088000401C2062381EA7F10107F4DC07E0D4E920
:10089000012118F805009047206A401C2062281E9C
:1008A000A5F10105F3DC2046AFF3008020780006B7
:1008B00002D50220BDE8F0870120FBE710B54369AF
:1008C00013B1AFF3008001E0FFF772FD012010BD0E
:1008D000127800F124010A7000224A700122EDE72B
:1008E00011684FF0FF32E9E7074B70B50D467B44C6
:1008F00000F075F80446284600F084F810B14FF077
:10090000FF3070BD204670BD6B940100431A28BFB4
:100910009A427FF6D5AE104410F0030F11441EBF6B
:1009200011F8013D521E00F8013D10F0030F7FF455
:10093000F6AF103AC0F00A8010B531E91850103AFD
:1009400020E91850BFF4F9AFBDE81040530724BFA9
:1009500031E9081020E9081044BF51F8043D40F87F
:10096000043D12F0030F08BF7047D20728BF31F8CB
:10097000023D48BF11F8012C28BF20F8023D48BFB6
:1009800000F8012C70474FF000020429C0F01280DB
:1009900010F0030C3FF4D0AECCF1040CBCF1020F0C
:1009A00018BF00F8012BA8BF20F8022BA1EB0C0107
:1009B000FFF7C2BE5FEAC17C24BF00F8012B00F83C
:1009C000012B48BF00F8012B70470000004870471A
:1009D0003CB4042001694A1C02610878704700B5E4
:1009E0008FB0CDE901310021059105497944CDE968
:1009F000031011466846FFF7A7FC0FB000BD0000CA
:100A0000E5FFFFFF007B00F0800070470048704763
:100A10003CB404207546FFF7F9FFAE460500694671
:100A2000534620F00700854618B020B5FFF76CFC50
:100A3000BDE820404FF000064FF000074FF00008DF
:100A40004FF0000B21F00701AC46ACE8C009ACE860
:100A5000C009ACE8C009ACE8C0098D46704710B5C4
:100A60000446AFF300802046BDE81040FFF738BCD5
:100A700008F020BA2DE9F0410D46014600204E193C
:100A8000044608E00702301B401E80B200F007F861
:100A9000641C3844E4B2AC42F4D3BDE8F08110B534
:100AA000044608F0C1FA200AA02101EB4000C0B2C0
:100AB00008F084FA08F008FBE0B208F07FFA08F0CA
:100AC00003FB08F0B1FAA12008F078FA08F0FCFA6C
:100AD000002008F03FFA044608F0CEFA204610BD88
:100AE0002DE9F041002416460D46074609E0E000D6
:100AF00025FA00F0C1B2381980B200F006F8641C83
:100B0000E4B2B442F3D3BDE8F08170B50D460446BB
:100B100008F08AFA200AA02101EB4000C0B208F0D8
:100B20004DFA08F0D1FAE0B208F048FA08F0CCFA31
:100B3000284608F043FA08F0C7FA08F09DFABDE825
:100B400070400A2019F0E2B8002800DC40427047EB
:100B500038B545680446014628460FF0EDFE0028EA
:100B60002BD02068304A11280DD006DC0B2825D068
:100B70000E2833D00F2852D112E0282849D0B0F5E2
:100B8000107F4CD108E09268002A16D021462846F2
:100B900001B0BDE830401047214628465268F7E7CB
:100BA000284603F067F80090406E0468684603F03A
:100BB000CBF8002C01D02846A04738BD284603F0CA
:100BC00059F80090683002F0ABFF009803216C30B8
:100BD00002F0B4FF684603F0B7F820E0E168486827
:100BE00009680D2902D0202913D105E0002810DD65
:100BF000284616F0F8F906E0002804DD2846BDE88E
:100C0000384016F0F0B92846BDE83840022116F009
:100C100000BAE06818B90021284600F097F920468C
:100C2000BDE8384010F0DCBA28010220F0B50446D7
:100C300085B08069B4F90850668A0027CDE902655D
:100C4000CDE900170490B4F90C00B4F91060C11894
:100C5000B4F90A00B4F90E50104433462A4600F0A5
:100C600007F80546616800F07AF905B02846F0BD3E
:100C70002DE9F04F85B01F46DDE911B4DDE90E56D0
:100C800090468946824604F05FF816484C34CDE918
:100C90000204CDE900563B4642464946504610F014
:100CA000E7F9040018D002F0E5FF1022594604903D
:100CB00010F024F8049830220B493430FFF700FD7F
:100CC000094D04990C3D2868486604A803F03CF8D7
:100CD000286841682046884705F0FCFA05B02046A0
:100CE000BDE8F08F510B000834010220F0B5044636
:100CF00080688B4989B051F82050606800287DD009
:100D0000052804D006287AD0122879D1AEE0E86907
:100D100000284FD095E80E008DE80F0004F1100177
:100D20000FC905F023FF002655F8260004F0FFFD4B
:100D3000A169E8690A1A216901446069304403F035
:100D400055FDA169E8690A1A21690144E069801B1F
:100D500003F04CFDE169E8690A1A61690144206900
:100D6000304403F0F9FDE169E8690A1A6169014458
:100D7000A069801B03F0F0FD761C022ED4DBA8686E
:100D800004F0D5FDE069E9696669431A20694218F3
:100D90003144801C521E03F029FEE169E869A26912
:100DA0000B1A61690144101A401C921E03F01EFECA
:100DB000EE6913E05FF0000655F8260004F0B7FD79
:100DC000E069831BA069821B606981192069304436
:100DD00003F082FD761C022EEEDB0226D5E903012C
:100DE000CDE900016169E06908444310A069891CEC
:100DF000821B2069304403F0BDFC02E089E012E070
:100E00008AE0D5E90501CDE90001E36960690121C6
:100E1000184401EB6001A0699B1E821B20693044CD
:100E200003F0A8FC78E0206802F024FF049020681A
:100E300011F08CFD40B1A06808B1002008E00498D2
:100E4000006F28B1012003E00498406F00B1022038
:100E5000049901EB8000C56E04A802F075FF002321
:100E60001A462846216803F0F1F955E0206802F09F
:100E700001FF0490866EEEB3B0F95C70A168D1B347
:100E8000032942D05FF0000100EB8101406D0C6C42
:100E900004F06AFD204604F04AFD05A803F068FE50
:100EA000BDF81410A88B0144ADF81410BDF818104B
:100EB000081AADF81800BDF81600801CADF8160031
:100EC000BDF81A00801EADF81A000498B0F9602031
:100ED000B0F95E1005A804F021FC04A802F034FF6C
:100EE000022004F0ADFD304602F0C4FE3A4605A9EA
:100EF000079001E00BE006E003F0ACFA0DF11C00F6
:100F000002F022FF08E00121BEE70221BCE704A8AD
:100F1000F6E7206811F0DAF909B00020F0BD000012
:100F2000181A020838B50D4604000ED003F00CFF65
:100F3000204602F09FFE00904565684602F004FFDF
:100F4000204610F095FE05F0C5F938BD4FF48072CB
:100F50000029114601D00FF083BD0FF0D4BC2DE95C
:100F6000FF410E4605004FF0010421D003F0ECFED6
:100F7000284602F07FFE0190876E01A8009702F0DC
:100F8000E3FE3146684606F0CBF878B100980024BD
:100F9000B84208D0284602F06DFE019000998166A3
:100FA00001A802F0D1FE284610F062FE05F092F989
:100FB00004B02046BDE8F081FEE7000070B5144D96
:100FC00000224021284606F0D0FA124C206820F07A
:100FD000C0002060206840F040002060022018F02F
:100FE000A3FE00222046082106F0BFFA022018F0D6
:100FF0009BFE01222846402106F0B7FA022018F095
:1010000093FE2846BDE870400022402106F0ADBAAC
:10101000001C024000200240124800B587B0016861
:1010200041F080010160016801F0800105910168D3
:1010300041F4807101600068694600F48070059099
:101040004020009001200190029003200390064868
:1010500006F098F9082000900448694606F092F9D5
:1010600007B000BD30380240001C024000200240A2
:1010700070B5144D00224021284606F076FA124C35
:10108000206820F0C0002060206840F04000206010
:10109000022018F049FE01222046082106F065FAD8
:1010A000022018F041FE01222846402106F05DFA98
:1010B000022018F039FE2846BDE870400022402189
:1010C00006F053BA001C0240002002402DE9F04116
:1010D000184E07460024306820F0C00030603068A9
:1010E00030601E2018F020FEB046134E002500226E
:1010F0003046402106F039FA022018F015FE012290
:101100003046402106F031FA60060821040E4046C0
:1011100006F026FA08B1641CE4B26D1CEDB2082D8D
:10112000E5D327B1FFF74AFF2046BDE8F081FFF77E
:101130009FFFF9E700200240001C02402DE9F0412A
:101140001A4F0546386820F0C0003860386840F013
:1011500040003860164E00224021304606F005FA65
:10116000022018F0E1FD0024280601D5012200E04C
:1011700000223846082106F0F8F968060122050E1B
:101180003046402106F0F1F9022018F0CDFD002292
:101190003046402106F0E9F9022018F0C5FD641C34
:1011A000E4B2082CE0D3BDE8F0810000002002404A
:1011B000001C024070B5134C206820F0C000206075
:1011C000206840F04000206001222046082106F0FF
:1011D000CCF90D4D01224021284606F0C6F91E200B
:1011E00018F0A2FD00222046082106F0BEF90220D8
:1011F00018F09AFD2846BDE870400022402106F014
:10120000B4B9000000200240001C024010B5104C90
:10121000206820F0C0002060206840F0400020607E
:101220000C480122402106F0A0F91E2018F07CFD98
:1012300000222046082106F098F9022018F074FDDB
:1012400001222046BDE81040082106F08EB90000BA
:1012500000200240001C024070B5164D00242846B4
:10126000296821F0C001296029682960012208212C
:1012700006F07BF9104E01224021304606F075F948
:1012800007E0641CE4B2FA2C03D9FFF7BFFF01208A
:1012900070BD022018F048FD0821284606F060F9CC
:1012A0000028EED100223046402106F05EF90020F1
:1012B00070BD000000200240001C0240F0B5BFF3EA
:1012C0004F8FBFF36F8F184900200860174C2168BB
:1012D00041F400312160BFF34F8FBFF36F8F13498B
:1012E00070310860BFF34F8F081F006843F6FF7529
:1012F0000D4E1036C0F34E31C0F3C90305EA41125A
:10130000184642EA80773760401EFAD2491EF5D26D
:10131000BFF34F8F206840F480302060BFF34F8FC1
:10132000BFF36F8FF0BD000050EF00E014ED00E060
:101330001CB510F0C7F80346044A00200090019045
:101340000421034802F06AFE1CBD0000E99901086F
:10135000CCE901081CB510F0B5F80346044A00209A
:10136000009001900921034802F058FE1CBD0000C6
:1013700015990108D0E801081CB510F0A3F8034640
:10138000044A0020009001901021034802F046FE1C
:101390001CBD0000B99A01083CEA010870472DE91C
:1013A000FC470E465FEA00097FD003F0CDFC4846BB
:1013B00002F060FC009090F85470D0F85880456BB3
:1013C000C46C684602F0C0FCB8F1000F04D031468E
:1013D00048464246904761E0122E18D006DC082E9F
:1013E00043D0102E3CD0112E06D112E0132E21D066
:1013F0001D2E43D01E2E3DD0202E4FDB17B1484668
:1014000012F0F9FAB1B2484615F04EFC60B3611C17
:1014100027E04DB3284602F02DFC054621460190F9
:1014200004F046FE4419204604F0F0FD0146234630
:10143000012210E0C5B1284602F01CFC05462146F9
:10144000019004F035FE4419204604F0DFFD01460A
:1014500023464FF0FF32484612F030F801A81BE057
:10146000611E484600F0FEF918E0BCB1611E484616
:1014700000F0F8F9484612F0BEFA0FE0484602F0D4
:10148000F9FB0090012F12D0012180F85410214661
:10149000484600F0E7F9684602F056FC484610F06E
:1014A000E7FB00E001E004F015FFBDE8FC87002148
:1014B00080F85410EFE7FEB544680546204611F069
:1014C00045FA0646294620460FF036FA002837D05E
:1014D00028680F2830D004DC0B2832D00E2853D1D6
:1014E0003AE0A0F58070133804D0A0F580702D3854
:1014F0004AD110E0204610F08DFD2046002116F064
:10150000A6F8204602F0B6FB0190C06F002110F053
:1015100048FD01A81DE0E86860B1017A29B10168C1
:10152000204600F0AFF8012100E00221204610F033
:1015300080FC29E00321F9E70121204616F087F815
:10154000FEBD204602F096FB0090343002F0E8FA2F
:10155000684602F0F9FB17E0B6B1E8684168002977
:1015600012DD01681B290FD006DC09290CD00A29DD
:101570000AD00D2904D107E0212905D0222903D062
:101580002046FFF70CFFFEBD28460FF029FEFEBDEA
:10159000F0B587B004460DF1080CD4E90567B0F941
:1015A0000850408A8CE8E1000020CDE90010B4F931
:1015B0000C00B4F91060C118B4F90A00B4F90E5067
:1015C000104433462A4600F009F8050002D0618A2B
:1015D00000F033F907B02846F0BD00002DE9F04FC8
:1015E00085B01F46DDE91254DDE90E6A9046894652
:1015F000834603F0A9FB0DF1040C4AF480501F4907
:10160000583400968CE813003B46424649465846FB
:101610000FF02EFD04002AD002F02CFB10220490C3
:1016200011990FF06BFB04981C2215496030FFF7ED
:1016300047F8049A012082F85500681C00D0012068
:1016400082F88000002D00DC08252DB215870020CF
:101650005087506304A86D1C02F076FB2946204693
:1016600015F005FA18B920460FF0F2FD002404F039
:1016700031FE05B02046BDE8F08F0000B714000829
:10168000640102202DE9F04186B00C46060055D0D9
:1016900003F05AFB304602F0EDFA0090406B98B32D
:1016A00002F0E8FA03900098806E04F05DF980463D
:1016B000304610F00FF80746039803F0A3FA0546EA
:1016C000009890F8601001F00301012916D002295A
:1016D0000DD0416EC06A00680844241A641E039845
:1016E00005F0C8FB0146002C0FDA002115E0781B3D
:1016F000401C00EBD070A4EB6004F0E7406E791B57
:10170000081A241A641CEAE713E0AC4205DC02461E
:101710002146039805F058FB0146304600F0A2F838
:1017200003A802F011FB404604F01EF9304610F009
:101730009FFA684602F008FB04F0CCFD06B0BDE855
:10174000F08138B50D4604000ED003F0FDFA2046B6
:1017500002F090FA00908566204610F089FA6846FB
:1017600002F0F2FA04F0B6FD38BD2DE9FC478846D8
:101770005FEA00094FF0000652D003F0E5FA484650
:1017800002F078FA0090B0F93850446B684602F0E5
:10179000DBFA0027B8F1000F44D04CB1204602F02C
:1017A00069FA0190FEF7E6FE461C01A802F0CCFAA9
:1017B000404605F05FFB0446A84200DD2C4621466A
:1017C000404604F075FC451CA91B484615F017FB64
:1017D00008B3484602F04EFA0090406B02F04AFA15
:1017E0002A4641460190FEF7E4FE0198284400F89D
:1017F000017C0098C464B0F938108C4205D190F88F
:101800005410012901D1641EC46401A802F09CFA9D
:10181000684602F099FA484610F02AFA04F05AFD98
:10182000BDE8FC87484602F025FA0090343002F00B
:1018300077F900984787C764EAE738B50C46050092
:101840000FD003F081FA284602F014FA009018B184
:101850000466284610F00CFA684602F075FA04F0A7
:1018600039FD38BD1CB50C4602F004FA0090406BFF
:10187000F0B102F0FFF9019005F0FCFA009991F83F
:10188000542002B10122002C00DA0024844200DD41
:101890000446B1F93800801AA04200DA0446C86C48
:1018A000A04200D0CC640020086501A802F04CFAE8
:1018B000684602F049FA1CBD70B5B3F5804F05D0FB
:1018C0006FF0704140F82210002070BD50F82230B7
:1018D000084C2340D1E900458E8944EA05148D68FF
:1018E00089692D0245EA06452C430C431C4340F808
:1018F0002240E9E70000F0CFF0B50C6850F8245022
:101900001A4A1540D1E90123D1E903671A433E433E
:1019100032434E6932438E693243CE6932430E6A96
:1019200032434E6A32438E6A3243CE6A32430E6B82
:1019300032438E6B32434E6B32432A43082B01D124
:1019400042F0400240F824200A6BB2F5801F05D116
:101950000A684AB1026842F4801202600A681AB149
:101960000268496B0A4302600020F0BD8004C0FF9A
:1019700000EB8202F0B553688E8903F04044D1E950
:10198000003543EA05138D682D0245EA06450E8AA7
:101990002B430D4D05EB065633430E7D6F0107EBD0
:1019A000066633438E693343234353600268D20291
:1019B00007D54268098A22F4700205EB01511143F0
:1019C00041600020F0BD00000000F0FF30B5D1E91B
:1019D00001230D681A43D1E9033423431A434B69A9
:1019E0001A438B691A43D1E90734496A012D056806
:1019F00007D01A4322430A436FF30E052A430260BD
:101A00000AE025F4F845234329430B43416803606A
:101A10006FF30E010A434260002030BD426942EA82
:101A20004101416100207047F8B514460546D1E9EF
:101A300000026FF01F0310438A68C96803EB42126B
:101A400042EA412108430090286105F093FD0646D3
:101A500009E0601C07D024B105F08CFD801BA0427A
:101A600001D90320F8BDA8698006F2D40020F8BD92
:101A7000F0B5D1E900346FF00F055B1E2E0105EBC8
:101A8000041423438C682F034FEA054C0D8A06EBA0
:101A900004248E8A2343CC68097E4FF07F4E012AAE
:101AA00007EB05450CEB06560EEB01610CD0826886
:101AB0003F1107EB043423432B4333430B4302F022
:101AC0007042134383600FE08768084A174022037F
:101AD000C468A2F5805232433A4382602B430B43E1
:101AE00004F070442343C3600020F0BDFF0F0FFFDC
:101AF0002DE9F047044640688EB00027804602F08A
:101B0000B9F80090B0F87CA0D0F86890D0F8806068
:101B1000D0F88850C06D00B10768684602F014F92B
:101B200005E0696820468847002843D12D68002DCC
:101B3000F7D12068172853D00CDC0F283DD004DCE7
:101B40000B2877D00D2825D18BE0112810D0142830
:101B500020D13BE0262846D004DC1E2851D0202886
:101B600018D18AE02A2816D0B0F5107F12D128E0CB
:101B70004046E56802F07EF80290697A39B9297A20
:101B8000012904D130F87C1F41F48071018002A842
:101B900002F0DAF875E0404602F06CF80090E16877
:101BA00011B1C0F8841002E0D0F88400E06068460B
:101BB00002F0CAF80EB0BDE8F087D7B34046B84788
:101BC0005FE02146404615F077FBF3E705A9404664
:101BD00000F00BFBE0680699016007994160E9E7B6
:101BE000C4F80C90E6E7E0680228E3D1CDF8308035
:101BF000E0680D9027200A900AA9A06811F0B6F8B5
:101C0000D8E7E068012804D00021404600F0BBFA84
:101C1000D0E7304610F0A7F868B1304610F0D0FA9F
:101C200030460FF051FF98B1012130460EF018FFF9
:101C30000EE026E02FE0484610F016FB0646404630
:101C400002F018F80090C0F88060684602F07CF856
:101C50000121404600F097FA002EABD10020E06051
:101C6000A8E75FEA0A700CD4E068C06848B1007A5F
:101C700038B1404610F0A4FA03E02146404615F082
:101C8000E5F9214640460EF057FE002892D0204646
:101C90000FF0A6FA8EE7404601F0ECFF009070309E
:101CA00001F03EFF684673E7F0B587B0B0F9084031
:101CB0000DF10C0C0C9E876945688CE8F000448A95
:101CC0000025CDE900150294B0F90C10B0F91050C0
:101CD000B0F90E40B0F90A00194410442B462246D0
:101CE00000F002F807B0F0BD2DE9F04F8BB0984638
:101CF000DDE9155691468A468346149F1A9C03F0E7
:101D000023F83348603445F48055CDE90204CDE929
:101D1000007543464A46514658460FF0A9F904005B
:101D20004FD001F0A7FF3022049017990EF0E6FF84
:101D30000498282227493430FEF7C2FC04981999E8
:101D4000244F4166A0F87C600026C0F88060C6661B
:101D5000083FC0F888607968C16504A801F0F4FF05
:101D600005A9204600F041FA1B4841F28271039612
:101D70000094CDE90110BDF91E00BDF91A10BDF99E
:101D80001C20431ABDF918005B1C121A521C0FF0DC
:101D90006FF906467868416820468847204601F07A
:101DA00069FF0490866604A801F0CEFF42F20400A9
:101DB000054202D120460FF0E6FA2046189900F0BD
:101DC000F1F904F087FA0BB02046BDE8F08F00006F
:101DD000F11A000870030220A32300082DE9F04146
:101DE000044694B0006800F0B7F908B1D94D01E09D
:101DF000D84D2C35606815281ED00CDC0B281FD060
:101E000004DC00287ED005287DD12FE10E287BD070
:101E10001228F9D141E1162806D0172808D0182831
:101E200008D01C28F0D109E0E86914B0BDE8F081C1
:101E3000286AFAE7686AF8E7A86AF6E76869F4E7E3
:101E400020680B901C200C90206801F013FF039079
:101E5000016D0BA88847064603A801F075FF022E06
:101E60000FDB95E807008DE80700D4E9040233464C
:101E7000A16904F041FE20698719A069A0EB06085A
:101E80002CE0286803F053FD2169E8690A18521E06
:101E9000606902F0ABFCA269E869111A491C60692B
:101EA00002F0A4FCD4E904077F1C394602F0EEFCE2
:101EB0003946A06902F0EAFC686803F038FD206941
:101EC0003946401C02F0E2FCA0693946401E02F08F
:101ED000DDFCA0692769A0F10208BF1C286803F097
:101EE00026FD42463946606902F080FC686803F0CE
:101EF0001EFD606942463946401C02F077FC686A64
:101F0000022802E015E1B0E000E10BDDA86803F073
:101F10000EFD61696A6A881C8B1801464246384684
:101F20005B1E27E0296AB14226DD6069022E074662
:101F300000F1020801DB374401E007F102072069E4
:101F400001DB304401E000F1020022693B460A4413
:101F50004146A2F1010202F049FD022E02DBA06916
:101F6000821B01E0A269921EA069E9693B46401A02
:101F70004146401C02F03AFD022E02DB6069064435
:101F800001E06669B61CE76928687F1E03F0CFFC94
:101F90003A463146206902F0DFFC3A463146A069F4
:101FA00002F0DAFCE7696868BF1E03F0C0FC206934
:101FB0003A463146401C02F0CFFCA0693A46314611
:101FC000401E02F0C9FCE869022802DC286A0228E7
:101FD00023DDA86A022802DDE1690F1A01E0E76942
:101FE000BF1EA86803F0A3FCE969022909DD206986
:101FF0003B46421800F1020C31466046521E02F088
:10200000F5FC286A022808DDA269E8693B46101A37
:102010003146401C921E02F0E9FC286803F087FC60
:10202000D4E90620216902F0E1FB686803F07FFC37
:10203000D4E906202169401E491C521E02F0D6FB3D
:10204000A86A022811DDA1692669E469A1F10208E4
:10205000271AA41EB61C7F1CA86803F068FC234640
:1020600042463946304602F0C1FC71E0208A00B297
:10207000ADF81400A18A09B2ADF81610228B12B285
:10208000ADF81820A38B1BB2ADF81A302C69ED689F
:10209000CDE9005402F06EFB5AE0208A298B0844F7
:1020A000ADF81400A08AADF81600208B298B401AD9
:1020B000ADF81800A08BADF81A00206801F0DAFD29
:1020C0000390006FF0B1022003F0BAFC039890F87F
:1020D0007C10C1F3C00100EB8100006C03F027FC11
:1020E0000398406B03F040FC0398006F01F0C2FDC1
:1020F00003990990B1F95A2005A902F0ABF909A892
:1021000001F022FE03A801F01FFE21E0208AADF8B5
:102110001400A08AADF81600208BADF81800A08B33
:10212000ADF81A00A86803F002FC05A802F08AFCCA
:102130000EE0206801F09EFD039030F85A1F41F038
:102140000C01018003A801F0FFFD206810F0BEF82B
:1021500000206AE6C804022038B505004FF00004EC
:102160000FD002F0F1FD284601F084FD009090F8B8
:102170007C00000700D50124684601F0E5FD04F06D
:10218000A9F8204638BD70B50D46040009D002F00C
:10219000DBFD2946204616F045F9BDE8704004F005
:1021A00099B870BD7CB50D4604001DD002F0CCFD81
:1021B000204601F05FFD0090006F0190684601F03D
:1021C000C3FD294601A804F0ABFF58B1204601F039
:1021D00051FD009001990167684601F0B5FD204668
:1021E0000FF046FD04F076F87CBD2DE9F34F85B085
:1021F00000270C46B846059801F03CFD0090C06DE4
:102200000121856805982A68904782462A6803213B
:102210000598904704902A680221059890470390FA
:102220002A680021059890470646009810F00CFA9D
:102230008346009810F00FFA8146009890F832100B
:10224000890601D5B0F9588000F036F805460098A7
:10225000C06E10B10FF055FA074625806780A4F8CC
:1022600004A0049AABEB020006EB0802401E2A44CD
:1022700020813A44E280039BA9EB0302521E628153
:10228000A4F80CA020827019E681401E6082684686
:1022900001F05AFDB4F90C000190B4F9100002905D
:1022A00002AA01A9059800F039F80198A0810298C6
:1022B000208207B0BDE8F08F10B50146002091F8EC
:1022C0003220920607D5B1F95400002803D1486B9B
:1022D00002F0C2FC801C10BD70B58AB00C460546E9
:1022E00001F0C8FC0990C06D866809A801F02CFDBA
:1022F000009534B1012C06D0022C0BD0032C04D154
:102300000AE0182000E016200190716868468847AE
:102310000AB070BD1520F7E71720F5E72DE9FC415D
:1023200017468846044601F0A5FC0090C16D05687B
:1023300068468E6801F008FD32680021204690470B
:10234000064620460FF0E5F827E000BF01F092FCBA
:102350000190B0F900102AB2B0F90430891A9A1A23
:10236000B0F90230A3EB2543B34210D190F8280016
:10237000000605D53868884209DB491E396006E049
:10238000D8F80000904202DC521CC8F8002001A8D6
:1023900001F0DAFC20460FF0FFF80400D6D1BDE8CA
:1023A000FC812DE9F0430446406889B005460FF0F2
:1023B00000F9814601F05EFC0290D0F84880D0F828
:1023C0008070466E02A801F0BFFC2068172853D029
:1023D00008DC0E283AD00F2811D014284CD015282C
:1023E0003DD149E01E281ED01F282AD0222840D0E7
:1023F000312834D10020E06009B0BDE8F0836FF0EF
:1024000070414046884503D007F016FF01F0BAFD41
:10241000002EF1D0D4E902122068CDE90405CDE9FF
:10242000061204A81FE0E0680028E5D02FB1AF42F3
:1024300003D038460FF0C4FEDEE728460FF014FF45
:10244000DAE7214648460EF077FAD5E7E0684168BA
:10245000002904DD00680928EFD00A2805D05EB104
:102460002046C4F80490B047C6E728460FF00BFF9B
:10247000C2E7C4F80C80BFE720460EF0B1FEBBE710
:1024800070B54C4888B0016841F080010160016876
:1024900001F080010791016841F4807101600068DA
:1024A00002A9002400F4807007908020012681E8B2
:1024B000510003200590404804F064FF3502CDE947
:1024C00002563E4E02A9304604F05CFFFEF7A4FD22
:1024D00000222946304605F048F8142017F016FC73
:1024E00001222946304605F040F8322017F00EFC54
:1024F00002226946A1208DF8004000F06FF89DF897
:102500000010302903D19DF80100032831D09DF837
:10251000010001282DD002282BD00422694648F260
:10252000401000F05FFD26A069468DF80440FDF7DD
:10253000FFFE264848F2400500990122C0F802102B
:10254000022069468DF80000284600F0A1FE012215
:102550006946E81D00F046FD0A2017F0D7FB01226E
:10256000694628468DF8004000F092FE08B0002031
:1025700070BDC0B200EB012115A0FDF7D9FE01220C
:102580006946002000F078F901226946A42000F095
:1025900073F91620694601228DF80000802000F0B2
:1025A0006BF90C20694601228DF80000882000F0AC
:1025B00063F9DBE730380240001C02400020024093
:1025C0004354502049443A25730D0A005C00022010
:1025D0004354502049443A25780D0A002DE9F04132
:1025E00015460F460446FEF7E5FD7020FEF7A6FDF2
:1025F000FEF732FEE0B2FEF7A1FDFEF72DFEFEF77C
:10260000D9FD7120FEF79AFDFEF726FE00246E1E0E
:1026100009E0B44201D0012000E00020FEF756FDA1
:102620003855641CE4B2AC42F3D3BDE8F041FEF788
:10263000EDBD00002DE9F1478A4D83B000274FF032
:102640000A0A894CB8468DF804706878401CC0B2FC
:102650006870B0FBFAF20AFB120109B10A2870D2C5
:10266000804882A1801CFEF78DF803A94FF001027B
:1026700008B30220FFF7B2FF9DF80C00010760D0FD
:1026800000F00F01287881425BD8FF2294F8209057
:1026900004EB40008A40D14341F0C00184F820108F
:1026A000A1894181E18A8182042017F02FFB704EBD
:1026B0008DF8047085E048F24E16304600F092FC2A
:1026C0009DF80C000106D7D5297800F00F0088424C
:1026D000D2D80122304601A98DF8047000F0D8FD4F
:1026E000CAE7012294F820108240114264D05D486C
:1026F0005EA1801CFEF746F820B35E4804229DF8D8
:10270000041030F811006946FFF768FF94F83000B4
:102710009DF80010C0079DF8010001F00F0139D0AD
:1027200000EB01219DF8040004EB4000C1829DF8FC
:1027300002209DF8031002F00F0201EB02218181BB
:102740003AE058E04B4804229DF804100A3030F873
:102750001100694600F046FC94F830009DF8011025
:10276000C0079DF8000000EB01219DF8040004EB78
:10277000400005D081819DF802109DF8032018E0EB
:10278000C1829DF803209DF8021001EB02213288DE
:10279000511AD4E700EB01203188091A9DF8040092
:1027A00004EB400081819DF802209DF8031002F0A7
:1027B0000F0201EB0221C1829DF80400401C8DF83C
:1027C00004009DF80400297888428AD3A0894FF03C
:1027D00001083188884203D8E08A7188884209D983
:1027E0009DF80C0000F00F00012812D9E089A081AB
:1027F000208BE0826F701DA11A48801CFDF7C2FF7C
:1028000000289DF80C004FF6FF710FD0C00624D0B1
:102810001AE0287804EB40004189A181808AE08297
:1028200080208DF80C0084F82090E4E700F08F0001
:10283000802812D008E020F0800003E0A18100F0A1
:10284000E000E18284F820006878F02801D985F85A
:1028500001A004B04046BDE8F08794F820000206CD
:10286000ECD5E8E75C000220280002203931310075
:1028700080080220C8E601082DE9F041002715462E
:102880000E460446FEF796FC7020FEF757FCFEF756
:10289000E3FCE0B2FEF752FCFEF7DEFC002408E0A9
:1028A000305DFEF74BFCFEF7D7FC070003D1641C3C
:1028B000E4B2AC42F4D3FEF7A9FC3846BDE8F0819F
:1028C0001CB50024019401AC009400F0E7F81CBD95
:1028D0002DE9FF4F83B0814606988A46A0EB0A088F
:1028E000109E00200090A2EB09043568934654EA3C
:1028F000080018D02046FEF727F907464046FEF7A5
:1029000023F987420BDA2046444680464846D146A2
:1029100082465846DDF818B0069001200090002C41
:1029200007DD204606E007B04846BDE8F04F00F05E
:102930003BB96042A0420AD04846D9466442C8F139
:10294000000883464FF0FF37DDF818A000E00127AC
:102950005148B8F1000F11D004EBD4714FEA610B6C
:1029600001DACBF1000B4C480068807E88B3002F61
:1029700002DA30682044306000257BE000990029AD
:10298000016821D0897E11B10027804615E007B08B
:102990005A4649465046BDE8F04F06F0C5BE2846A7
:1029A0006D1C15F01BFE38B9D8F8000009EB0701C3
:1029B000406E4268504690477F1CA742EFDD6D1E77
:1029C000356007B0BDE8F08F8A7E1AB100278046D7
:1029D00017E019E0486E5A465146036807B048466A
:1029E000BDE8F04F184728466D1C15F0F7FD38B9C3
:1029F000D8F8001009EB0700496E4A685146904725
:102A00007F1CA742EFDDDAE700250FE008FB05B0E9
:102A100090FBF4F101EB0A00009951B11E4A09EB59
:102A200005011268526E526890476D1CA542EDDD9B
:102A3000C7E7194909EB05030968496E4A68014669
:102A40001846F1E708FB05B090FBF4F101EB0A0032
:102A5000019030683844306015F0C0FD48B90098E6
:102A600090B10D4809EB05010068406E426801987D
:102A700090476D1CA542E5DD3068002F01DA204447
:102A80003060C01B30609CE7034909EB0500096812
:102A9000496E4A680199EBE7AC0002202DE9FF4737
:102AA0000F4640491646804609680C981D460A7E26
:102AB000012A1CD0A8EB0600791B50EA01031CD0A8
:102AC000A2F1010916F0BCFE00F58060824604F018
:102AD00016FC00FB09F4504604F016FC00FB09F15B
:102AE000002C0CDAC4F50070801240420AE000901D
:102AF000324639464046FFF7EBFEBDE8FF8704F556
:102B00000074A012002904DAC1F5007189124C4248
:102B100002E001F500718C12002804DD411C01EB7C
:102B2000D171491003E000EBD0714910401E00EB59
:102B3000D0704210002C04DD601C00EBD0704010FF
:102B400003E004EBD4704010641E04EBD47308EB74
:102B50000104ADF800403C18ADF80240A8EB0204B7
:102B60005B10B21AADF80440ADF808203144FC1AED
:102B7000EA1AADF80C102844ADF80A20ADF80E00A2
:102B80000023ADF806401A460421684600F07AF8A2
:102B90003946404612F0D4FC2946304612F0D0FCAB
:102BA000ABE70000AC000220064A13681A7E012A37
:102BB00005D0521E02EBD272521000F005B85A6EC8
:102BC00052681047AC0002202DE9F05F06468846A7
:102BD00040F2C32002FB00F14FF47A7091FBF0F752
:102BE00002FB02F102EBD27001EB600B1446B1184C
:102BF000234A301B7F1C1268526E13680A464146F6
:102C00009847012538E000BF05FB05F004FB0401EF
:102C100059451CDDBC4219DD194B06EB050AA6EB34
:102C200005091B68AAF1010208EB04015B6E09F1BA
:102C300001001B689847124BAAF10102A8EB04019E
:102C40001B6809F101005B6E1B689847641E0C4B02
:102C50003219301B1B68924608EB05015B6E8146FA
:102C60001B689847064B5246A8EB05011B6848466F
:102C70005B6E1B6898476D1CBD42C5DDBDE8F09FCB
:102C8000AC0002202DE9FF4F43F6FF740F46664269
:102C900083B09B46814600210BE000BF09EB810019
:102CA000B0F90200A04200DA0446B04200DD064658
:102CB000491CB942F2DB67480068406900280DD022
:102CC000B0F906101A46A1EB0B01B14200DA0E462C
:102CD000B0F90200801AA04200DD0446B4E0DFF83B
:102CE00078A100200546CAF8000088E0781E8542D9
:102CF00001DA6B1C00E0002309EB850C09EB830271
:102D0000BCF90200B2F90210A04244D1A14215D18F
:102D100039F92330059A39F9251003EB020C4D4A95
:102D200005981268084404EB0B01526E6045136865
:102D300001DA62462AE00246604627E02846A446B9
:102D40004FF000087A1E0BE008B1401E00E0781E2C
:102D500009EB8003B3F90230634504D108F101089F
:102D60009045F1DB2346A34248D01A1B39F92500D0
:102D7000A1EB040C059B92EA0C0F09D4354A1844C8
:102D800004EB0B011268526E13680246984735E057
:102D900010F0DAF832E0A14230D001DBA04203DDCE
:102DA000A0422BDBA14229DCE04688420ADC034634
:102DB000A04223DC0846A14220DBB8F900C0B2F9EA
:102DC000001008E00B46A14218DCA04216DBB2F965
:102DD00000C0B8F90010E21AA1EB0C015143002920
:102DE000A0EB030202DD01EB620102E0A1EB620154
:102DF000491CC01A91FBF0F06044C9E76D1CBD424C
:102E0000FFF674AF0598009004EB0B0001900020D2
:102E10008046054613E01149B8F1000F31F915A0BD
:102E200009D0009901EB0A0208440A490968496E71
:102E30000B680199984788F0010850466D1C0649B7
:102E400009688D42E7DB641CB4427FF748AF07B0E6
:102E5000BDE8F08FAC000220FC05022024B4042061
:102E600010B5002002F058FD6FF07F4002F05FFDCA
:102E7000012002F0C7FD002002F0D2FD002002F088
:102E8000DFFD002002F064FD0448006802F06CFDE4
:102E9000BDE81040002002F087BD0000A80002201D
:102EA0002DE9F043414889B0016841F0800101609B
:102EB000016801F080010791016841F480710160AF
:102EC000006801AADFF8E890802500F48070079080
:102ED00000240095012669460327484682E8D00071
:102EE00004F050FA4FF480786946CDE90086314EFF
:102EF000304604F047FAFEF78FF80022414630468C
:102F000004F033FB0A2016F001FF0122414630464F
:102F100004F02BFB0A2016F0F9FECDE90054CDE9B0
:102F200002476946484604F02DFA642016F0EEFE8A
:102F3000042248F2401005A900F054F805A98DF8C4
:102F400018401DA0FDF7F4F91EA105A8FDF71AFC15
:102F500040BB022048F2400501228DF8140005A96B
:102F6000284600F095F90122E81D05A900F03AF87D
:102F70009DF8141060290BD214A0FDF7D9F9184858
:102F80008088A0F5AA41103902D1012000F05AF939
:102F90000A2016F0BBFE0122284605A98DF8144030
:102FA00000F076F909B00020BDE8F0833038024027
:102FB000001C0240002002404354502049443A255E
:102FC000730D0A0039313437000000004465666132
:102FD000756C74205665723A25640D0A0000000075
:102FE000800802202DE9F04115460F460446FEF701
:102FF000E1F82820FEF7A2F8FEF72EF9200AFEF7E6
:103000009DF8FEF729F9E0B2FEF798F8FEF724F9EB
:10301000FEF7D0F82920FEF791F8FEF71DF90024FD
:103020006E1E09E0B44201D0012000E00020FEF74E
:103030004DF83855641CE4B2AC42F3D3BDE8F0411E
:10304000FEF7E4B82DE9F14F7A4E00244FF00A0B59
:10305000794D82B0A1463078401CC0B23070B0FBD0
:10306000FBF20BFB120109B10A2878D248F24E1785
:103070000122384602A9FFF7B5FF9DF808004FF07E
:10308000000801060AD500F00F00062806D201222A
:10309000384601A98DF8048000F0FAF89DF8080080
:1030A00001075CD000F00F01062958D2FF20634FC2
:1030B0004FF0010988408DF80400C04395F820A026
:1030C00040F0C00085F82000A889A882E88AE8833B
:1030D00095F8201009FA04F0014268D058480422FB
:1030E000694630F81400FFF77DFFB888A0F5AA41C3
:1030F000103908D0A0F5864142391AD0A0F5864192
:1031000084392DD053E095F83000C0072CD09DF8BD
:1031100001109DF8000000EB012105EB4400C18285
:103120009DF803209DF8021001EB0221C1F54871C2
:103130003CE095F83000C00716D19DF801109DF8CD
:10314000000000EB012105EB4400C1829DF8032043
:103150009DF8021001EB0221C1F5887126E041E0E3
:1031600095F83000C00710D09DF801109DF80000C0
:1031700000EB012105EB440081819DF803209DF8BF
:10318000021001EB0221C18211E09DF801109DF8AF
:10319000000000EB012105EB4400C1829DF80320F3
:1031A0009DF8021001EB0221C1F5F0718181641CD0
:1031B000E4B2052C8CD3A9894FF001093A8828463E
:1031C000914203D8C18A7A88914209D99DF80810A2
:1031D00001F00F0101290CD9C1898181018BE9829C
:1031E00086F800809DF8080000F08F0080280AD043
:1031F00018E0818A8181C18BC18280218DF80810FD
:1032000085F820A0EEE795F82000010602D520F011
:10321000800005E04FF6FF71A98100F0E000E9822F
:1032200085F820003078F02801D986F800B04846AB
:10323000BDE8FE8F630002202800022080080220E3
:1032400094E7010808B500218DF800108DF8010001
:103250000E489DF80020435C491CC9B2B8291A44A5
:103260008DF80020F5D3D0B20849C043401C8DF83A
:103270000000B82248F2470000F00AF8022269462E
:1032800048F2FF0000F004F8002008BDDCE6010869
:103290002DE9F041002715460E460446FDF78AFF4A
:1032A0002820FDF74BFFFDF7D7FF200AFDF746FF6B
:1032B000FDF7D2FFE0B2FDF741FFFDF7CDFF00249F
:1032C00008E0305DFDF73AFFFDF7C6FF070003D1C8
:1032D000641CE4B2AC42F4D3FDF798FF3846BDE875
:1032E000F08100002DE9F0433F4889B0016841F0CA
:1032F00080010160016801F080010791016841F4DB
:1033000080710160006801AADFF8E090802500F478
:1033100080700790002400950126694603274846DF
:1033200082E8D00004F02EF84FF480786946CDE9A9
:1033300000862F4E304604F025F8FDF76DFE002282
:103340004146304604F011F90A2016F0DFFC012254
:103350004146304604F009F90A2016F0D7FCCDE9C1
:103360000054CDE902476946484604F00BF8642052
:1033700016F0CCFC042248F2401005A900F050F8E9
:1033800005A98DF818401BA0FCF7D2FF1DA105A8C8
:10339000FDF7F8F918B1012009B0BDE8F08302206B
:1033A00048F2400501228DF8140005A92846FFF7D0
:1033B0006FFF0122E81D05A9FFF714FE9DF8141008
:1033C000412905D211A0FCF7B3FF012000F02EF92E
:1033D0000A2016F09BFC0122284605A98DF814400E
:1033E000FFF756FF0020D7E730380240001C0240AC
:1033F000002002404354502049443A25730D0A0DE1
:103400000A0000003932373100000000446566616F
:10341000756C74205665723A25640D0A0000000030
:103420002DE9F04115460F460446FDF7C3FE28205E
:10343000FDF784FEFDF710FF200AFDF77FFEFDF784
:103440000BFFE0B2FDF77AFEFDF706FFFDF7B2FED7
:103450002920FDF773FEFDF7FFFE00246E1E09E034
:10346000B44201D0012000E00020FDF72FFE3855C6
:10347000641CE4B2AC42F3D3BDE8F041FDF7C6BE34
:103480002DE9F14783B000258DF800504FF00A0A6E
:10349000624C2F46624E4FF6FF792078401CC0B236
:1034A0002070B0FBFAF20AFB120109B10A287DD2A2
:1034B00048F24E180122404603A9FFF7B1FF9DF8DC
:1034C0000C0001060AD500F00F000B2806D28DF87B
:1034D000005001226946404600F0CEF89DF80C00ED
:1034E000010771D000F00F000B286DD209FA00F12E
:1034F00096F82080C84340F0C00086F82000B089CC
:10350000F083F08A30858DF8005042E096F8200074
:103510009DF8002001219140084235D041499DF895
:103520000000062231F8100001A9FFF779FF96F894
:1035300030009DF80710C0079DF8060000EB012041
:1035400010D09DF8001006EB4101C8829DF80500DF
:103550009DF8041001EB00209DF8001006EB4101DE
:10356000888111E09DF80010C0F5487006EB41011C
:1035700088819DF805109DF8040000EB01209DF85E
:10358000001006EB4101C8829DF80000401C8DF838
:1035900000009DF800000A28B8D323480127B1890C
:1035A0000288914205D8F18A408800E00CE081420F
:1035B00009D99DF80C0000F00F0001280BD9F08903
:1035C000B081308BF08225709DF80C0000F08F00E8
:1035D00080280AD018E0F08BB081308DF0828020F6
:1035E0008DF80C0086F82080EEE796F820000106A2
:1035F00004D520F0800086F8200005E0A6F80C90A5
:10360000A6F8169086F820502078F02801D984F882
:1036100000A004B03846BDE8F08700006500022035
:103620002800022062E801088008022008B5002175
:103630008DF800108DF801000E489DF80020435CC5
:10364000491CC9B2B8291A448DF80020F5D3D0B26C
:103650000849C043401C8DF80000BA2248F24700D8
:1036600000F00AF80222694648F2FF0000F004F870
:10367000002008BDA8E701082DE9F0410027154604
:103680000E460446FDF796FD2820FDF757FDFDF791
:10369000E3FD200AFDF752FDFDF7DEFDE0B2FDF788
:1036A0004DFDFDF7D9FD002408E0305DFDF746FD36
:1036B000FDF7D2FD070003D1641CE4B2AC42F4D3A1
:1036C000FDF7A4FD3846BDE8F08100002DE9F04F7C
:1036D000DFF828B191B04FF0FF35DBF80030B3F9D7
:1036E00022100691DE69B3F92490F469A189814220
:1036F00006D8E289824203D3471AD4F8008012E048
:10370000D4E9018100296FD00A8882426CD84D88A3
:10371000854269D3801A82B2486800EB8200B0F912
:103720000070B0F90250781C5ED0307EA17C10FB96
:1037300001FA217CCDE90701B3F92A60304606F091
:103740004FFEC0B20E90DBF8000007FB0A81A37C9D
:10375000826B0127CDE90412CDE90273C069089A92
:10376000C17E807ECDE90001DDE90603494605F012
:1037700015FE681C18D046F0020006F031FEDBF89A
:103780000000A37C05FB0A81826BCDE90273CDE9C1
:103790000412C069089AC17E807ECDE90001DDE98E
:1037A0000603494605F0FAFDDBF800005D46C069F6
:1037B000417E007E814214D9022E12D086F0040090
:1037C00006F00EFE2868C069027EC37E12FB0391DC
:1037D000437E857E089A06984B4412FB050206F04C
:1037E000D7F80E9806F0FCFDDBF80000627C418CF7
:1037F0001144418411B0BDE8F08F0000AC000220FC
:1038000004480068C069C06909B1027C0A60407C54
:1038100070470000AC000220022008807047C06999
:1038200082898A4202D8C2898A4210D2806880B1D5
:1038300002888A420DD843888B420AD3406800EB45
:103840008100A0EB8200B0F90000002801DB01201C
:1038500070470020704700002DE9F043304C0346CC
:1038600087B020681946B0F92A60C069C06900F0C5
:1038700086F8002850D041680088181A01EBC0056E
:103880003046AF7806F0ACFD814620686A680123B7
:10389000816BCDE90237CDE90421C169CB7E8A7EF7
:1038A000CDE900230B7EB0F924102A78B0F922006C
:1038B00005F074FD2068C069417E027E91421FD9E7
:1038C000C07E11FB00F812FB00F7022E18D001F0A9
:1038D00054F9064601F01AF902F029F821682A780D
:1038E000CB69B1F92200DB7E12FB0302B1F924108F
:1038F00001EB0803394406F04BF8304602F017F8A4
:10390000484606F06DFD20686A78C369B0F9221058
:103910009B7E12FB0311418407B0BDE8F0830000D9
:10392000AC00022030B50F4C05460B4620682946F6
:10393000C069C06900F023F8002812D041680088EF
:1039400024682A1A0120E46900EBC200085CA47E06
:1039500010FB04F0002B04D011F8321011FB04F11D
:10396000196030BDAC00022001200880704700B50E
:10397000C06900F004F8002800D0012000BD06E076
:1039800002888A4202D842888A4202D2806800288D
:10399000F6D1704770B50025124C19E02069124924
:1039A000C5EB051600EBC60070220968001DFCF788
:1039B00087FE2069002140F8361000EBC60000F1B8
:1039C0000C018161011D0A1DC0E90F126D1C4164CB
:1039D000A0688542E2DB01F0B7F9BDE8704002F073
:1039E00079BC000090020220AC00022070B50F49A3
:1039F0000D480860084603F08BFB0C4C143CA06893
:103A0000C0EB0010C500284600F0A6F82A460021A9
:103A1000206103F0F6FB4FF0FF30206002F0A3FCC2
:103A2000BDE8704012F07EBF41710108A40202207F
:103A3000F8B50C0005460FD001F086F9204600F0DD
:103A400017F8060010D000F015F9224600902DB1AD
:103A50002946FCF7AEFD04E00020F8BD002103F08C
:103A6000D0FB684600F070F902F034FC3046F8BD37
:103A700010B5040009D001F067F920460FF03AFBB9
:103A8000044602F027FC204610BD002010BD38B5CA
:103A9000054601F059F92846FFF7EAFF040009D06E
:103AA00000F0E8F82A460021009003F0AAFB6846DF
:103AB00000F04AF902F00EFC204638BD024A1060C0
:103AC00021F003005060704740B2042010B504009C
:103AD00016D001F039F90B48406B10F8341059B189
:103AE000022909D2042101EBC401415848680FF0B2
:103AF00047FA204614F090FBBDE8104002F0EABB04
:103B000010BD000080B10420002805D0034AD16B0D
:103B1000016001B14860D0637047000080B10420AB
:103B200010B5044601F010F92068FFF7CFFF002020
:103B30002060BDE8104002F0CDBB000070B50D461E
:103B40000646002405E000BF06EB8400FFF7E8FF0F
:103B5000641CAC42F8DB70BD2DE9F041044613F063
:103B60004FF82848E41C24F00305016C2D1DA942E0
:103B700000D90D46C46B13E054F8042CAA420ED1B0
:103B800084B1216809B162684A60616809B122683C
:103B90000A60C26BA24231D12168C1632EE0246861
:103BA000002CE9D18046816BC0680F1857F8040CCF
:103BB0003E1A306838B1002014F0A4FB57F8040C0A
:103BC0003E1A3068D0B97068A84217DB3044441BF5
:103BD0003046241D14F04EFBD8F80C10491BC8F8D1
:103BE0000C10D8F814102944C8F814107068401B41
:103BF00002D031460FF0C4F944F8045C2046BDE819
:103C0000F081000080B1042010B5002412F0F8FF0C
:103C10000C490F2001EBC002526C1AB101EBC0003D
:103C2000406C08E0401EF5D508E04168A14200D98B
:103C30000C46806810B180680028F6D1A4F10C0011
:103C400010BD000080B10420002138B104490422D5
:103C500002EBC000496B085841680C3908467047B0
:103C600080B1042002488169491C816170470000CD
:103C700080B104200549CA69521CCA61496B01EB35
:103C8000C0010A78521C0A7000F076B880B1042096
:103C90007CB506460C460846FFF7EAFE050020D034
:103CA000FEB13046FFF7D0FFA04200DA044601F033
:103CB0004BF82846FFF7DEFF00903046FFF7DAFFAB
:103CC0000146019022460098FCF773FC684600F01C
:103CD0003BF801A800F038F83046FFF7F7FE02F095
:103CE000F9FA28467CBD000010B501F02DF8FFF769
:103CF0008BFF64220849B0F5800F04D990FBF2F4E1
:103D0000086A444303E0096A4143B1FBF2F402F05C
:103D1000E1FA204610BD000080B1042005491028BA
:103D200005D94A68B0EB520F02D3500800E01020CA
:103D30008860704740B2042002488169491E816151
:103D40007047000080B104200A4902684B6B52F8AA
:103D5000082C03EBC2021378022B03D3CB690BB1FF
:103D60005B1ECB611178491E11700021016008466D
:103D70007047000080B10420002806D003490422C7
:103D800002EBC000496B08580830704780B104202E
:103D90002DE9FC414FF000060B465FEA000834466F
:103DA0002BD032B111461846FFF742FE060000D173
:103DB00001244046FFF75EFF00900788456868468B
:103DC000FFF7C2FFCCB9B9002846091DFFF760FF15
:103DD000050015D0FFF74EFF019040F8276001A8BD
:103DE000FFF7B2FF4046FFF745FF009045600188AE
:103DF000491C01806846FFF7A7FF2046BDE8FC810B
:103E00003046FFF763FE0124F7E70820FFF73FBEC7
:103E10007CB5050023D0FFF72DFF00904068C0B1AE
:103E2000FFF728FF0024019005E0019800EB8400D3
:103E3000FFF776FE641C00980088A042F5DC01A81C
:103E4000FFF782FF0098001DFFF76AFE009900202F
:103E500008806846FFF778FF2846FFF737FE7CBDED
:103E600038B5002430B1FFF705FF0090048868469C
:103E7000FFF76AFF204638BD38B50D46002448B12B
:103E8000FFF7F8FE2946009000F018F8044668464F
:103E9000FFF75AFF204638BD38B50D46018800248B
:103EA000A94209D9406838B1FFF7E4FE009050F804
:103EB00025406846FFF748FF204638BD10B500246E
:103EC000FFF7EAFF10B1FFF7D5FE0446204610BD0C
:103ED00070B514460D46064600F036FF204600F049
:103EE00059FE0300174804EB840109D050F8210063
:103EF00041688068711A2A1A184601F045FD1CE0D5
:103F000000EB8104A268B24201D0012200E000224D
:103F1000E368AB4201D0012300E000231A430CD038
:103F2000236943B150F82100816840686A1A311A48
:103F3000184601F0ADFCC4E90265BDE8704002F02E
:103F4000C9B9000084B3042010B5C2B2CBB2D21AF2
:103F500000D5524293B25B43C0F30722C1F307245A
:103F6000121B00D55242000C92B2A0EB114002FB92
:103F7000023200B2002801DA404200B280B200FBF7
:103F8000002010BD10B50021084600F07BFE43F66E
:103F9000FF725042BDE8104013460146AFF3008067
:103FA0002DE9FC411C4615460E46074600F0CCFEA6
:103FB000042006F015FA80461248C068C16C006DF6
:103FC0000F4406440D440444ADF80070ADF80450AD
:103FD000ADF80260ADF8064068460EF043FB07E01E
:103FE00023462A463146384605F0D2FC0EF0EEFA5A
:103FF0000028F5D1404606F0F3F902F06BF9BDE870
:10400000FC810000A0000220B0F90630B0F90420C5
:10401000B0F90210B0F90000FFF7C2BF2DE9F84374
:104020001C00DDE9089816460F46054602D10DF042
:1040300049FA044600962E6843464A4621462846D9
:10404000B047060039D00DF032FA8146698A304611
:104050000CF006FD30460EF091F948460EF08EF950
:104060004FF000080CE000BFCDF8008055F81CCFE1
:1040700000231A4649462846E04700B30EF07EF971
:104080007F1E002FF0DC1D2148460DF0F4FF601C60
:1040900012D000F059FE0DF049FA30B1FFF76CFE76
:1040A0008469B44201D02000F8D1B44202D0304635
:1040B0000EF0DAF802F00EF93046BDE8F88330462B
:1040C0000DF0C6F80020F8E72DE9F0411C46164631
:1040D0000D460746022B02DB0020BDE8F0811C20C4
:1040E000FFF73AFD0028F8D00DB105610AE0094A52
:1040F00052F8241009B905E011460A68002AFBD1DC
:104100000969016184618682002101604160C0E922
:104110000217E2E7C400022070B51D46FFF7D4FF86
:10412000040009D000F00EF8E068006820B90348E8
:10413000006800EB85008465204670BDAC0002205D
:10414000FFF7E2BC70B590B38269022A30DA1E4CE8
:1041500054F8221019B944F8220032E019464B688D
:10416000002BFBD106E0CB68C5681B682D68AB420D
:1041700003DD09680029F6D11AE0C1B1CB68C66831
:104180001B683668B3420CD1838A012B05D008E046
:104190001946DB681B68AB4203DB0B68002BF7D1C9
:1041A00029B14B6833B118604A68426004E0FFE708
:1041B000012070BD44F822004860884200D10021EF
:1041C0000160002070BD0000C400022010B503E0B3
:1041D0000468FFF7B7FF20460028F9D110BD14F09E
:1041E000DFBE00002DE9F0410026DFF834800D4FDE
:1041F000354600BF58F8254009E0E0680068385CA3
:1042000020B1204614F0CCFE266026462468002CFF
:10421000F3D16D1C022DEDDB3046BDE8F0810000CE
:10422000C400022004EC0108022801DB00207047D2
:10423000054951F8200004E0C16809680029F6D05A
:1042400000680028F8D17047C40002202DE9F84327
:104250001D461646884604000CD0FFF70BFD009063
:10426000006807686846FFF76FFD2B4632464146F7
:104270002046B847BDE8F88338B504004FF0000089
:104280000AD02046FFF7F6FC0090006845686846B3
:10429000FFF75AFD2046A84738BD38B504004FF057
:1042A00000000AD02046FFF7E5FC00900068856812
:1042B0006846FFF749FD2046A84738BD2DE9F04183
:1042C000044602F049F806191EE000BF00F06CFB3E
:1042D000052F00DD052700F037FD11480568FFF7C1
:1042E000C1FC2C0017D000BF01F0F4FF641EFBD10D
:1042F000384602F023F81DB100F026FD6D1EFBD1FB
:10430000FFF71AFD01F0E6FF02F026F8371A002F3A
:10431000DCDCBDE8F081384602F010F8F0E7000080
:104320009C0202202DE9FC4706005FD000F00CFD46
:1043300000F03AFC3C4C81462068B0F9228000F045
:104340006DFC216807468A8CD01B888441E000BF41
:1043500047F6FF71304602F071FD82460146304655
:1043600002F042FD2168054691F82C0000F00300A0
:10437000012841D002283BD000204A8C101A4884E2
:10438000ADF800006A1E1044ADF80400888CADF84A
:104390000200A9F101010844ADF806006A46514641
:1043A000304602F0B9F92168BDF802008884514610
:1043B000304601F07DFE064430780A281ED00D28D4
:1043C0001CD0BDF80000216828444884307818B11A
:1043D000761C30780028BBD12068818C39448184D8
:1043E000818D21F00301818501F074FFBDE8FC8718
:1043F00005EBD5704010C0E72846BEE7206890F86E
:104400002C1001F0030101290BD0022909D0018CE5
:10441000418431780A29D9D1828C02EB0901818447
:10442000D4E7A0F82280F4E7AC00022070B514466F
:104430000D46064600F088FC0548006845848484E3
:104440003046FFF76FFFBDE8704001F043BF00004A
:10445000AC00022047F6FF7300F044B82DE9FF4797
:104460001F460C9E90460D46814696B3002400944C
:10447000019400F069FCADB1286800906868019073
:104480001748009901600199416028460DF066FFC8
:10449000040007D00246294602A802F03CFD02A80B
:1044A0000DF05CFF304614F07FFB054671686846EE
:1044B00088473B4642466946484602F085F9204611
:1044C0000DF04CFF284614F06FFB01F003FFBDE830
:1044D000FF87FFE704B0BDE8F04700F003B8000035
:1044E000800402202DE9FC411F4690460D4606003F
:1044F0004FF000041AD000F027FC65B128460DF0FB
:104500002DFF040007D002462946684602F003FD4D
:1045100068460DF023FF3B4642462946304602F0EE
:1045200053F920460DF01AFF01F0D4FEBDE8FC81DE
:104530002DE9FF4F87B09046894607007DD000F0F7
:1045400003FCD9F80040D9F8045021B228B2401A2F
:10455000401C029000F028FB064618F00C0F1ED0FD
:1045600038460A9A029901F0BFFE08F00C010429AE
:1045700004D0082902D00C2911D104E0291400FB31
:104580001610401C09E02114C1EB254200FB162047
:10459000401C00EBD07001EB600060F31F44484604
:1045A0000DF0DCFE5FEA000B09D00246494604A884
:1045B000CDE9044502F0AFFC04A80DF0CFFEA6F152
:1045C000010A38460A9A029902F0EAFD03900AEBC2
:1045D000244060F31F45CDE900453846039902F0B9
:1045E00003FC18F003010ED001292CD002290ED1B2
:1045F000B9F90420B9F90010521A101A00EBD07062
:1046000001EB600001E0B9F80000ADF800006A4677
:104610003846039902F080F838460A9A029902F067
:10462000B5FD074406EB244060F31F4438780028AA
:10463000C7D158460DF092FE00E001E001F04AFEBD
:104640000BB0BDE8F08FB9F80410081A401CDCE785
:104650001CB50A460146684602F04CFD00F074FBAA
:104660002548BDF80010006830F84C2F1144ADF813
:104670000010BDF8021082881144ADF80210BDF898
:10468000041002881144ADF80410BDF806108088AB
:104690000844ADF8060068460DF0E4FF27E000BFCF
:1046A000BDF900400BE000BFBDF90210204604F048
:1046B000EFFFBDF90610204604F0EAFFA41CBDF987
:1046C0000400A042F0DABDF902400AE0BDF90000A2
:1046D000214604F0DDFFBDF90400214604F0D8FFB7
:1046E000A41CBDF90600A042F0DA0DF06FFF00280F
:1046F000D6D101F0EFFD1CBDAC0002202DE9F04F3A
:1047000087B09B46DDE9109892460C46054600F0BE
:104710001BFB16480168C86C096D47190E1900EBA0
:104720000A0501EB0B04ADF81070ADF81450ADF8AC
:104730001260ADF8164004A80DF094FF88B1DFF8C0
:1047400030B04FF0000ACDE90098CDE902BA2B460F
:1047500022463946304610F0C9FD0DF037FF0028DB
:10476000F1D101F0B7FD07B0BDE8F08FAC00022039
:10477000299700082DE9F04F87B09B46DDE9109896
:1047800092460C46054600F0DFFA16480168C86CF0
:10479000096D47190E1900EB0A0501EB0B04ADF882
:1047A0001070ADF81450ADF81260ADF8164004A8C2
:1047B0000DF058FF88B1DFF830B04FF0010ACDE9B5
:1047C0000098CDE902BA23462A463146384610F011
:1047D0008DFD0DF0FBFE0028F1D101F07BFD07B04F
:1047E000BDE8F08FAC000220A19500082DE9FC4146
:1047F00014460D46064600F0A7FA114F3968C86CFA
:10480000096D054404440E44ADF80050ADF8044071
:10481000ADF80260ADF8066068460DF023FF08E0D1
:10482000386822463146406E0368284698470DF0A6
:10483000CDFE0028F4D101F04DFDBDE8FC81000063
:10484000AC0002202DE9F0411C4615460E460746F5
:1048500000F07AFA0C480168C86C096D07440544F9
:104860000E440C4400200DF0FDFE07E023462A46CE
:1048700031463846FEF724F80DF0A8FE0028F5D1A1
:10488000BDE8F04101F026BDAC0002207CB50C462D
:10489000064600F059FA0F4D2868C16C006D0E44B1
:1048A0000444ADF80460ADF80060ADF80640ADF822
:1048B000024068460DF0D6FE07E028682146406EAB
:1048C0004268304690470DF081FE0028F5D101F096
:1048D00001FD7CBDAC0002202DE9FC411C461646C2
:1048E0000D46074600F030FA1A480168087ECA6C87
:1048F000096D17440D440C44401E391A1644ADF896
:1049000000103118ADF80410291A2044ADF8060043
:10491000ADF8021068460DF0A5FE15E032462946B6
:10492000384604F03DFE32462146384604F038FE53
:10493000621E691C384604F0F7FE621E691C304690
:1049400004F0F2FE0DF042FE0028E7D101F0C2FCB7
:10495000BDE8FC81AC0002207CB514460D4606463D
:1049600000F0F2F90F480068C16C006D0E44054478
:104970000444ADF80060ADF80460ADF80250ADF845
:10498000064068460DF06EFE06E022462946304697
:1049900004F0CAFE0DF01AFE0028F6D101F09AFCD0
:1049A0007CBD0000AC00022010B5002400E0012412
:1049B00000F004F80028FAD1204610BD094810B5CF
:1049C0000068002410B1804700B101240CF0EEFC17
:1049D00000B101240448006810B1804700B10124EF
:1049E000204610BDD0000220CC0002202DE9FC4161
:1049F0001C4615460E46074600F0A6F9104800680A
:104A0000C16C006D0F4406440D440444ADF80070C1
:104A1000ADF80450ADF80260ADF8064068460DF000
:104A200021FE07E023462A463146384604F0B0FF0F
:104A30000DF0CCFD0028F5D101F04CFCBDE8FC8167
:104A4000AC000220B0F90630B0F90420B0F9021031
:104A5000B0F90000FFF7CABF08B50B46002805D023
:104A6000009281888268C08800F001F808BD10B506
:104A70000828029C30D008DC04FB01F401280AD08D
:104A8000022813D0042804D11CE0102828D02028A4
:104A90002CD0002010BD04EBD30003F00701105C04
:104AA000C1F10701C84000F0010010BD04EB930004
:104AB0000621105C01EA4301C1F10601C84000F083
:104AC000030010BD04EB5300D907105C02D000F0C6
:104AD0000F0010BD000910BD04FB0130105C10BDBB
:104AE000481004FB003032F8100010BD881004FBA1
:104AF000003052F8200010BD034951F82000C16871
:104B00008A6A082110470000C400022010B500F096
:104B10001BF904F06DFF05F03DF8044601F0DAFBE7
:104B2000204610BD10B5044600F00EF905480021DE
:104B30000068C069426820469047044601F0CAFBFD
:104B4000204610BDAC00022070B50C46054600F0B2
:104B5000FBF8064821460068C0694268284690472D
:104B6000044601F0B7FB204670BD0000AC000220F7
:104B7000002801D00CF078BC704710B500F0E4F8C4
:104B800004F03EFF05F006F8044601F0A3FB2046C2
:104B900010BD00000021022802D2024951F8201065
:104BA000084670478802022010B500F0CDF804488E
:104BB0000068C069447E01F08DFB204610BD0000F6
:104BC000AC00022070B514460D46064600F0BCF855
:104BD00022462946304604F07FFF10B100202860AD
:104BE0002060BDE8704001F075BB70B50C4605460D
:104BF00000F0AAF82146284602F04AF9BDE87040C4
:104C000001F068BB10B5044602F034F901462046B5
:104C1000BDE8104002F0E8B801F09EBB10B50024DA
:104C200000F092F80B48006890F82C1001F00C018D
:104C3000042904D0082906D00C2907D103E0C06953
:104C4000047E641E02E0C069007E440801F042FB5D
:104C5000204610BDAC000220017EC07E11FB00F09A
:104C600070470000024951F8200000690068704751
:104C7000C4000220024951F82000006940687047D2
:104C8000C400022070B50D46044600F05DF82046D1
:104C900011F0C2FE0446284611F0C6FE044301F09E
:104CA00019FB204670BD000010B501F065FC0A49F3
:104CB0002E20087001F056FB084811F053FF04F055
:104CC0008FFF04460021084600F07CFE0CF026FF12
:104CD000FEF760FE204610BDA00002204CB204206A
:104CE0002DE9FC411C4615460E46074600F02CF8FF
:104CF000012000F02DFE804612480068C16C006D56
:104D00000F4406440D440444ADF80070ADF804505F
:104D1000ADF80260ADF8064068460DF0A3FC07E070
:104D200023462A463146384604F032FE0DF04EFC4A
:104D30000028F5D1404600F00BFE01F0CBFABDE8AB
:104D4000FC810000AC00022070B5184CE06820B176
:104D500001F0FFFA6168884204D001F005FB01F020
:104D6000F8FA6060E068401CE06001281CD111F096
:104D7000D9FD05462068854216D0002813DBFFF7D1
:104D800031FA01462068C0EB0012206900EBC20234
:104D90005167C5EB0511064A00EBC100011D11600A
:104DA000406FFFF713FA256070BD000090020220EB
:104DB000AC0002201CB5040004D10E480068046E4B
:104DC000002C16D0FFF7C0FF2046FEF753FF0090DF
:104DD00044696846FEF7B8FF4CB12046FEF74AFF2B
:104DE000019081688968884701A8FEF7ADFF01F04E
:104DF00071FA1CBDAC00022001490A4600F002B85D
:104E000001F0FFFF2DE9F04387B015460C465FEA3D
:104E1000000846D0FFF798FF002000F099FD81467A
:104E200021480068066E4046FEF724FF00900068A7
:104E3000806900F055FD074640F6FF70C44204D17A
:104E40000098B0F90440B0F906500098611E02893C
:104E5000ADF804401144ADF808104189681E0844BB
:104E6000ADF80650ADF80A000CF03AF86846FEF7C7
:104E70006BFF01A80DF0F6FB06E02A4621464046EE
:104E800000F082FB0DF0A2FB0028F6D1384600F0BE
:104E900027FD304600F08AF9484600F059FD01F040
:104EA00019FA07B0BDE8F083AC0002202DE9FE4FEF
:104EB000984691468A46834600270C9EFFF744FF9A
:104EC000184819490068407C51F82040E168096899
:104ED000042903D02468002CF8D100E01CB9FFF7A6
:104EE000A3F904001BD0E0680121C26A2046904764
:104EF000050011D02469A0688047401C02D10B4CEA
:104F000046F001060096CDE9015443464A46514613
:104F1000584600F0DFF9074601F0DCF93846BDE8F5
:104F2000FE8F0000AC000220C4000220401A0208DC
:104F300038B504001CD0FFF707FF0E480068006E6C
:104F4000A04201D100F0BEFC2046FEF793FE009087
:104F5000406908B101F0A7F900980068FFF7F0F880
:104F60006846FEF7F1FE2046FEF7B0FD01F0B2F90B
:104F700038BD0000AC0002202DE9FF4FDFF838916A
:104F8000074683B0D9F800009A468B46447C4B48CC
:104F900000570128204606DD04F0C6FD05462046E0
:104FA00004F0CEFD05E004F0ADFD0546204604F01A
:104FB000AFFD04461FB302A901A8FFF716FEB7F91B
:104FC0000000002800DA0020B7F902608046002EB9
:104FD00000DA002601984119B7F90400491E11F0C2
:104FE00082FF054602980119B7F90600491E11F023
:104FF0007AFFA5EB0802841B521C641C03E04FF0EF
:10500000000846462A46BAF1000F01D1C4F1000A51
:10501000002A4FDD002C4DDD10980090534631469C
:105020004046FFF743FF5FEA000A10D000F078F82F
:105030000746A04206D0D9F80000806C10B132219A
:105040000DF0C0FE504600F0B1F8002521E05946B1
:1050500005988847012007B0BDE8F08F611BB94271
:1050600002DA504600F086F83DB1721941465046CA
:1050700000F0C4F85046FFF79DFE59460598884752
:105080000F48016809B1002088475046FFF7B4FE79
:105090003D44A542E2DB5046FFF74AFF002000F006
:1050A00085F8A74206D0D9F80000806C10B13321F2
:1050B0000DF088FE0020CEE7AC000220E4000220C4
:1050C000D402022038B505004FF0000411D0FFF7DC
:1050D0003BFE2846FEF7CEFD009000680069806820
:1050E000804705F09DFD04466846FEF72DFE01F061
:1050F000F1F8204638BD38B504000ED0FFF724FE85
:105100002046FEF7B7FD00F1180400906846FEF750
:105110001BFE01F0DFF8204638BD002038BD00003E
:1051200038B504460025FFF70FFE1CB90848006893
:10513000046E44B12046FEF79DFD0090B0F90A5080
:105140006846FEF701FE01F0C5F8284638BD0000AC
:10515000AC00022070B50546002428460EF094FBF2
:10516000641C18B1BDE8704000F07AB8052CF4DB7F
:1051700070BD000038B50C46050004D10A4800682F
:10518000056E002D0FD0FFF7DFFD2846FEF772FDFC
:105190000090B0F90A10A14200DD44816846FEF794
:1051A000D3FD01F097F838BDAC000220F8B50546F4
:1051B000FFF7CAFD104E3068046ECDB10CB100F09F
:1051C00081FB0BF0FDFF2846FEF754FD009031688F
:1051D0000D660068FEF7B6FF6846FEF7B5FD05F000
:1051E00049FB05F053F800BF01F074F82046F8BD04
:1051F00000F068FBF8E70000AC0002207CB5154623
:105200000E46040004D115480068046E002C24D01A
:10521000FFF79AFD2046FEF72DFD2DB20090C580C8
:1052200034B2848005F032F80098406980B1FEF70E
:1052300021FD009A0190B2F908108180B2F90A208C
:10524000C28011B10AB10480458001A8FEF77CFD3F
:105250006846FEF779FD01F03DF87CBDAC00022008
:1052600001490A4600F002B801F0FFFF7FB515467C
:105270000C4606002DD0FFF767FD3046FEF7FAFC1E
:1052800040F6FF710190CC4203D1B0F90440B0F96F
:1052900006500289611E1144ADF80840ADF80C10AB
:1052A0004189681E0844ADF80E00ADF80A5001A807
:1052B000FEF74AFD02A80DF0D5F906E02A46214680
:1052C000304600F049F90DF081F90028F6D101F0DF
:1052D00001F87FBD2DE9FF4FDFF8E8B083B01C4631
:1052E000DBF80010DDE9106092464FF000084B7CBF
:1052F00042461299FEF7E8FE050060D028698068F2
:10530000804705F08DFC81460AFB09F1C91DCF08D5
:10531000FEF7EAFCF10705D1C11700EB9170801090
:1053200000EB4000002C09DC1FB11838B0FBF7F08F
:1053300000E000206442A04200DC0446F00707D1F0
:105340000090DDE903012346524600F031FF80461C
:10535000002C03DC2846FEF7F3FE30E004FB07F0E8
:105360001830F10702D0FEF783FB01E0FEF78FFB58
:1053700006001CD0FEF77EFC019005600399818039
:105380000499C180A0F808A04481C0F81480C0E945
:10539000037901A8FEF7D8FC1298AE602861DBF80B
:1053A0000000407CA861304607B0BDE8F08F284679
:1053B000FEF7C6FE5FEA080001D0FEF787FB00207B
:1053C000F2E70000AC0002202DE9F74F8EB0144642
:1053D00089460E98FEF74EFC0990B0F908B0B0F976
:1053E0000A600068006940680C9009A8FEF7ACFCF0
:1053F000564D574F2868407C57F82000C1688A6A8C
:10540000082190470790182801D32020079028688A
:10541000407C57F820000069069003C80B904D4867
:10542000814201D0012000E000200A90002000F01D
:105430009DFF00287DD1286809EB0B01B0F90C20F5
:10544000891A491E002902DDABEB010500E05D462B
:10545000B0F90810494505DDA1EB090189446D1A31
:10546000089101E000210891002D6BDDB0F90E20BC
:10547000A119891A491E002902DDA6EB010800E0E6
:10548000B046B0F90A00A04204DD061B3444A8EB84
:10549000060800E00026B8F1000F53DD08980190DF
:1054A0000DA95F46DDF830A00E980091FFF723FEAE
:1054B000774300EB870101982B4601EB80020099AE
:1054C0004846CDE900A1214601F02EFA00900028BF
:1054D00038D00A98E8B1DDE906322946009801F093
:1054E00045F8B0B90698009FDA46D0F810C0BCF174
:1054F000000F05D004235A4639463846E04708E0F5
:105500000B993868884701C7AAF101005FEA000AD1
:10551000F6D100990020079ACDE9030105900120FA
:105520000090CDE9010221460346641C2A46484604
:1055300000E007E003F032FFA8F10100761C5FEA0B
:105540000008ABD111B0BDE8F08F0000AC00022024
:10555000C4000220B39B0008F8B515460E46074666
:10556000FEF788FB009000681621C068426A0020A0
:10557000904704466846FEF7E7FB002C03D02A4616
:1055800031463846A047F8BDF8B516460F46050027
:1055900012D0FEF76FFB009044696846FEF7D4FB1B
:1055A0002846FFF78FFD0346082800DD2CB1324660
:1055B0003946284613F028FDF8BD324639462846BC
:1055C00013F0C2FEF8BD000002480068407C00F005
:1055D00003B80000AC000220F8B51D49096809B104
:1055E000002200E002461B498D56012D2EDD184990
:1055F000143151F822305B1C41F82230012B25D1A7
:10560000A1F108030026103953F8224051F8221066
:1056100053F822707F1C43F82270AF4201D143F847
:10562000226053F822708F42F2D03D46FEF7FCFD17
:10563000009000280AD0C0682121426A684690473D
:10564000030003D02A46214600989847F8BD000081
:1056500054020220E400022002480068407C00F06E
:1056600003B80000AC00022038B51449096809B13C
:10567000002200E002461249895601291CDD0F492B
:10568000143151F822305B1E41F8223014D1083910
:1056900051F82240103141F82240FEF7C5FD00903C
:1056A000002809D0C0682221426A6846904702005B
:1056B00002D021460098904738BD000054020220D5
:1056C000E400022010B5002821D009B30AB3B1F9D3
:1056D0000040B2F900309C4200DA23460380B1F961
:1056E0000240B2F902309C4200DA23464380B1F90D
:1056F0000440B2F904309C4200DD23468380B1F9B6
:105700000610B2F90620914200DC1146C18010BD9E
:1057100011460A6802604968416010BD00280BD03C
:1057200003880B4403808388194481804188114495
:105730004180C1881144C1807047000070B50E4D92
:105740000446D5E90001884209D10C49884201D1BB
:105750003C3000E00C3807C884E8070006E090E819
:105760000E0084E80E0011F075F92860207A0028F8
:1057700000D0012070BD000088040220ACB30420DA
:105780000448D0E90010814201D101207047002077
:105790007047000088040220054A10B503491160D3
:1057A00013F0BAFABDE8104000F05AB931170108F9
:1057B000D400022070B50025FFF7C6FA094CD4E9E1
:1057C000002082420AD0D2E90056104611F04CF96E
:1057D0002060314628460CF035FB012500F07AFDAB
:1057E000284670BD780202202DE9FC41154DDDE907
:1057F00008742D68B5F90860864200DD3046B5F9B9
:105800000C60964200DA3246824219DBB5F90A6032
:105810008E4200DD3146B5F90E509D4200DA2B462E
:105820008B420DDB00E02C46E5682D6825B1042D88
:1058300002D02568002DF6D1CDE9007404F006FBF6
:10584000BDE8FC81AC000220B0F90220B1F90630BD
:105850009A4213DCB1F90220B0F906309A420DDC0D
:10586000B0F90020B1F904309A4207DCB1F9001018
:10587000B0F90400814201DC01207047002070472C
:105880000146024870220068FAF71ABFAC000220F5
:1058900070B515460E4604000AD0FFF755FA2A46A1
:1058A0003146204612F052FFBDE8704000F012BDB4
:1058B00070BD0000024970220968FAF701BF0000BC
:1058C000AC00022010B5FFF73FFA04F095FC04F09D
:1058D000D1FF0BF005FBBDE8104000F0FBBC000061
:1058E00070B50B4D04462868467CFFF72DFA022C54
:1058F00009D22046FEF798FC28B128684474FFF7C7
:10590000E1FF0448046000F0E5FC304670BD000093
:10591000AC000220D001022010B50446FFF714FAB3
:10592000204604F089FCBDE8104000F0D3BC10B55F
:105930000446FFF709FA204604F0B6FCBDE8104023
:1059400000F0C8BC0149886070470000A000022038
:1059500010B50446FFF7F8F9204604F041FD04466F
:1059600000F0B8FC204610BD70B50446FFF7ECF916
:1059700004480068C56904B1C46100F0ABFC284666
:1059800070BD0000AC00022070B514460D460646FE
:10599000FFF7DAF922462946304604F055FE044660
:1059A00000F098FC204670BD70B50546FFF7CCF9B5
:1059B00003480068847E857600F08CFC204670BD2C
:1059C000AC00022070B50C460546FFF7BDF909484A
:1059D000224605800848048008480068417C084841
:1059E00050F82100C1680B6A29469847BDE870400D
:1059F00000F070BCEC000220EE000220AC0002209F
:105A0000C400022070B50546FFF79EF90348006800
:105A1000047E057600F05EFC204670BDAC000220DE
:105A200070B50446FFF790F904480068B0F92C50AF
:105A3000848500F04FFC284670BD0000AC000220B9
:105A400070B50446FFF780F904480068B0F92A50A1
:105A5000448500F03FFC284670BD0000AC000220E9
:105A600002480068002800D000477047B4020220B6
:105A700002498A6802B98860FFF7F2BF7802022003
:105A80002DE9FC41984616460D460746FFF75CF99E
:105A90001C20FDF7FCFF04002DD01C491A480860AB
:105AA0002046FEF7E7F8009015B9FFF7B5F8054670
:105AB00000980760C0E90465A0F80C806846FEF70E
:105AC00043F9204611F0C0F9114DA86840B90120F2
:105AD000A86005F10C010F480860084601F018FBAA
