:020000040800F2
:10000000D0EB0420ED02000859C70008DBA300086C
:100010007DC6000861120008A94501080000000023
:100020000000000000000000000000008D06010834
:10003000AD18000800000000890B00080108010845
:1000400027030008270300082703000827030008E8
:1000500027030008270300082703000827030008D8
:1000600027030008270300082703000827030008C8
:1000700027030008270300082703000827030008B8
:1000800027030008270300082703000827030008A8
:100090002703000827030008270300082703000898
:1000A0002703000827030008270300082703000888
:1000B0002703000819300108270300082703000858
:1000C0002703000827030008270300082703000868
:1000D000270300083D4501082703000827030008FF
:1000E0002703000827030008270300082703000848
:1000F0002703000827030008270300082703000838
:100100002703000827030008270300082703000827
:100110002703000827030008270300082703000817
:100120002703000827030008270300082703000807
:1001300027030008270300082703000827030008F7
:1001400027030008270300082703000827030008E7
:1001500027030008270300082703000827030008D7
:1001600027030008270300082703000827030008C7
:1001700027030008270300082703000800000000E9
:1001800027030008270300082703000827030008A7
:100190002703000827030008270300082703000897
:1001A0002703000827030008270300082703000887
:1001B0002703000827030008270300082703000877
:1001C0002703000827030008000000002703000899
:1001D0002703000827030008270300082703000857
:1001E0002703000827030008270300082703000847
:1001F000270300082703000800F002F800F067F862
:100200000AA090E8000C82448344AAF10107DA4571
:1002100001D100F05CF8AFF2090EBAE80F0013F05C
:10022000010F18BFFB1A43F001031847546C02007A
:10023000746C02000A444FF0000C10F8013B13F0FC
:10024000070408BF10F8014B1D1108BF10F8015B2F
:10025000641E05D010F8016B641E01F8016BF9D122
:1002600013F0080F1EBF10F8014BAD1C0C1B09D179
:100270006D1E58BF01F801CBFAD505E014F8016BEB
:1002800001F8016B6D1EF9D59142D6D3704700007D
:100290000023002400250026103A28BF78C1FBD88F
:1002A000520728BF30C148BF0B607047642900F077
:1002B000D780782900F01081732900F03F83002057
:1002C00070471FB51EF096FD1FBD10B510BD00F0A4
:1002D000CFFB1146FFF7F5FF1EF08CFB00F0EDFBA6
:1002E00003B4FFF7F2FF03BC1EF0EEFA114880479B
:1002F000DFF84400016841F470010160BFF34F8FE3
:10030000DFF83800016821F040410160BFF36F8FD2
:100310000B480047FEE7FEE7FEE7FEE7FEE7FEE7E5
:10032000FEE7FEE7FEE7FEE706480749074A084BF7
:10033000704700002508010888ED00E034EF00E078
:10034000F9010008D0DF0420D0EB0420D0E1042024
:10035000D0E1042072B6704762B67047EFF31080A8
:1003600072B6704780F31088704730BF704720BF67
:100370007047B0FA80F0704790FAA0F0B0FA80F0C1
:10038000704790FAA0F07047704700000FB404491E
:1003900010B503AA029800F0D5FA10BC5DF814FB62
:1003A000140002202DE9F0410E4604460020206290
:1003B0002046E168884730B3252805D0D4E90121DB
:1003C0009047206A401CF2E7E168204600278847F2
:1003D000050018D0A5F14100192802D820354FF4A6
:1003E00000673246294620462760FFF75FFF40B18D
:1003F000012804D0F61D26F007060836D8E7361D7A
:10040000D6E72846DAE7206ABDE8F08170B50C46E9
:100410000546012A05D02878800600D5EA69002320
:1004200002E0012305E05B1C934202D2E05C00285D
:10043000F9D1A869E618C01AA861286A1844286288
:100440002846AFF3008004E0D5E9012114F8010B40
:100450009047B442F8D32846AFF3008070BD000047
:100460002DE9F0410646002410687529314616A58D
:1004700010D0AFF30080002802DA404213A507E055
:1004800031688A0701D512A502E0490704D511A5F4
:10049000012401E0AFF3008000210A2206F12407C5
:1004A00009E0B0FBF2FCB0FBF2F302FB1C003030C1
:1004B00078541846491C0028F3D123462A46304672
:1004C000BDE8F04100F0CFB9000000002D000000B1
:1004D0002B0000002000000070B504460D462146A8
:1004E0001068AFF300802188090502D50F4A7A44CD
:1004F00002E00E4A7A440E32002104F1240305E0A2
:1005000000F00F060009965D5E54491C0028F7D1E3
:1005100020780023000704D5702D02D009B10223F2
:1005200011322046BDE8704000F09DB9CE67020050
:1005300040EA010310B59B070FD1042A0DD310C860
:1005400008C9121F9C42F8D020BA19BA884201D9B2
:10055000012010BD4FF0FF3010BD1AB1D30703D0FA
:10056000521C07E0002010BD10F8013B11F8014BB0
:100570001B1B07D110F8013B11F8014B1B1B01D1CC
:10058000921EF1D1184610BD40EA0103024630B573
:100590009B0710D14FF0013400E008C208C91D1BB1
:1005A0009D4315EAC41FF8D013F0FF0102F8011BA8
:1005B0000DD01B0AF8E711F8013B002B02F8013BB4
:1005C00005D011F8013B002B02F8013BF3D130BDFF
:1005D00010B5431C02E010F8011B71B18107FAD17C
:1005E0004FF0013202C88C1A8C4314EAC211F9D0C0
:1005F000C01A0A0603D0C01E10BDC01A10BD0A04DE
:1006000001D0801E10BD0902FCD0401E10BD032A7F
:1006100040F2308010F0030C00F0158011F8013B1F
:10062000BCF1020F624498BF11F801CB00F8013B06
:1006300038BF11F8013BA2F1040298BF00F801CBCA
:1006400038BF00F8013B11F0030300F06780083A5F
:10065000C0F0088051F8043B083A51F804CBA0E8F8
:100660000810F5E7121D5CBF51F8043B40F8043B4D
:10067000AFF30080D20724BF11F8013B11F801CB82
:1006800048BF11F8012B24BF00F8013B00F801CB53
:1006900048BF00F8012B7047431A28BF9A427FF6E3
:1006A000B6AF032A1044114440F2268010F0030F25
:1006B0001EBF11F8013D521E00F8013D10F0030F5E
:1006C0007FF4F6AF11F0030300F06181083AC0F047
:1006D0000B8051F8043D083A51F804CD40F8043D30
:1006E00040F804CDFFF7F3BF121D5CBF51F8043D85
:1006F00040F8043DAFF30080D20724BF11F8013D5C
:1007000011F801CD48BF11F8012C24BF00F8013DBC
:1007100000F801CD48BF00F8012C704710B5203A11
:10072000C0F00B80B1E81850203AA0E81850B1E8AA
:100730001850A0E81850BFF4F5AF5FEA027C24BF60
:10074000B1E81850A0E8185044BF18C918C0BDE857
:1007500010405FEA827C24BF51F8043B40F8043B20
:1007600008BF7047D20728BF31F8023B48BF11F8D5
:10077000012B28BF20F8023B48BF00F8012B70472F
:1007800002F0FF0343EA032242EA024200F02BB9DF
:100790004FF0000200B5134694469646203922BF1A
:1007A000A0E80C50A0E80C50B1F12001BFF4F7AF65
:1007B000090728BFA0E80C5048BF0CC05DF804EB47
:1007C000890028BF40F8042B08BF704748BF20F8B5
:1007D000022B11F0804F18BF00F8012B704700006A
:1007E0004FF0013C50F8042B51F8043B9A4215D1CC
:1007F000A2EB0C03934313EACC130BD150F8042B58
:1008000051F8043B9A4209D1A2EB0C03934313EA3B
:10081000CC13E7D04FF00000704700BFD01A01BAE8
:10082000B1FA81F101F0180122FA01F0CB40C1F1D7
:100830002001DBB2C0B2C01A2CFA01F3D11A9143E5
:1008400011EAC311E6D1704770477047704770478F
:1008500010B500F0E9F8006810BD10B5044600F0CE
:10086000E3F8046010BD2DE9F0470D469946924625
:10087000044600F124080168880604D5E06921F0E7
:100880001001216000E00120A84201DD471B00E0CB
:100890000027A1697A1902EB0900081AA0612078E3
:1008A000C00602D42046AFF30080002608E0D4E959
:1008B00001211AF806009047206A401C761C20622D
:1008C0004E45F4DB2078C0060AD52046AFF3008001
:1008D00006E0D4E9012130209047206A401C2062C4
:1008E000381EA7F10107F4DC07E0D4E9012118F86C
:1008F00005009047206A401C2062281EA5F10105D2
:10090000F3DC2046AFF300802078000602D50220F9
:10091000BDE8F0870120FBE710B5436913B1AFF3E1
:10092000008001E0FFF772FD012010BD127800F198
:1009300024010A7000224A700122EDE711684FF08D
:10094000FF32E9E7074B70B50D467B4400F075F8C0
:100950000446284600F084F810B14FF0FF3070BD17
:10096000204670BD67E00100431A28BF9A427FF617
:10097000D5AE104410F0030F11441EBF11F8013D15
:10098000521E00F8013D10F0030F7FF4F6AF103A4D
:10099000C0F00A8010B531E91850103A20E918501B
:1009A000BFF4F9AFBDE81040530724BF31E9081088
:1009B00020E9081044BF51F8043D40F8043D12F00E
:1009C000030F08BF7047D20728BF31F8023D48BF68
:1009D00011F8012C28BF20F8023D48BF00F8012C77
:1009E00070474FF000020429C0F0128010F0030C91
:1009F0003FF4D0AECCF1040CBCF1020F18BF00F8EC
:100A0000012BA8BF20F8022BA1EB0C01FFF7C2BEFF
:100A10005FEAC17C24BF00F8012B00F8012B48BF1E
:100A200000F8012B70470000004870476CDF04207D
:100A300001694A1C02610878704700B58FB0CDE9A2
:100A400001310021059105497944CDE90310114692
:100A50006846FFF7A7FC0FB000BD0000E5FFFFFFF1
:100A6000007B00F080007047004870476CDF042076
:100A70007546FFF7F9FFAE4605006946534620F07C
:100A80000700854618B020B5FFF74EFCBDE82040B2
:100A90004FF000064FF000074FF000084FF0000B3A
:100AA00021F00701AC46ACE8C009ACE8C009ACE8ED
:100AB000C009ACE8C0098D46704710B50446AFF3D5
:100AC00000802046BDE81040FFF70ABCEFF3098123
:100AD00041B1F1EE101A40F8041D20ED200A3E4904
:100AE0000A6810607047B0EC200A02C8E1EE101AE4
:100AF0003A490A681060704772B64EF62250CEF23C
:100B0000000040F2FF01C0F2000101704FF0000050
:100B100080F309880CF0E6FF40F26C10C2F202008C
:100B2000016881F3088840F20610C2F2020040F228
:100B30000711C2F202010A78027040F26415C2F293
:100B4000020540F26811C2F202010A682A601068C8
:100B500080F30988EFF3148040F0020080F31488DA
:100B6000BFF36F8FBDE8F00F0FBCBDE8005006BCAF
:100B700062B608471A484FF0805101607047184824
:100B80004FF080510160704772B6EFF3098020E9A1
:100B9000F00F40F26415C2F202052E683060744610
:100BA0000CF0A0FF40F20610C2F2020040F2071162
:100BB000C2F202010A78027040F26811C2F2020128
:100BC0000A682A6044F0F40E1068B0E8F00F80F371
:100BD000098862B6704700006401022068010220A3
:100BE00004ED00E04A4910B5D1F8042322F4403264
:100BF000C1F80423D1F8042343681A43C1F804233D
:100C000001684A6822F480724A6001684A68036990
:100C100042EA03224A6001684A6822F040724A6050
:100C200001684A6883681A434A6001688A6822F446
:100C300000628A6001688A68C3681A438A60816AB0
:100C40006FF07062D14201688A6822F070628A6037
:100C500001688A680CD0836A1A438A6001688A68CE
:100C600022F040528A6001688A68C36A1A4301E030
:100C700022F040528A6001688A6822F002028A608B
:100C800001688A68836942EA43028A60016A00292E
:100C900001684A6815D042F400624A6001684A68F7
:100CA00022F460424A6001684B684FF46044426A33
:100CB00094FAA4F4521EB4FA84F4A24013434B6095
:100CC00002E022F400624A600168CA6A22F47002FB
:100CD000CA620168CA6A838B0E4C04EB03531A4341
:100CE000CA6201688A6822F400728A6001688A68B0
:100CF000036B42EA43228A6001688A6822F48062B8
:100D00008A6001688A68406942EA8020886010BD74
:100D1000002001400000F0FF09F088BB2DE9F04100
:100D20000D46014600204E19044608E00702301B1C
:100D3000401E80B200F007F8641C3844E4B2AC42B4
:100D4000F4D3BDE8F08110B5044609F029FC200A6F
:100D5000A02101EB4000C0B209F0ECFB09F070FCEF
:100D6000E0B209F0E7FB09F06BFC09F019FCA120E7
:100D700009F0E0FB09F064FC002009F0A7FB044641
:100D800009F036FC204610BD2DE9F041002416463E
:100D90000D46074609E0E00025FA00F0C1B2381917
:100DA00080B200F006F8641CE4B2B442F3D3BDE8AC
:100DB000F08170B50D46044609F0F2FB200AA0212F
:100DC00001EB4000C0B209F0B5FB09F039FCE0B21C
:100DD00009F0B0FB09F034FC284609F0ABFB09F040
:100DE0002FFC09F005FCBDE870400A201DF094BD01
:100DF000002800DC4042704738B54568044601468B
:100E0000284613F0EBFB00282BD02068304A11282D
:100E10000DD006DC0B2825D00E2833D00F2852D158
:100E200012E0282849D0B0F5107F4CD108E0926834
:100E3000002A16D02146284601B0BDE830401047B0
:100E4000214628465268F7E7284603F09DFD0090AA
:100E5000406E0468684603F001FE002C01D028466D
:100E6000A04738BD284603F08FFD0090683003F09E
:100E7000E1FC009803216C3003F0EAFC684603F0C3
:100E8000EDFD20E0E168486809680D2902D02029BD
:100E900013D105E0002810DD28461AF03CF806E0E2
:100EA000002804DD2846BDE838401AF034B828464A
:100EB000BDE8384002211AF044B8E06818B90021B2
:100EC000284600F097F92046BDE8384013F0E4BF0B
:100ED00074020220F0B5044685B08069B4F9085068
:100EE000668A0027CDE90265CDE900170490B4F9C0
:100EF0000C00B4F91060C118B4F90A00B4F90E502E
:100F0000104433462A4600F007F80546616800F0B1
:100F10007AF905B02846F0BD2DE9F04F85B01F469F
:100F2000DDE911B4DDE90E5690468946824604F0AB
:100F3000E1FD16484C34CDE90204CDE900563B46AC
:100F400042464946504613F0EFFE040018D003F025
:100F50001BFD10225946049013F00AFD049830221C
:100F60000B493430FFF7DAFB094D04990C3D286832
:100F7000486604A803F072FD286841682046884747
:100F800006F0A2F805B02046BDE8F08FF90D000884
:100F900080020220F0B5044680688B4989B051F880
:100FA0002050606800287DD0052804D006287AD01B
:100FB000122879D1AEE0E86900284FD095E80E00FC
:100FC0008DE80F0004F110010FC906F019FD00268D
:100FD00055F8260005F097FBA169E8690A1A21690E
:100FE00001446069304404F0BFFAA169E8690A1A53
:100FF00021690144E069801B04F0B6FAE169E869FF
:101000000A1A616901442069304404F063FBE16914
:10101000E8690A1A61690144A069801B04F05AFB5F
:10102000761C022ED4DBA86805F06DFBE069E96947
:101030006669431A206942183144801C521E04F02C
:1010400093FBE169E869A2690B1A61690144101A0E
:10105000401C921E04F088FBEE6913E05FF000066E
:1010600055F8260005F04FFBE069831BA069821B41
:10107000606981192069304404F0ECFA761C022E74
:10108000EEDB0226D5E90301CDE900016169E069E3
:1010900008444310A069891C821B2069304404F075
:1010A000FDF902E089E012E08AE0D5E90501CDE929
:1010B0000001E36960690121184401EB6001A06946
:1010C0009B1E821B2069304404F0E8F978E0206818
:1010D00003F05AFC0490206815F0D2FA40B1A068E1
:1010E00008B1002008E00498006F28B1012003E057
:1010F0000498406F00B10220049901EB8000C56E96
:1011000004A803F0ABFC00231A462846216803F02C
:1011100075FF55E0206803F037FC0490866EEEB34F
:10112000B0F95C70A168D1B3032942D05FF000012F
:1011300000EB8101406D0C6C05F002FB204605F0D0
:10114000E2FA05A804F0D2FBBDF81410A88B014404
:10115000ADF81410BDF81810081AADF81800BDF855
:101160001600801CADF81600BDF81A00801EADF800
:101170001A000498B0F96020B0F95E1005A805F0D7
:10118000B9F904A803F06AFC022005F045FB3046DB
:1011900003F0FAFB3A4605A9079001E00BE006E0F0
:1011A00004F030F80DF11C0003F058FC08E00121B8
:1011B000BEE70221BCE704A8F6E7206814F0EAFEC7
:1011C00009B00020F0BD0000B063020838B50D463C
:1011D00004000ED004F08EFC204603F0D5FB0090F6
:1011E0004565684603F03AFC204614F0F5FB05F02F
:1011F0006BFF38BD4FF480720029114601D013F007
:1012000081BA13F0D2B92DE9FF410E4605004FF027
:10121000010421D004F06EFC284603F0B5FB0190D8
:10122000876E01A8009703F019FC3146684606F066
:10123000CBFE78B100980024B84208D0284603F0CD
:10124000A3FB01900099816601A803F007FC2846E2
:1012500014F0C2FB05F038FF04B02046BDE8F08171
:10126000FEE700000549002010B5486000F0A6F830
:1012700000F006F8BDE8104000F086B894000220A7
:101280002DE9F041104F002635463E807E80BE603D
:10129000FE607E61BE613E61FFF760F8002480461B
:1012A0007E6100F049F800F057F8641C7869240466
:1012B0000544240CF4D0C7E904564046BE61BDE89D
:1012C000F041FFF74FB8000094000220034909697C
:1012D000884201D9401A70470020704794000220CC
:1012E00010B5FFF73BF804494C69FFF73BF820467F
:1012F000BDE81040FFF7EABF9400022010B5FFF7E9
:10130000EFFF0446FFF72AF8034A00215161FFF777
:1013100029F8204610BD00009400022010B5FFF708
:101320001DF804498C69FFF71DF82046BDE8104000
:10133000FFF7CCBF9400022010B5064C2088401C5B
:101340002080608810B900F051F8A0606088401CCF
:10135000608010BD9400022010B50A4C6088401EC9
:101360000004000C60800CD100F040F8E060A1683F
:10137000401A6169814200D26061A169814200D254
:10138000A06110BD9400022010B5FEF7E7FF0446EF
:10139000FFF7D2FF054810210BF0ACF9FFF7DCFF97
:1013A0002046BDE81040FEF7DDBF0000A0C30420CA
:1013B00001494860704700009400022010B508F011
:1013C00087F808490A6842F080720A6006490022DC
:1013D0004A600A6842F001020A60BDE81040FFF767
:1013E000E7BF0000FCED00E0001000E001484068AD
:1013F00070470000001000E070B5154E4FF48055A6
:1014000000222946304607F0ECF9124C206820F4FF
:1014100040302060206840F48030206002201DF0C1
:10142000A3FA00222046A11507F0DBF902201DF0E7
:101430009BFA01222946304607F0D3F902201DF01D
:1014400093FA29463046BDE87040002207F0C9B93A
:101450000004024000080240134800B587B001684C
:1014600041F002010160016801F00201059101688B
:1014700041F0040101600068694600F00400059035
:101480004FF48050009001200190029003200390BF
:10149000064807F0AFF84FF48070009004486946A2
:1014A00007F0A8F807B000BD303802400004024041
:1014B0000008024070B5154E4FF4805500222946B1
:1014C000304607F08EF9124C206820F4403020603E
:1014D000206840F48030206002201DF045FA01228F
:1014E0002046110207F07DF902201DF03DFA01228D
:1014F0002946304607F075F902201DF035FA2946D5
:101500003046BDE87040002207F06BB9000402408D
:10151000000802402DE9F0471B4E80460024306849
:1015200020F440303060306830601E201DF01CFA1E
:10153000164F00254FF4807AB146B6143846002283
:10154000314607F04EF902201DF00EFA0122314615
:10155000384607F046F960065146040E484607F043
:1015600037F908B1641CE4B26D1CEDB2082DE5D367
:10157000B8F1000F04D0FFF73FFF2046BDE8F08729
:10158000FFF798FFF9E7000000080240000402405E
:101590002DE9F0471D4F0546386820F4403038608B
:1015A000386840F480303860DFF86480BE14002270
:1015B0003146404607F015F902201DF0D5F9002408
:1015C000B9464FF4807A4746280601D5012200E04B
:1015D00000225146484607F004F9680631460122C8
:1015E000050E384607F0FDF802201DF0BDF9002277
:1015F0003146384607F0F5F802201DF0B5F9641CB5
:10160000E4B2082CE0D3BDE8F087000000080240F7
:10161000000402402DE9F041134C206820F44030D2
:101620002060206840F480302060012220461502AE
:10163000294607F0D6F801220C4F160338463146EA
:1016400007F0CFF81E201DF08FF900222946204612
:1016500007F0C7F802201DF087F931463846BDE88B
:10166000F041002207F0BDB800080240000402402B
:1016700070B5104C206820F440302060206840F4A1
:101680008030206001220C48110307F0AAF81E20C8
:101690001DF06AF9A51520460022294607F0A1F899
:1016A00002201DF061F929462046BDE87040012264
:1016B00007F097B800080240000402402DE9F0410D
:1016C000174D00242846296821F4403129602968F3
:1016D000296001221602314607F083F80122DFF863
:1016E000448017034046394607F07BF808E0641C45
:1016F000E4B2FA2C04D9FFF7BBFF0120BDE8F0816A
:1017000002201DF031F93146284607F061F8002823
:10171000EDD100223946404607F063F80020EDE79E
:101720000008024000040240F0B5BFF34F8FBFF342
:101730006F8F184900200860174C216841F4003170
:101740002160BFF34F8FBFF36F8F13497031086073
:10175000BFF34F8F081F006843F6FF750D4E10361C
:10176000C0F34E31C0F3C90305EA4112184642EAFC
:1017700080773760401EFAD2491EF5D2BFF34F8FF3
:10178000206840F480302060BFF34F8FBFF36F8F2D
:10179000F0BD000050EF00E014ED00E02DE9F04155
:1017A0001A4E00252C46B788B6F806801FB10020D7
:1017B0000EF0F2FF0125F08818B101200EF0ECFFC9
:1017C0000124307A50B1002030726DB10028B7800A
:1017D000A7F10107B8B203D0012202E00120F3E72C
:1017E00000226B2111F03AFC64B1A6F80680A8F142
:1017F0000100317A80B209B1012200E00022D72134
:1018000011F05CFC307ABDE8F08100007C1B022006
:1018100041F27C52101A10B584B20848012901D057
:1018200019B108E04480C08801E00480808810B1CC
:10183000204612F0ABFE204610BD00007C1B0220AB
:101840001CB513F09BFC0346044A00200090019055
:101850000C21034803F0BAFA1CBD000095D801081A
:10186000D43702081CB513F089FC0346044A002053
:10187000009001900221034803F0A8FA1CBD00006B
:10188000FDDE0108243902081CB513F077FC03467D
:10189000044A0020009001901221034803F096FAB8
:1018A0001CBD000031E001085C39020870472DE9D9
:1018B000FC470E465FEA00097FD004F01BF948465A
:1018C00003F062F8009090F85470D0F85880456B9F
:1018D000C46C684603F0C2F8B8F1000F04D031467A
:1018E00048464246904761E0122E18D006DC082E8A
:1018F00043D0102E3CD0112E06D112E0132E21D051
:101900001D2E43D01E2E3DD0202E4FDB17B1484652
:1019100015F085FEB1B2484619F00CF960B3611CB0
:1019200027E04DB3284603F02FF8054621460190E5
:1019300005F0B8FA4419204605F054FA014623464A
:10194000012210E0C5B1284603F01EF805462146E5
:10195000019005F0A7FA4419204605F043FA014624
:1019600023464FF0FF32484615F0E2FB01A81BE08A
:10197000611E484600F02EFA18E0BCB1611E4846D0
:1019800000F028FA484615F04AFE0FE0484602F0FB
:10199000FBFF0090012F12D0012180F85410214646
:1019A000484600F017FA684603F058F8484614F025
:1019B00013F800E001E005F087FBBDE8FC8700219B
:1019C00080F85410EFE7FEB544680546204614F051
:1019D00057FE06462946204612F000FE002837D062
:1019E00028680F2830D004DC0B2832D00E2853D1C1
:1019F0003AE0A0F58070133804D0A0F580702D383F
:101A00004AD110E0204614F069F9204600211AF06E
:101A100018F8204602F0B8FF0190C06F002114F0C2
:101A200034F901A81DE0E86860B1017A29B10168C4
:101A3000204600F0DFF8012100E00221204614F0EA
:101A40006DF829E00321F9E70121204619F0F9FF9B
:101A5000FEBD204602F098FF0090343002F0EAFE0E
:101A6000684602F0FBFF17E0B6B1E868416800295C
:101A700012DD01681B290FD006DC09290CD00A29C8
:101A80000AD00D2904D107E0212905D0222903D04D
:101A90002046FFF70CFFFEBD284613F0FDF9FEBD02
:101AA000F0B587B004460DF1080CD4E90567B0F92C
:101AB0000850408A8CE8E1000020CDE90010B4F91C
:101AC0000C00B4F91060C118B4F90A00B4F90E5052
:101AD000104433462A4600F009F8050002D0618A16
:101AE00000F063F907B02846F0BD00002DE9F04F83
:101AF00085B01F46DDE91254DDE90E6A904689463D
:101B0000834603F0F7FF0DF1040C4AF480501F499F
:101B1000583400968CE813003B46424649465846E6
:101B200013F002F904002AD002F02EFF10220490D4
:101B3000119912F01DFF04981C2215496030FEF720
:101B4000EDFD049A012082F85500681C00D00120A8
:101B500082F88000002D00DC08252DB215870020BA
:101B60005087506304A86D1C02F078FF2946204678
:101B700018F0C3FE18B9204613F0C6F9002405F08A
:101B8000A3FA05B02046BDE8F08F0000C719000891
:101B9000B00202202DE9FC4115460E00044627D074
:101BA000002C25D003F0A6FF204602F0EDFE002712
:101BB00001903770406BB0B102F0E6FE009006F085
:101BC000ADF80146009805F06DF90446681E8442A0
:101BD00000DD0446224630460099FEF718FD6846AF
:101BE00002F03CFF375501A802F038FF05F06CFA0F
:101BF000BDE8FC812DE9F04186B00C46060055D0C9
:101C000003F078FF304602F0BFFE0090406B98B3BF
:101C100002F0BAFE03900098806E04F091FD8046B9
:101C2000304613F00BFC0746039803F0C0FE054650
:101C3000009890F8601001F00301012916D00229E4
:101C40000DD0416EC06A00680844241A641E0398CF
:101C500006F064F80146002C0FDA002115E0781B2D
:101C6000401C00EBD070A4EB6004F0E7406E791BE1
:101C7000081A241A641CEAE713E0AC4205DC0246A9
:101C80002146039805F0EAFF0146304600F0A2F82D
:101C900003A802F0E3FE404604F052FD304613F084
:101CA0009BFE684602F0DAFE05F00EFA06B0BDE8CB
:101CB000F08138B50D4604000ED003F01BFF20461E
:101CC00002F062FE00908566204613F085FE6846AD
:101CD00002F0C4FE05F0F8F938BD2DE9FC4788464E
:101CE0005FEA00094FF0000652D003F003FF4846B8
:101CF00002F04AFE0090B0F93850446B684602F09A
:101D0000ADFE0027B8F1000F44D04CB1204602F0E0
:101D10003BFE0190FEF75CFC461C01A802F09EFE13
:101D2000404605F0FBFF0446A84200DD2C46214654
:101D3000404605F0B7F8451CA91B484618F0CAFFF5
:101D400008B3484602F020FE0090406B02F01CFEF3
:101D50002A4641460190FEF75AFC0198284400F8B3
:101D6000017C0098C464B0F938108C4205D190F819
:101D70005410012901D1641EC46401A802F06EFE52
:101D8000684602F06BFE484613F026FE05F09CF90B
:101D9000BDE8FC87484602F0F7FD0090343002F0C1
:101DA00049FD00984787C764EAE738B50C46050047
:101DB0000FD003F09FFE284602F0E6FD009018B118
:101DC0000466284613F008FE684602F047FE05F058
:101DD0007BF938BD1CB50C4602F0D6FD0090406B77
:101DE000F0B102F0D1FD019005F098FF009991F853
:101DF000542002B10122002C00DA0024844200DDCC
:101E00000446B1F93800801AA04200DA0446C86CD2
:101E1000A04200D0CC640020086501A802F01EFE9C
:101E2000684602F01BFE1CBD70B5B3F5804F05D0AF
:101E30006FF0704140F82210002070BD50F8223041
:101E4000084C2340D1E900458E8944EA05148D6889
:101E500089692D0245EA06452C430C431C4340F892
:101E60002240E9E70000F0CFF0B50C6850F82450AC
:101E70001A4A1540D1E90123D1E903671A433E43C9
:101E800032434E6932438E693243CE6932430E6A21
:101E900032434E6A32438E6A3243CE6A32430E6B0D
:101EA00032438E6B32434E6B32432A43082B01D1AF
:101EB00042F0400240F824200A6BB2F5801F05D1A1
:101EC0000A684AB1026842F4801202600A681AB1D4
:101ED0000268496B0A4302600020F0BD8004C0FF25
:101EE00000EB8202F0B553688E8903F04044D1E9DB
:101EF000003543EA05138D682D0245EA06450E8A32
:101F00002B430D4D05EB065633430E7D6F0107EB5A
:101F1000066633438E693343234353600268D2021B
:101F200007D54268098A22F4700205EB015111437A
:101F300041600020F0BD00000000F0FF30B5D1E9A5
:101F400001230D681A43D1E9033423431A434B6933
:101F50001A438B691A43D1E90734496A012D056890
:101F600007D01A4322430A436FF30E052A43026047
:101F70000AE025F4F845234329430B4341680360F5
:101F80006FF30E010A434260002030BD426942EA0D
:101F90004101416100207047F8B514460546D1E97A
:101FA00000026FF01F0310438A68C96803EB4212F6
:101FB00042EA412108430090286106F017FC0646DA
:101FC00009E0601C07D024B106F010FC801BA04281
:101FD00001D90320F8BDA8698006F2D40020F8BD1D
:101FE000F0B5D1E900346FF00F055B1E2E0105EB53
:101FF000041423438C682F034FEA054C0D8A06EB2B
:1020000004248E8A2343CC68097E4FF07F4E012A38
:1020100007EB05450CEB06560EEB01610CD0826810
:102020003F1107EB043423432B4333430B4302F0AC
:102030007042134383600FE08768084A1740220309
:10204000C468A2F5805232433A4382602B430B436B
:1020500004F070442343C3600020F0BDFF0F0FFF66
:102060002DE9F047044640688EB00027804602F014
:102070008BFC0090B0F87CA0D0F86890D0F880601D
:10208000D0F88850C06D00B10768684602F0E6FCE1
:1020900005E0696820468847002843D12D68002D57
:1020A000F7D12068172853D00CDC0F283DD004DC72
:1020B0000B2877D00D2825D18BE0112810D01428BB
:1020C00020D13BE0262846D004DC1E2851D0202811
:1020D00018D18AE02A2816D0B0F5107F12D128E056
:1020E0004046E56802F050FC0290697A39B9297AD5
:1020F000012904D130F87C1F41F48071018002A8CD
:1021000002F0ACFC75E0404602F03EFC0090E16855
:1021100011B1C0F8841002E0D0F88400E060684695
:1021200002F09CFC0EB0BDE8F087D7B34046B8473C
:102130005FE02146404619F0B9FAF3E705A94046A9
:1021400000F024FBE0680699016007994160E9E727
:10215000C4F80C90E6E7E0680228E3D1CDF83080BF
:10216000E0680D9027200A900AA9A06814F098FC56
:10217000D8E7E068012804D00021404600F0BBFA0F
:10218000D0E7304613F091FC68B1304613F07CFE86
:10219000304613F04DFB98B10121304612F0B2FAEF
:1021A0000EE026E02FE0484613F0C2FE0646404609
:1021B00002F0EAFB0090C0F88060684602F04EFC36
:1021C0000121404600F097FA002EABD10020E060DC
:1021D000A8E75FEA0A700CD4E068C06848B1007AEA
:1021E00038B1404613F050FE03E02146404618F057
:1021F000C5FE2146404612F0F1F9002892D0204653
:1022000012F04AFE8EE7404602F0BEFB00907030AE
:1022100002F010FB684673E7F0B587B0B0F90840EC
:102220000DF10C0C0C9E876945688CE8F000448A1F
:102230000025CDE900150294B0F90C10B0F910504A
:10224000B0F90E40B0F90A00194410442B4622465A
:1022500000F002F807B0F0BD2DE9F04F8BB09846C2
:10226000DDE9155691468A468346149F1A9C03F071
:1022700041FC3348603445F48055CDE90204CDE992
:10228000007543464A465146584612F04DFD04003B
:102290004FD002F079FB30220490179912F068FBBE
:1022A0000498282227493430FEF738FA04981999FF
:1022B000244F4166A0F87C600026C0F88060C666A6
:1022C000083FC0F888607968C16504A802F0C6FBC1
:1022D00005A9204600F05AFA1B4841F28271039684
:1022E0000094CDE90110BDF91E00BDF91A10BDF929
:1022F0001C20431ABDF918005B1C121A521C12F064
:1023000013FD06467868416820468847204602F05B
:102310003BFB0490866604A802F0A0FB42F2040096
:10232000054202D1204612F08AFE2046189900F09C
:10233000F1F904F0C9FE0BB02046BDE8F08F0000B3
:1023400061200008D4020220472900082DE9F0414D
:10235000044694B0006800F0B7F908B1D94D01E027
:10236000D84D2C35606815281ED00CDC0B281FD0EA
:1023700004DC00287ED005287DD12FE10E287BD0FB
:102380001228F9D141E1162806D0172808D01828BC
:1023900008D01C28F0D109E0E86914B0BDE8F0814C
:1023A000286AFAE7686AF8E7A86AF6E76869F4E76E
:1023B00020680B901C200C90206802F0E5FA039036
:1023C000016D0BA88847064603A802F047FB022EC2
:1023D0000FDB95E807008DE80700D4E904023346D7
:1023E000A16905F0D3FA20698719A069A0EB060856
:1023F0002CE0286804F087F92169E8690A18521E60
:10240000606903F0B1F8A269E869111A491C6069B2
:1024100003F0AAF8D4E904077F1C394603F0F4F866
:102420003946A06903F0F0F8686804F06CF9206997
:102430003946401C03F0E8F8A0693946401E03F015
:10244000E3F8A0692769A0F10208BF1C286804F01E
:102450005AF942463946606903F086F8686804F024
:1024600052F9606942463946401C03F07DF8686ABB
:10247000022802E015E1B0E000E10BDDA86804F0FD
:1024800042F961696A6A881C8B18014642463846DF
:102490005B1E27E0296AB14226DD6069022E0746ED
:1024A00000F1020801DB374401E007F1020720696F
:1024B00001DB304401E000F1020022693B460A449E
:1024C0004146A2F1010203F04FF9022E02DBA0699E
:1024D000821B01E0A269921EA069E9693B46401A8D
:1024E0004146401C03F040F9022E02DB60690644BD
:1024F00001E06669B61CE76928687F1E04F003F9ED
:102500003A463146206903F0E5F83A463146A0697B
:1025100003F0E0F8E7696868BF1E04F0F4F820698A
:102520003A463146401C03F0D5F8A0693A46314698
:10253000401E03F0CFF8E869022802DC286A02286E
:1025400023DDA86A022802DDE1690F1A01E0E769CC
:10255000BF1EA86804F0D7F8E969022909DD2069DF
:102560003B46421800F1020C31466046521E03F011
:10257000FBF8286A022808DDA269E8693B46101AC0
:102580003146401C921E03F0EFF8286804F0BBF8B7
:10259000D4E90620216902F0E7FF686804F0B3F887
:1025A000D4E906202169401E491C521E02F0DCFFBE
:1025B000A86A022811DDA1692669E469A1F102086F
:1025C000271AA41EB61C7F1CA86804F09CF823469A
:1025D00042463946304603F0C7F871E0208A00B21F
:1025E000ADF81400A18A09B2ADF81610228B12B210
:1025F000ADF81820A38B1BB2ADF81A302C69ED682A
:10260000CDE9005402F04AFF5AE0208A298B0844A1
:10261000ADF81400A08AADF81600208B298B401A63
:10262000ADF81800A08BADF81A00206802F0ACF9E4
:102630000390006FF0B1022004F0EEF8039890F8D8
:102640007C10C1F3C00100EB8100006C04F05BF86A
:102650000398406B04F074F80398006F02F094F94B
:1026600003990990B1F95A2005A902F0CBFD09A8F8
:1026700002F0F4F903A802F0F1F921E0208AADF8A4
:102680001400A08AADF81600208BADF81800A08BBE
:10269000ADF81A00A86804F036F805A803F090F821
:1026A0000EE0206802F070F9039030F85A1F41F0F4
:1026B0000C01018003A802F0D1F9206813F06AFC34
:1026C00000206AE61005022038B505004FF000042E
:1026D0000FD003F00FFA284602F056F9009090F858
:1026E0007C00000700D50124684602F0B7F904F029
:1026F000EBFC204638BD70B50D46040009D003F050
:10270000F9F92946204619F00DFEBDE8704004F0A5
:10271000DBBC70BD7CB50D4604001DD003F0EAF9AA
:10272000204602F031F90090006F0190684602F0F7
:1027300095F9294601A805F047FC58B1204602F05A
:1027400023F9009001990167684602F087F9204655
:1027500013F042F904F0B8FC7CBD38B50C46050016
:1027600013D003F0C7F9284602F00EF90090B0F933
:102770005A10A14204D0A0F85A40284613F02CF970
:10278000684602F06BF904F09FFC38BD2DE9F34F69
:1027900085B000270C46B846059802F0F5F8009081
:1027A000C06D0121856805982A68904782462A688D
:1027B00003210598904704902A68022105989047C4
:1027C00003902A680021059890470646009813F068
:1027D000D5FD8346009813F0D8FD8146009890F807
:1027E0003210890601D5B0F9588000F036F8054658
:1027F0000098C06E10B112F038FE07462580678041
:10280000A4F804A0049AABEB020006EB0802401EF9
:102810002A4420813A44E280039BA9EB0302521E22
:102820006281A4F80CA020827019E681401E6082AB
:10283000684602F013F9B4F90C000190B4F91000E5
:10284000029002AA01A9059800F03AF80198A08127
:102850000298208207B0BDE8F08F10B50146002035
:1028600091F83220920607D5B1F95400002803D11F
:10287000486B03F0C7F8801C10BD70B58AB00C46D9
:10288000054602F081F80990C06D866809A802F03B
:10289000E5F8009534B1012C06D0022C0BD0032CA6
:1028A00004D10AE0182000E0162001907168684603
:1028B00088470AB070BD1520F7E71720F5E700003C
:1028C0002DE9FC4117468846044602F05DF8009069
:1028D000C16D056868468E6802F0C0F83268002154
:1028E000204690470646204612F06FFC27E000BFC6
:1028F00002F04AF80190B0F900102AB2B0F90430A1
:10290000891A9A1AB0F90230A3EB2543B34210D1C9
:1029100090F82800000605D53868884209DB491E72
:10292000396006E0D8F80000904202DC521CC8F87A
:10293000002001A802F092F8204612F0EBFC0400FF
:10294000D6D1BDE8FC812DE9F0430446406889B04A
:10295000054612F0FDFC814602F016F80290D0F810
:102960004880D0F88070466E02A802F077F82068A0
:10297000172853D008DC0E283AD00F2811D014287D
:102980004CD015283DD149E01E281ED01F282AD042
:10299000222840D0312834D10020E06009B0BDE8C1
:1029A000F0836FF070414046884503D008F092FEF6
:1029B00002F0C0F9002EF1D0D4E902122068CDE96E
:1029C0000405CDE9061204A81FE0E0680028E5D060
:1029D0002FB1AF4203D0384613F056FADEE728464F
:1029E00013F0A6FADAE72146484611F0F7FDD5E7DD
:1029F000E0684168002904DD00680928EFD00A2852
:102A000005D05EB12046C4F80490B047C6E728461A
:102A100013F09DFAC2E7C4F80C80BFE7204612F01D
:102A20003BFABBE770B54D4888B0016841F008013A
:102A30000160016801F008010791016841F004019B
:102A40000160006802A9002400F00400079001263C
:102A50004FF4006081E8510003200590404805F0E4
:102A6000C9FD7502CDE902563E4E02A9304605F079
:102A7000C1FDFEF7F1FC00222946304605F0B1FE0B
:102A800014201BF049FF01222946304605F0A9FE1B
:102A900032201BF041FF02226946A1208DF8004040
:102AA00000F070F89DF80010302903D19DF8010066
:102AB000032831D09DF8010001282DD002282BD009
:102AC0000422694648F2401001F00CF826A069463D
:102AD0008DF80440FDF75AFC264848F2400500995D
:102AE0000122C0F80210022069468DF80000284635
:102AF00001F04EF901226946E81D00F0F3FF0A20BB
:102B00001BF00AFF0122694628468DF8004001F0BB
:102B10003FF908B0002070BDC0B200EB012116A043
:102B2000FDF734FC01226946002000F079F901220A
:102B30006946A42000F074F91620694601228DF838
:102B40000000802000F06CF90C20694601228DF80D
:102B50000000882000F064F9DBE700003038024014
:102B6000000C0240000802404354502049443A25DA
:102B7000730D0A00600002204354502049443A2556
:102B8000780D0A002DE9F04115460F460446FEF780
:102B900041FD7020FEF7FCFCFEF790FDE0B2FEF771
:102BA000F7FCFEF78BFDFEF735FD7120FEF7F0FC1C
:102BB000FEF784FD00246E1E09E0B44201D001201E
:102BC00000E00020FEF7A6FC3855641CE4B2AC42DD
:102BD000F3D3BDE8F041FEF74BBD00002DE9F1470E
:102BE0008A4D83B000274FF00A0A894CB8468DF809
:102BF00004706878401CC0B26870B0FBFAF20AFB3F
:102C0000120109B10A2870D2804882A1801CFDF708
:102C1000E7FD03A94FF0010208B30220FFF7B2FF5E
:102C20009DF80C00010760D000F00F012878814268
:102C30005BD8FF2294F8209004EB40008A40D143F7
:102C400041F0C00184F82010A1894181E18A81828C
:102C500004201BF061FE704E8DF8047085E048F290
:102C60004E16304600F03EFF9DF80C000106D7D509
:102C7000297800F00F008842D2D80122304601A9FD
:102C80008DF8047001F084F8CAE7012294F820104E
:102C90008240114264D05D485EA1801CFDF7A0FD1A
:102CA00020B35E4804229DF8041030F811006946F4
:102CB000FFF768FF94F830009DF80010C0079DF8FA
:102CC000010001F00F0139D000EB01219DF8040053
:102CD00004EB4000C1829DF802209DF8031002F031
:102CE0000F0201EB022181813AE058E04B480422B7
:102CF0009DF804100A3030F81100694600F0F2FE29
:102D000094F830009DF80110C0079DF8000000EB1A
:102D100001219DF8040004EB400005D081819DF85D
:102D200002109DF8032018E0C1829DF803209DF851
:102D3000021001EB02213288511AD4E700EB012086
:102D40003188091A9DF8040004EB400081819DF848
:102D500002209DF8031002F00F0201EB0221C18254
:102D60009DF80400401C8DF804009DF804002978AB
:102D700088428AD3A0894FF001083188884203D85D
:102D8000E08A7188884209D99DF80C0000F00F0094
:102D9000012812D9E089A081208BE0826F701DA1EB
:102DA0001A48801CFDF71CFD00289DF80C004FF60A
:102DB000FF710FD0C00624D01AE0287804EB400041
:102DC0004189A181808AE08280208DF80C0084F8FE
:102DD0002090E4E700F08F00802812D008E020F077
:102DE000800003E0A18100F0E000E18284F820008F
:102DF0006878F02801D985F801A004B04046BDE804
:102E0000F08794F820000206ECD5E8E76000022085
:102E10002C00022039313100001A02205C350208F2
:102E20002DE9F041002715460E460446FEF7F2FB59
:102E30007020FEF7ADFBFEF741FCE0B2FEF7A8FB09
:102E4000FEF73CFC002408E0305DFEF7A1FBFEF736
:102E500035FC070003D1641CE4B2AC42F4D3FEF7A6
:102E600007FC3846BDE8F0811CB50024019401AC94
:102E7000009400F0E7F81CBD2DE9FF4F83B08146B8
:102E800006988A46A0EB0A08109E00200090A2EB4C
:102E900009043568934654EA080018D02046FDF727
:102EA000A7FF07464046FDF7A3FF87420BDA2046FF
:102EB000444680464846D14682465846DDF818B01A
:102EC000069001200090002C07DD204606E007B0A8
:102ED0004846BDE8F04F00F03BB96042A0420AD03E
:102EE0004846D9466442C8F1000883464FF0FF3790
:102EF000DDF818A000E001275148B8F1000F11D00B
:102F000004EBD4714FEA610B01DACBF1000B4C48B2
:102F10000068807E88B3002F02DA30682044306079
:102F200000257BE000990029016821D0897E11B13C
:102F30000027804615E007B05A4649465046BDE88E
:102F4000F04F07F077BE28466D1C19F0C7FA38B964
:102F5000D8F8000009EB0701406E426850469047E0
:102F60007F1CA742EFDD6D1E356007B0BDE8F08F16
:102F70008A7E1AB10027804617E019E0486E5A464B
:102F80005146036807B04846BDE8F04F1847284649
:102F90006D1C19F0A3FA38B9D8F8001009EB070036
:102FA000496E4A68514690477F1CA742EFDDDAE739
:102FB00000250FE008FB05B090FBF4F101EB0A00DF
:102FC000009951B11E4A09EB05011268526E526810
:102FD00090476D1CA542EDDDC7E7194909EB0503D4
:102FE0000968496E4A6801461846F1E708FB05B0D2
:102FF00090FBF4F101EB0A00019030683844306036
:1030000019F06CFA48B9009890B10D4809EB050128
:103010000068406E4268019890476D1CA542E5DD4E
:103020003068002F01DA20443060C01B30609CE71C
:10303000034909EB05000968496E4A680199EBE705
:10304000F00102202DE9FF470F4640491646804611
:1030500009680C981D460A7E012A1CD0A8EB0600C0
:10306000791B50EA01031CD0A2F101091AF0A8FB58
:1030700000F58060824605F096F800FB09F45046A2
:1030800005F096F800FB09F1002C0CDAC4F500708D
:10309000801240420AE00090324639464046FFF72F
:1030A000EBFEBDE8FF8704F50074A012002904DAE6
:1030B000C1F5007189124C4202E001F500718C12D9
:1030C000002804DD411C01EBD171491003E000EB45
:1030D000D0714910401E00EBD0704210002C04DD6E
:1030E000601C00EBD070401003E004EBD470401083
:1030F000641E04EBD47308EB0104ADF800403C18E7
:10310000ADF80240A8EB02045B10B21AADF804401F
:10311000ADF808203144FC1AEA1AADF80C10284426
:10312000ADF80A20ADF80E000023ADF806401A46AF
:103130000421684600F07AF83946404616F0FAF85D
:103140002946304616F0F6F8ABE70000F001022001
:10315000064A13681A7E012A05D0521E02EBD2726B
:10316000521000F005B85A6E52681047F001022064
:103170002DE9F05F0646884640F2C32002FB00F1CD
:103180004FF47A7091FBF0F702FB02F102EBD27080
:1031900001EB600B1446B118234A301B7F1C1268E8
:1031A000526E13680A4641469847012538E000BF31
:1031B00005FB05F004FB040159451CDDBC4219DD8B
:1031C000194B06EB050AA6EB05091B68AAF10102DB
:1031D00008EB04015B6E09F101001B689847124B74
:1031E000AAF10102A8EB04011B6809F101005B6E62
:1031F0001B689847641E0C4B3219301B1B689246A3
:1032000008EB05015B6E81461B689847064B5246EA
:10321000A8EB05011B6848465B6E1B6898476D1C50
:10322000BD42C5DDBDE8F09FF00102202DE9FF4F52
:1032300043F6FF740F46664283B09B4681460021E9
:103240000BE000BF09EB8100B0F90200A04200DAF8
:103250000446B04200DD0646491CB942F2DB67482D
:103260000068406900280DD0B0F906101A46A1EB9D
:103270000B01B14200DA0E46B0F90200801AA042FA
:1032800000DD0446B4E0DFF878A100200546CAF866
:10329000000088E0781E854201DA6B1C00E0002304
:1032A00009EB850C09EB8302BCF90200B2F90210AC
:1032B000A04244D1A14215D139F92330059A39F9F8
:1032C000251003EB020C4D4A05981268084404EBE4
:1032D0000B01526E6045136801DA62462AE002462D
:1032E000604627E02846A4464FF000087A1E0BE00F
:1032F00008B1401E00E0781E09EB8003B3F90230EC
:10330000634504D108F101089045F1DB2346A3424F
:1033100048D01A1B39F92500A1EB040C059B92EA51
:103320000C0F09D4354A184404EB0B011268526E95
:1033300013680246984735E013F0A8FC32E0A1423A
:1033400030D001DBA04203DDA0422BDBA14229DC0F
:10335000E04688420ADC0346A04223DC0846A1423C
:1033600020DBB8F900C0B2F9001008E00B46A1421A
:1033700018DCA04216DBB2F900C0B8F90010E21A5E
:10338000A1EB0C0151430029A0EB030202DD01EB8C
:10339000620102E0A1EB6201491CC01A91FBF0F04E
:1033A0006044C9E76D1CBD42FFF674AF05980090FC
:1033B00004EB0B00019000208046054613E0114904
:1033C000B8F1000F31F915A009D0009901EB0A02FC
:1033D00008440A490968496E0B680199984788F0C2
:1033E000010850466D1C064909688D42E7DB641CE4
:1033F000B4427FF748AF07B0BDE8F08FF00102207C
:1034000038060220DCDE042010B5002003F070F93D
:103410006FF07F4003F077F9012003F0DFF900201F
:1034200003F0EAF9002003F0F7F9002003F07CF93B
:103430000448006803F084F9BDE81040002003F060
:103440009FB90000EC01022033B583B004001BD00B
:1034500002F050FB204601F097FA0190456E01A85A
:1034600001F0FCFA049801F08FFA0090846068463D
:1034700001F0F4FA042204A9284601F013FB2046C7
:1034800012F0AAFA03F020FE05B030BD33B583B0C8
:1034900004001BD002F02EFB204601F075FA0190CB
:1034A000856E01A801F0DAFA049801F06DFA009037
:1034B0008460684601F0D2FA042204A9284601F08B
:1034C000F1FA204612F088FA03F0FEFD05B030BD97
:1034D0002DE9F04104460025D4E90007B0F5407F0E
:1034E00000D101252146384611F078F8064615B17D
:1034F000384617F064FC002E2FD02068052806D02F
:103500000B280ED00F2806D0262821D10EE03846F1
:1035100017F055FC1CE03846E168BDE8F04117F0B3
:1035200031BE3846BDE8F04117F057BDE0680528C8
:103530000ED1384611F03EFFA168884205D03846CA
:1035400011F028FFA168884202D1606818F05FF886
:103550002046BDE8F04111F09FBCBDE8F081F0B518
:1035600085B0B0F90850468A84690296CDE90354C3
:103570000027CDE90017B0F90C10B0F91050B0F9E0
:103580000E40B0F90A00194410442B46224600F0C0
:1035900003F805B0F0BD00002DE9F04F85B0984666
:1035A000DDE90E5691468A468346109F129C02F032
:1035B000A1FA18486C34CDE90204CDE9005643461F
:1035C0004A465146584611F0AFFB04001BD001F0AB
:1035D000A6FA054601F0A3FA0646204601F0D4F902
:1035E0000490C0E919560022119911F0C1F904980C
:1035F000302209493430FDF791F80498A0F878702A
:1036000004A801F02BFA03F05FFD05B02046BDE8E9
:10361000F08F0000D1340008FC02022013B582B004
:10362000044602F067FA204601F0AEF9009060B15E
:10363000406A01F0A9F901460190022303AA00980B
:1036400000F045F901A801F009FA684601F006FA10
:1036500003F03AFD1FBD00002DE9F04385B01D4683
:1036600090460F46814602F045FA2C2001F099F869
:10367000060024D0780001F094F804000ED0B8F1D0
:10368000000F0BD055B1204601F07EF96A0041468B
:103690000090FCF7BCFF684601F0E0F9304601F00D
:1036A00073F90A49029000F10C02446282E8A20216
:1036B000074901600749416002A801F0CFF903F012
:1036C00003FD05B03046BDE8F08300006DAC010895
:1036D0002FB301086BB001082DE9F8439846154651
:1036E0000E46074602F006FA302001F05AF80400B0
:1036F00015D001F049F90090C0E9057685840A4AA1
:10370000B7EE000AC0F81C8080ED0A0AD2E9001268
:10371000C0E9031205490160684601F09FF903F012
:10372000D3FC2046BDE8F8832C03022007B401082F
:1037300010B504002DED028B82B09FED118AF0EEE2
:10374000408A16D002F0D6F9204601F01DF900900B
:1037500090ED0A8AB4EE688AF1EE10FA04D0C0ED5A
:103760000A8A806812F038F9684601F077F903F0A8
:10377000ABFC02B0B0EE480ABDEC028B10BD0000FD
:1037800000000000F8B50D4606004FF0000411D00F
:1037900002F0B0F9304601F0F7F80090046AAC424C
:1037A00003D00562806812F017F9684601F056F9F7
:1037B00003F08AFC2046F8BDF8B50D4606004FF030
:1037C000000411D002F096F9304601F0DDF80090C7
:1037D000C468AC4203D0C560806812F0FDF868464A
:1037E00001F03CF903F070FC2046F8BD2DE9F843E8
:1037F0001D46DDF8208016460F46040015D002F065
:1038000079F9204601F0C0F80090C0F86080476563
:10381000C0E91665684601F021F9204617F0CFFA95
:10382000204612F0D9F803F04FFCBDE8F883F8B554
:103830000D4606004FF0000411D002F05BF930464F
:1038400001F0A2F80090446CAC4203D045643046CD
:1038500012F0C2F8684601F001F903F035FC204689
:10386000F8BDF8B50D4606004FF0000411D002F087
:1038700041F9304601F088F80090846CAC4203D0E6
:103880008564304612F0A8F8684601F0E7F803F0C6
:103890001BFC2046F8BDF8B50D4606004FF00004AD
:1038A00013D002F027F9304601F06EF8009090F83E
:1038B0006C40AC4204D080F86C50304612F08CF86A
:1038C000684601F0CBF803F0FFFB2046F8BD2DE978
:1038D000F041044680681D4617460E46002826D053
:1038E000D4E9040290420ED1521E6A437119304647
:1038F000FCF7D2FE20692A46401E05FB00603946CF
:10390000FCF7CAFE0EE005FB0013401C20612A46AE
:1039100039461846FCF7C0FEE16819B12046BDE8FB
:10392000F0410847A068BDE8F04100F002B8BDE8EA
:10393000F08110B58AB0044601F026F809A904AA5E
:10394000CDE9002105AB089006AA07A916F0C5FE2F
:1039500008A801F083F802A9204611F089FCBDF8FF
:10396000080007990844ADF80800BDF80A00069958
:103970000844ADF80A00BDF80C000599401AADF8EE
:103980000C00BDF80E000499401AADF80E0002A913
:10399000204611F0E1FF0AB010BD00002DE9F04310
:1039A000424889B0016841F008010160016801F0F6
:1039B00008010791016841F004010160006801AA53
:1039C000DFF8EC90002400F004000790012669461F
:1039D000032748464FF40065009582E8D00004F0C4
:1039E00009FE4FF400786946CDE90086314E304635
:1039F00004F000FEFDF730FD00224146304604F0A1
:103A0000F0FE0A201AF088FF01224146304604F0F9
:103A1000E8FE0A201AF080FFCDE90054CDE9024704
:103A20006946484604F0E6FD64201AF075FF04225A
:103A300048F2401005A900F055F805A98DF8184086
:103A40001DA0FCF7A3FC1FA105A8FCF7C9FE40BB05
:103A5000022048F2400501228DF8140005A92846ED
:103A600000F096F90122E81D05A900F03BF89DF849
:103A7000141060290BD215A0FCF788FC1848808828
:103A8000A0F5AA41103902D1012000F05BF90A200B
:103A90001AF042FF0122284605A98DF8144000F0D3
:103AA00077F909B00020BDE8F0830000303802400B
:103AB000000C0240000802404354502049443A257B
:103AC000730D0A0039313437000000004465666127
:103AD000756C74205665723A25640D0A000000006A
:103AE000001A02202DE9F04115460F460446FDF765
:103AF00091FD2820FDF74CFDFDF7E0FD200AFDF7C4
:103B000047FDFDF7DBFDE0B2FDF742FDFDF7D6FD19
:103B1000FDF780FD2920FDF73BFDFDF7CFFD0024DB
:103B20006E1E09E0B44201D0012000E00020FDF744
:103B3000F1FC3855641CE4B2AC42F3D3BDE8F0416B
:103B4000FDF796BD2DE9F14F7A4E00244FF00A0B98
:103B5000794D82B0A1463078401CC0B23070B0FBC5
:103B6000FBF20BFB120109B10A2878D248F24E177A
:103B70000122384602A9FFF7B5FF9DF808004FF073
:103B8000000801060AD500F00F00062806D201221F
:103B9000384601A98DF8048000F0FAF89DF8080075
:103BA00001075CD000F00F01062958D2FF20634FB7
:103BB0004FF0010988408DF80400C04395F820A01B
:103BC00040F0C00085F82000A889A882E88AE88330
:103BD00095F8201009FA04F0014268D058480422F0
:103BE000694630F81400FFF77DFFB888A0F5AA41B8
:103BF000103908D0A0F5864142391AD0A0F5864187
:103C000084392DD053E095F83000C0072CD09DF8B2
:103C100001109DF8000000EB012105EB4400C1827A
:103C20009DF803209DF8021001EB0221C1F54871B7
:103C30003CE095F83000C00716D19DF801109DF8C2
:103C4000000000EB012105EB4400C1829DF8032038
:103C50009DF8021001EB0221C1F5887126E041E0D8
:103C600095F83000C00710D09DF801109DF80000B5
:103C700000EB012105EB440081819DF803209DF8B4
:103C8000021001EB0221C18211E09DF801109DF8A4
:103C9000000000EB012105EB4400C1829DF80320E8
:103CA0009DF8021001EB0221C1F5F0718181641CC5
:103CB000E4B2052C8CD3A9894FF001093A88284633
:103CC000914203D8C18A7A88914209D99DF8081097
:103CD00001F00F0101290CD9C1898181018BE98291
:103CE00086F800809DF8080000F08F0080280AD038
:103CF00018E0818A8181C18BC18280218DF80810F2
:103D000085F820A0EEE795F82000010602D520F006
:103D1000800005E04FF6FF71A98100F0E000E98224
:103D200085F820003078F02801D986F800B04846A0
:103D3000BDE8FE8F670002202C000220001A02203E
:103D40002836020808B500218DF800108DF8010012
:103D50000E489DF80020435C491CC9B2B8291A449A
:103D60008DF80020F5D3D0B20849C043401C8DF82F
:103D70000000B82248F2470000F00AF80222694623
:103D800048F2FF0000F004F8002008BD703502087A
:103D90002DE9F041002715460E460446FDF73AFC92
:103DA0002820FDF7F5FBFDF789FC200AFDF7F0FB65
:103DB000FDF784FCE0B2FDF7EBFBFDF77FFC002490
:103DC00008E0305DFDF7E4FBFDF778FC070003D168
:103DD000641CE4B2AC42F4D3FDF74AFC3846BDE8BB
:103DE000F08100002DE9F043404889B0016841F0BE
:103DF00008010160016801F008010791016841F0C4
:103E000004010160006801AADFF8E490002400F0DA
:103E10000400079001266946032748464FF40065D1
:103E2000009582E8D00004F0E5FB4FF40078694685
:103E3000CDE900862F4E304604F0DCFBFDF70CFB8D
:103E400000224146304604F0CCFC0A201AF064FD02
:103E500001224146304604F0C4FC0A201AF05CFD01
:103E6000CDE90054CDE902476946484604F0C2FB5B
:103E700064201AF051FD042248F2401005A900F018
:103E800051F805A98DF818401BA0FCF77FFA1EA178
:103E900005A8FCF7A5FC18B1012009B0BDE8F08326
:103EA000022048F2400501228DF8140005A9284699
:103EB000FFF76EFF0122E81D05A9FFF713FE9DF82D
:103EC0001410412905D212A0FCF760FA012000F07D
:103ED0002FF90A201AF020FD0122284605A98DF8A5
:103EE0001440FFF755FF0020D7E7000030380240AC
:103EF000000C0240000802404354502049443A2537
:103F0000730D0A0D0A00000039323731000000003D
:103F100044656661756C74205665723A25640D0AB5
:103F2000000000002DE9F04115460F460446FDF75C
:103F300071FB2820FDF72CFBFDF7C0FB200AFDF7E5
:103F400027FBFDF7BBFBE0B2FDF722FBFDF7B6FB5D
:103F5000FDF760FB2920FDF71BFBFDF7AFFB0024FD
:103F60006E1E09E0B44201D0012000E00020FDF700
:103F7000D1FA3855641CE4B2AC42F3D3BDE8F04149
:103F8000FDF776BB2DE9F14783B000258DF8005091
:103F90004FF00A0A624C2F46624E4FF6FF792078A6
:103FA000401CC0B22070B0FBFAF20AFB120109B14A
:103FB0000A287DD248F24E180122404603A9FFF795
:103FC000B1FF9DF80C0001060AD500F00F000B2888
:103FD00006D28DF8005001226946404600F0CEF826
:103FE0009DF80C00010771D000F00F000B286DD276
:103FF00009FA00F196F82080C84340F0C00086F826
:104000002000B089F083F08A30858DF8005042E0BE
:1040100096F820009DF8002001219140084235D0FB
:1040200041499DF80000062231F8100001A9FFF770
:1040300079FF96F830009DF80710C0079DF806003C
:1040400000EB012010D09DF8001006EB4101C88262
:104050009DF805009DF8041001EB00209DF800106C
:1040600006EB4101888111E09DF80010C0F5487011
:1040700006EB410188819DF805109DF8040000EBD6
:1040800001209DF8001006EB4101C8829DF8000058
:10409000401C8DF800009DF800000A28B8D3234882
:1040A0000127B1890288914205D8F18A408800E051
:1040B0000CE0814209D99DF80C0000F00F000128A6
:1040C0000BD9F089B081308BF08225709DF80C00FF
:1040D00000F08F0080280AD018E0F08BB081308D7E
:1040E000F08280208DF80C0086F82080EEE796F8AC
:1040F0002000010604D520F0800086F8200005E0AD
:10410000A6F80C90A6F8169086F820502078F02893
:1041100001D984F800A004B03846BDE8F08700005B
:10412000690002202C000220F6360208001A022044
:1041300008B500218DF800108DF801000E489DF89B
:104140000020435C491CC9B2B8291A448DF80020EC
:10415000F5D3D0B20849C043401C8DF80000BA2204
:1041600048F2470000F00AF80222694648F2FF00D0
:1041700000F004F8002008BD3C3602082DE9F041AB
:10418000002715460E460446FDF744FA2820FDF7A1
:10419000FFF9FDF793FA200AFDF7FAF9FDF78EFA19
:1041A000E0B2FDF7F5F9FDF789FA002408E0305D8B
:1041B000FDF7EEF9FDF782FA070003D1641CE4B2C3
:1041C000AC42F4D3FDF754FA3846BDE8F081000064
:1041D0002DE9F04FDFF828B191B04FF0FF35DBF853
:1041E0000030B3F922100691DE69B3F92490F46926
:1041F000A189814206D8E289824203D3471AD4F8C2
:10420000008012E0D4E9018100296FD00A8882423F
:104210006CD84D88854269D3801A82B2486800EB19
:104220008200B0F90070B0F90250781C5ED0307E88
:10423000A17C10FB01FA217CCDE90701B3F92A60CA
:10424000304607F01BFBC0B20E90DBF8000007FB06
:104250000A81A37C826B0127CDE90412CDE90273A8
:10426000C069089AC17E807ECDE90001DDE90603C0
:10427000494606F019FB681C18D046F0020007F00A
:10428000FDFADBF80000A37C05FB0A81826BCDE917
:104290000273CDE90412C069089AC17E807ECDE91F
:1042A0000001DDE90603494606F0FEFADBF80000EE
:1042B0005D46C069417E007E814214D9022E12D033
:1042C00086F0040007F0DAFA2868C069027EC37E2F
:1042D00012FB0391437E857E089A06984B4412FB9D
:1042E000050206F0DBFD0E9807F0C8FADBF80000C7
:1042F000627C418C1144418411B0BDE8F08F000014
:10430000F001022004480068C069C06909B1027C5C
:104310000A60407C70470000F00102200220088003
:104320007047C06982898A4202D8C2898A4210D203
:10433000806880B102888A420DD843888B420AD3B4
:10434000406800EB8100A0EB8200B0F9000000287B
:1043500001DB012070470020704700002DE9F04389
:10436000304C034687B020681946B0F92A60C0690E
:10437000C06900F08EF9002850D041680088181AF2
:1043800001EBC0053046AF7807F078FA8146206827
:104390006A680123816BCDE90237CDE90421C16947
:1043A000CB7E8A7ECDE900230B7EB0F924102A78DB
:1043B000B0F9220006F078FA2068C069417E027EDA
:1043C00091421FD9C07E11FB00F812FB00F7022EAC
:1043D00018D001F090FA064601F056FA02F093F96F
:1043E00021682A78CB69B1F92200DB7E12FB030237
:1043F000B1F9241001EB0803394406F04FFD3046B3
:1044000002F081F9484607F039FA20686A78C369F2
:10441000B0F922109B7E12FB0311418407B0BDE866
:10442000F0830000F0010220F0B5244D044687B06F
:1044300028682146B0F92A30C069C06900F0F0F858
:104440001F49097809B143F00203002834D04168BC
:104450000088201A00EB400001EB80042078C01D8A
:10446000C608184607F00AFA07462868A26801231A
:10447000816BCDE90236CDE90421C169CA7E897E0E
:10448000CDE90012B0F9241094F90320B0F922000C
:10449000114494F9022063781044227806F004FA5B
:1044A000384607F0EBF928682279C369B0F9221081
:1044B0009B7E12FB0311418407B0F0BDF001022086
:1044C0003402022030B5104C05460B4620682946C0
:1044D000C069C06900F0A4F8002814D041680088C1
:1044E0002468281A00EB40020420E46900EB8200F3
:1044F000085CA47E10FB04F0002B04D011F82210FD
:1045000011FB04F1196030BDF001022003460C4894
:1045100010B500680C461946C069C06900F080F803
:1045200058B141680088181A00EB400001EB800088
:1045300007C884E80700002010BD012010BD00005E
:10454000F001022001200880704700B5C06900F02A
:1045500067F8002800D0012000BD00002DE9F341DC
:104560001C4E0F46002530682C46C069417EC07E37
:1045700011FB00F81DE0684602F068FC0546306853
:104580002946C069C06900F04BF890B141680088C5
:10459000281A00EB400001EB800090F9021000792E
:1045A00008443168C969897E10FB01F0002800DDEC
:1045B00004447F1EDFD51DB1284603F0CBFB044425
:1045C0004146204612F0D8FD034901200870BDE89D
:1045D000FC810000F0010220340202202DE9F341A9
:1045E0000D4D0E4F0E462868B0F92A40A0070AD19B
:1045F0007A680098904706E0684602F027FC296830
:10460000C96909688847761EF6D500203870286881
:104610004485BDE8FC810000F00102203402022044
:1046200006E002888A4202D842888A4202D2806822
:104630000028F6D17047000030B50F4C05460B46F8
:1046400020682946C069C06900F023F8002812D00C
:104650004168008824682A1A0120E46900EBC2003E
:10466000085CA47E10FB04F0002B04D011F832107B
:1046700011FB04F1196030BDF00102200120088017
:10468000704700B5C06900F004F8002800D0012090
:1046900000BD06E002888A4202D842888A4202D2DD
:1046A00080680028F6D1704770B50025124C19E0DB
:1046B00020691249C5EB051600EBC6007022096897
:1046C000001DFCF72BF82069002140F8361000EBA4
:1046D000C60000F10C018161011D0A1DC0E90F1225
:1046E0006D1C4164A0688542E2DB01F003FABDE87D
:1046F000704002F0E9BC000024040220F001022016
:1047000070B50F490D480860084603F055FC0C4C85
:10471000143CA068C0EB0010C500284600F0A6F8C5
:104720002A460021206103F0C0FC4FF0FF302060DA
:1047300002F030FDBDE8704016F03AB825B101082E
:1047400038040220F8B50C0005460FD001F0D2F96C
:10475000204600F017F8060010D000F015F92246A8
:1047600000902DB12946FBF752FF04E00020F8BD70
:10477000002103F09AFC684600F070F902F0A4FCF6
:104780003046F8BD10B5040009D001F0B3F9204659
:1047900012F0E0FA044602F097FC204610BD00201B
:1047A00010BD38B5054601F0A5F92846FFF7EAFF28
:1047B000040009D000F0E8F82A460021009003F038
:1047C00074FC684600F04AF902F07EFC204638BDD1
:1047D000024A106021F003005060704770DD042031
:1047E00010B5040016D001F085F90B48406B10F8A5
:1047F000341059B1022909D2042101EBC4014158F6
:10480000486812F05FFA204617F06EFCBDE81040D1
:1048100002F05ABC10BD0000B0DC0420002805D016
:10482000034AD16B016001B14860D063704700005A
:10483000B0DC042010B5044601F05CF92068FFF7F5
:10484000CFFF00202060BDE8104002F03DBC00001A
:1048500070B50D460646002405E000BF06EB840057
:10486000FFF7E8FF641CAC42F8DB70BD2DE9F041B6
:10487000044616F00BF92848E41C24F00305016CEB
:104880002D1DA94200D90D46C46B13E054F8042C29
:10489000AA420ED184B1216809B162684A60616898
:1048A00009B122680A60C26BA24231D12168C1639A
:1048B0002EE02468002CE9D18046816BC0680F1877
:1048C00057F8040C3E1A306838B1002017F076FC17
:1048D00057F8040C3E1A3068D0B97068A84217DB4C
:1048E0003044441B3046241D17F020FCD8F80C102F
:1048F000491BC8F80C10D8F814102944C8F8141033
:104900007068401B02D0314612F0DCF944F8045CB8
:104910002046BDE8F0810000B0DC042010B5002482
:1049200016F0B4F80C490F2001EBC002526C1AB11A
:1049300001EBC000406C08E0401EF5D508E041687E
:10494000A14200D90C46806810B180680028F6D1D9
:10495000A4F10C0010BD0000B0DC0420002138B12F
:104960000449042202EBC000496B085841680C3925
:1049700008467047B0DC042002488169491C816107
:1049800070470000B0DC04200549CA69521CCA61A6
:10499000496B01EBC0010A78521C0A7000F076B82E
:1049A000B0DC04207CB506460C460846FFF7EAFE5C
:1049B000050020D0FEB13046FFF7D0FFA04200DA5C
:1049C000044601F097F82846FFF7DEFF00903046D6
:1049D000FFF7DAFF0146019022460098FBF717FE29
:1049E000684600F03BF801A800F038F83046FFF7C1
:1049F000F7FE02F069FB28467CBD000010B501F00F
:104A000079F8FFF78BFF64220849B0F5800F04D9CD
:104A100090FBF2F4086A444303E0096A4143B1FBA6
:104A2000F2F402F051FB204610BD0000B0DC04207F
:104A30000549102805D94A68B0EB520F02D3500837
:104A400000E010208860704770DD04200248816912
:104A5000491E816170470000B0DC04200A490268E9
:104A60004B6B52F8082C03EBC2021378022B03D3D2
:104A7000CB690BB15B1ECB611178491E117000210F
:104A80000160084670470000B0DC0420002806D012
:104A90000349042202EBC000496B085808307047F4
:104AA000B0DC04202DE9FC414FF000060B465FEA24
:104AB000000834462BD032B111461846FFF742FEAB
:104AC000060000D101244046FFF75EFF00900788F2
:104AD00045686846FFF7C2FFCCB9B9002846091DF2
:104AE000FFF760FF050015D0FFF74EFF019040F87B
:104AF000276001A8FFF7B2FF4046FFF745FF00908F
:104B000045600188491C01806846FFF7A7FF2046E1
:104B1000BDE8FC813046FFF763FE0124F7E708207B
:104B2000FFF73FBE7CB5050023D0FFF72DFF0090B7
:104B30004068C0B1FFF728FF0024019005E001980C
:104B400000EB8400FFF776FE641C00980088A0420A
:104B5000F5DC01A8FFF782FF0098001DFFF76AFE51
:104B60000099002008806846FFF778FF2846FFF785
:104B700037FE7CBD38B5002430B1FFF705FF00904B
:104B800004886846FFF76AFF204638BD38B50D46F1
:104B9000002448B1FFF7F8FE2946009000F006F81F
:104BA00004466846FFF75AFF204638BD38B50D4623
:104BB00001880024A94209D9406838B1FFF7E4FE12
:104BC000009050F825406846FFF748FF204638BD62
:104BD000F0B52D271C68B0F1004F08D00026002842
:104BE0000DDA651C1D6027704042012408E0651C39
:104BF00001261D606FF000402770491E01E000246F
:104C0000091BC9B22AB3491EC9B222E00C46491E8B
:104C1000C9B2944205D1124C27781C68651C1D60EE
:104C20002770104C54F8215090FBF5F4E4B20A2C94
:104C300011D804FB150011B90EB1641CE4B20A2CA2
:104C400002D10124491CC9B21D686F1C30341F6099
:104C50002C700029DAD1196800200870F0BD00001E
:104C6000E4010220C063020810B5002807DD0A68CD
:104C70002B24531C0B601470096800220A7010BDAD
:104C800070B514460D46064600F034FF204600F08D
:104C90003FFE0300174804EB840109D050F82100BF
:104CA00041688068711A2A1A184601F059FD1CE003
:104CB00000EB8104A268B24201D0012200E0002290
:104CC000E368AB4201D0012300E000231A430CD07B
:104CD000236943B150F82100816840686A1A311A8B
:104CE000184601F0C1FCC4E90265BDE8704002F05D
:104CF000EBB90000B4DE042010B5C2B2CBB2D21AB8
:104D000000D5524293B25B43C0F30722C1F307249C
:104D1000121B00D55242000C92B2A0EB114002FBD4
:104D2000023200B2002801DA404200B280B200FB39
:104D3000002010BD10B50021084600F079FE43F6B2
:104D4000FF725042BDE8104013460146AFF30080A9
:104D50002DE9FC411C4615460E46074600F0CAFEEA
:104D6000042006F08BFD80461248C068C16C006DBF
:104D70000F4406440D440444ADF80070ADF80450EF
:104D8000ADF80260ADF80640684611F005FB07E09B
:104D900023462A463146384606F080F811F0B0FA2C
:104DA0000028F5D1404606F069FD02F08DF9BDE816
:104DB000FC810000E4010220B0F90630B0F90420C3
:104DC000B0F90210B0F90000FFF7C2BF2DE9F843B7
:104DD0001C00DDE9089816460F46054602D110F082
:104DE000CDF9044600962E6843464A462146284699
:104DF000B047060039D010F0B6F98146698A3046CE
:104E00000FF080FC304611F045F9484611F042F9A8
:104E10004FF000080CE000BFCDF8008055F81CCF23
:104E200000231A4649462846E04700B311F032F9FC
:104E30007F1E002FF0DC1D21484610F080FF601C13
:104E400012D000F057FE10F0DDF930B1FFF71EFE72
:104E50008469B44201D02000F8D1B44202D0304677
:104E600011F066F802F030F93046BDE8F8833046BC
:104E700010F04AF80020F8E72DE9F0411C461646EC
:104E80000D460746022B02DB0020BDE8F0811C2006
:104E9000FFF7ECFC0028F8D00DB105610AE0094AE3
:104EA00052F8241009B905E011460A68002AFBD11E
:104EB0000969016184618682002101604160C0E965
:104EC0000217E2E70802022070B51D46FFF7D4FF83
:104ED000040009D000F00EF8E068006820B903482B
:104EE000006800EB85008465204670BDF00102205B
:104EF000FFF794BC70B590B38269022A30DA1E4C79
:104F000054F8221019B944F8220032E019464B68CF
:104F1000002BFBD106E0CB68C5681B682D68AB424F
:104F200003DD09680029F6D11AE0C1B1CB68C66873
:104F30001B683668B3420CD1838A012B05D008E088
:104F40001946DB681B68AB4203DB0B68002BF7D10B
:104F500029B14B6833B118604A68426004E0FFE74A
:104F6000012070BD44F822004860884200D1002131
:104F70000160002070BD00000802022010B503E0AF
:104F80000468FFF7B7FF20460028F9D110BD17F0DD
:104F9000D7BE00002DE9F0410026DFF834800D4F28
:104FA000354600BF58F8254009E0E0680068385CE5
:104FB00020B1204617F0C4FE266026462468002C47
:104FC000F3D16D1C022DEDDB3046BDE8F081000011
:104FD000080202200C450208022801DB002070476D
:104FE000054951F8200004E0C16809680029F6D09D
:104FF00000680028F8D17047080202202DE9F84324
:105000001D461646884604000CD0FFF7BDFC0090F4
:10501000006807686846FFF721FD2B463246414687
:105020002046B847BDE8F8832DE9F041044602F078
:105030009BF806191EE000BF00F074FB052F00DD91
:10504000052700F057FD11480568FFF795FC2C0077
:1050500017D000BF02F038F8641EFBD1384602F0CA
:1050600067F81DB100F046FD6D1EFBD1FFF7EEFCA9
:1050700002F02AF802F078F8371A002FDCDCBDE8DD
:10508000F081384602F054F8F0E7000030040220C6
:105090001FB503ABCDF80CD0FFF79AFD684600F0C2
:1050A00019F81FBD002112F029BB7FB50C4615462B
:1050B000CDF80CD003A9FFF7D7FD002801DD641E51
:1050C000E4B203AB2A462146FFF782FD684600F0B2
:1050D00001F87FBD2DE9FC4706005FD000F00AFD16
:1050E00000F020FC3C4C81462068B0F9228000F0A2
:1050F0006BFC216807468A8CD01B888441E000BF86
:1051000047F6FF71304602F0EDFD8246014630461B
:1051100002F0BEFD2168054691F82C0000F0030066
:10512000012841D002283BD000204A8C101A488424
:10513000ADF800006A1E1044ADF80400888CADF88C
:105140000200A9F101010844ADF806006A46514683
:10515000304602F02BFA2168BDF8020088845146DF
:10516000304601F09FFE064430780A281ED00D28F4
:105170001CD0BDF80000216828444884307818B15C
:10518000761C30780028BBD12068818C394481841A
:10519000818D21F00301818501F096FFBDE8FC8738
:1051A00005EBD5704010C0E72846BEE7206890F8B0
:1051B0002C1001F0030101290BD0022909D0018C28
:1051C000418431780A29D9D1828C02EB090181848A
:1051D000D4E7A0F82280F4E7F001022070B514466D
:1051E0000D46064600F086FC054800684584848428
:1051F0003046FFF76FFFBDE8704001F065BF00006B
:10520000F001022047F6FF73AFF300802DE9FC4167
:105210001F4690460D4606004FF000041AD000F0DD
:1052200069FC65B1284610F025FF040007D002464E
:105230002946684602F0C3FD684610F01BFF3B4656
:1052400042462946304602F009FA204610F012FF85
:1052500001F03AFFBDE8FC812DE9FF4F87B0904691
:10526000894607007DD000F045FCD9F80040D9F808
:10527000045021B228B2401A401C029000F052FBA8
:10528000064618F00C0F1ED038460A9A029901F013
:1052900025FF08F00C01042904D0082902D00C29AC
:1052A00011D104E0291400FB1610401C09E0211460
:1052B000C1EB254200FB1620401C00EBD07001EB37
:1052C000600060F31F44484610F0D4FE5FEA000B14
:1052D00009D00246494604A8CDE9044502F06FFD15
:1052E00004A810F0C7FEA6F1010A38460A9A0299EE
:1052F00002F0AAFE03900AEB244060F31F45CDE9BB
:1053000000453846039902F0C3FC18F003010ED0A3
:1053100001292CD002290ED1B9F90420B9F90010C5
:10532000521A101A00EBD07001EB600001E0B9F8DE
:105330000000ADF800006A463846039902F036F9DD
:1053400038460A9A029902F075FE074406EB24409B
:1053500060F31F4438780028C7D1584610F08AFE01
:1053600000E001E001F0B0FE0BB0BDE8F08FB9F84D
:105370000410081A401CDCE71CB50A4601466846C2
:1053800002F00CFE00F0B6FB2548BDF800100068E6
:1053900030F84C2F1144ADF80010BDF8021082888F
:1053A0001144ADF80210BDF8041002881144ADF8A4
:1053B0000410BDF8061080880844ADF80600684661
:1053C00010F0EAFF27E000BFBDF900400BE000BF8E
:1053D000BDF90210204605F0E1FBBDF9061020469C
:1053E00005F0DCFBA41CBDF90400A042F0DABDF915
:1053F00002400AE0BDF90000214605F0CFFBBDF9EF
:105400000400214605F0CAFBA41CBDF90600A04219
:10541000F0DA10F075FF0028D6D101F055FE1CBD62
:10542000F00102202DE9F04F87B09B46DDE910988E
:1054300092460C46054600F05DFB16480168C86CB4
:10544000096D47190E1900EB0A0501EB0B04ADF8C5
:105450001070ADF81450ADF81260ADF8164004A805
:1054600010F09AFF88B1DFF830B04FF0000ACDE9B4
:105470000098CDE902BA2B4622463946304613F051
:105480009FFC10F03DFF0028F1D101F01DFE07B098
:10549000BDE8F08FF001022035AC00082DE9F04F97
:1054A00087B09B46DDE9109892460C46054600F011
:1054B00021FB16480168C86C096D47190E1900EBED
:1054C0000A0501EB0B04ADF81070ADF81450ADF8FF
:1054D0001260ADF8164004A810F05EFF88B1DFF846
:1054E00030B04FF0010ACDE90098CDE902BA234669
:1054F0002A463146384613F063FC10F001FF0028BD
:10550000F1D101F0E1FD07B0BDE8F08FF00102201C
:10551000ADAA00082DE9FE4F9846DDE90D65144659
:105520008A4683460C9F00F0E5FA0E480068C16C7D
:1055300001EB0409016D002001EB080410F02CFFC1
:105540000AE00097CDE9016523464A465146584690
:1055500013F0F6FC10F0D4FE0028F2D1BDE8FE4FA7
:1055600001F0B2BDF00102202DE9FC4114460D46C8
:10557000064600F0BFFA114F3968C86C096D054442
:1055800004440E44ADF80050ADF80440ADF802609C
:10559000ADF80660684610F0FFFE08E03868224665
:1055A0003146406E03682846984710F0A9FE00284F
:1055B000F4D101F089FDBDE8FC810000F00102207A
:1055C0002DE9F0411C4615460E46074600F092FABA
:1055D0000C480168C86C096D074405440E440C442E
:1055E000002010F0D9FE07E023462A46314638460F
:1055F000FDF73AFC10F084FE0028F5D1BDE8F0413B
:1056000001F062BDF00102207CB50C46064600F0B8
:1056100071FA0F4D2868C16C006D0E440444ADF85A
:105620000460ADF80060ADF80640ADF80240684691
:1056300010F0B2FE07E028682146406E426830460E
:10564000904710F05DFE0028F5D101F03DFD7CBDD6
:10565000F00102202DE9FC411C4616460D46074686
:1056600000F048FA1A480168087ECA6C096D1744B0
:105670000D440C44401E391A1644ADF80010311880
:10568000ADF80410291A2044ADF80600ADF8021058
:10569000684610F081FE15E032462946384605F08E
:1056A00005FA32462146384605F000FA621E691CAA
:1056B000384605F0BFFA621E691C304605F0BAFA9A
:1056C00010F01EFE0028E7D101F0FEFCBDE8FC81D1
:1056D000F00102207CB514460D46064600F00AFA99
:1056E0000F480068C16C006D0E4405440444ADF8D9
:1056F0000060ADF80460ADF80250ADF806406846B1
:1057000010F04AFE06E022462946304605F092FA9D
:1057100010F0F6FD0028F6D101F0D6FC7CBD0000AB
:10572000F001022010B5002400E0012400F004F88C
:105730000028FAD1204610BD094810B500680024A1
:1057400010B1804700B101240FF08CFC00B101249E
:105750000448006810B1804700B10124204610BD04
:1057600014020220100202202DE9FC411C461546BD
:105770000E46074600F0BEF910480068C16C006D87
:105780000F4406440D440444ADF80070ADF80450D5
:10579000ADF80260ADF80640684610F0FDFD07E088
:1057A00023462A463146384605F078FB10F0A8FD1E
:1057B0000028F5D101F088FCBDE8FC81F001022051
:1057C000B0F90630B0F90420B0F90210B0F90000C9
:1057D000FFF7CABF08B50B46002805D000928188A4
:1057E0008268C08800F001F808BD10B50828029C46
:1057F00030D008DC04FB01F401280AD0022813D0C1
:10580000042804D11CE0102828D020282CD0002007
:1058100010BD04EBD30003F00701105CC1F10701D8
:10582000C84000F0010010BD04EB93000621105C9D
:1058300001EA4301C1F10601C84000F0030010BDB8
:1058400004EB5300D907105C02D000F00F0010BD2C
:10585000000910BD04FB0130105C10BD481004FBB2
:10586000003032F8100010BD881004FB003052F8F0
:10587000200010BD034951F82000C1688A6A082140
:10588000104700000802022010B500F033F905F0BF
:1058900035FB05F0CDFB044601F016FC204610BD9B
:1058A00010B5044600F026F9054800210068C069DB
:1058B000426820469047044601F006FC204610BD91
:1058C000F001022070B50C46054600F013F90648B9
:1058D00021460068C069426828469047044601F0A6
:1058E000F3FB204670BD0000F0010220002801D02B
:1058F0000FF016BC704710B500F0FCF805F006FB81
:1059000005F096FB044601F0DFFB204610BD0000C9
:105910000021022802D2024951F82010084670479F
:105920001C04022010B500F0E5F804480068C069C6
:10593000447E01F0C9FB204610BD0000F0010220AA
:1059400010B500F0D7F802F099F9044601F0BCFB5D
:10595000204610BD70B514460D46064600F0CAF844
:1059600022462946304605F005FB10B1002028608C
:105970002060BDE8704001F0A7BB000010B500F04A
:10598000B9F803480068847E01F09EFB204610BDF4
:10599000F001022070B50C46054600F0ABF8214638
:1059A000284602F0C9F9BDE8704001F08DBB10B582
:1059B000044602F0B3F901462046BDE8104002F06B
:1059C00067B901F0D1BB000010B5002400F092F8D7
:1059D0000B48006890F82C1001F00C01042904D049
:1059E000082906D00C2907D103E0C069047E641E93
:1059F00002E0C069007E440801F066FB204610BD4D
:105A0000F0010220017EC07E11FB00F07047000013
:105A1000024951F82000006900687047080202201E
:105A2000024951F8200000694068704708020220CE
:105A300070B50D46044600F05DF8204614F032FFC4
:105A40000446284614F036FF044301F03DFB20468F
:105A500070BD000010B501F0D9FC0A492E20087075
:105A600001F088FB084814F0C3FF05F007FB04466B
:105A70000021084600F092FE0FF004FFFEF714FE2E
:105A8000204610BDE40102207CDD04202DE9FC410C
:105A90001C4615460E46074600F02CF8012000F083
:105AA00043FE804612480068C16C006D0F440644F6
:105AB0000D440444ADF80070ADF80450ADF8026038
:105AC000ADF80640684610F067FC07E023462A461A
:105AD0003146384605F0E2F910F012FC0028F5D105
