:020000040800F2
:10000000D81B0520050300080BEA0008DBB3000835
:100010004DE900081D2B0008C16701080000000021
:10002000000000000000000000000000B5280108EA
:10003000693100080000000045240008212A010859
:100040003F0300083F0300083F0300083F03000888
:100050003F0300083F0300083F0300083F03000878
:100060003F0300083F0300083F0300083F03000868
:100070003F0300083F0300083F0300083F03000858
:100080003F0300083F0300083F0300083F03000848
:100090003F0300083F0300083F0300083F03000838
:1000A0003F0300083F0300083F0300083F03000828
:1000B0003F03000899520108DD5201083F03000880
:1000C0003F0300083F0300083F0300083F03000808
:1000D0003F030008556701083F0300083F0300087D
:1000E0003F0300083F0300083F0300083F030008E8
:1000F0003F0300083F0300083F0300083F030008D8
:100100003F0300083F0300083F0300083F030008C7
:100110003F0300083F0300083F0300083F030008B7
:100120003F0300083F0300083F0300083F030008A7
:100130003F0300083F0300083F0300083F03000897
:100140003F0300083F0300083F0300083F03000887
:100150003F0300083F0300083F0300083F03000877
:100160003F0300083F0300083F0300083F03000867
:100170003F0300083F0300083F03000800000000A1
:100180003F0300083F0300083F0300083F03000847
:100190003F0300083F0300083F0300083F03000837
:1001A0003F0300083F0300083F0300083F03000827
:1001B0003F0300083F0300083F0300083F03000817
:1001C0003F0300083F030008000000003F03000851
:1001D0003F0300083F0300083F0300083F030008F7
:1001E0003F0300083F0300083F0300083F030008E7
:1001F0003F0300083F03000800F002F800F072F827
:100200000AA090E8000C82448344AAF10107DA4571
:1002100001D100F067F8AFF2090EBAE80F0013F051
:10022000010F18BFFB1A43F0010318471021030008
:10023000302103000A444FF0000C10F8013B13F08A
:10024000070408BF10F8014B1D1108BF10F8015B2F
:10025000641E05D010F8016B641E01F8016BF9D122
:1002600013F0080F1EBF10F8014BAD1C0C1B09D179
:100270006D1E58BF01F801CBFAD505E014F8016BEB
:1002800001F8016B6D1EF9D59142D6D3704700007D
:100290000023002400250026103A28BF78C1FBD88F
:1002A000520728BF30C148BF0B607047662920F055
:1002B0006986642900F06486782900F09D86732998
:1002C00001F0E582002070471FB520F045FE01F0E7
:1002D00055FB04000020002120F028FEE0601FBD37
:1002E00010B510BD01F066FC1146FFF7EDFF20F0E0
:1002F00031FC01F084FC03B4FFF7F2FF03BC20F0F3
:1003000093FB000011488047DFF84400016841F486
:1003100070010160BFF34F8FDFF83800016821F0F2
:1003200040410160BFF36F8F0B480047FEE7FEE7D7
:10033000FEE7FEE7FEE7FEE7FEE7FEE7FEE7FEE795
:1003400006480749074A084B70470000452A01083C
:1003500088ED00E034EF00E0F9010008D80F052037
:10036000D81B0520D8110520D811052072B670477A
:1003700062B67047EFF3108072B6704780F3108852
:10038000704730BF704720BF7047B0FA80F07047A9
:1003900090FAA0F0B0FA80F0704790FAA0F07047A1
:1003A0009FED3E0A5FEA920C59D000BFD0ED000AE3
:1003B00090ED011A0B1D60EEA00A083041EE010A13
:1003C000F5EEC00AF1EE10FAA6BFB1EEE01A81ED2B
:1003D000001A81ED000AD0ED000A90ED011A00F13B
:1003E000080160EEA00A181D41EE010AF5EEC00AF0
:1003F000F1EE10FAA6BFB1EEE01A83ED001A83ED1C
:10040000000AD1ED000A91ED011A031D60EEA00A69
:10041000083141EE010AF5EEC00AF1EE10FAA6BF6E
:10042000B1EEE01A80ED001A80ED000AD1ED000A6D
:1004300091ED011A081D60EEA00A191D001D41EE84
:10044000010AF5EEC00AF1EE10FAA6BFB1EEE01A0D
:1004500083ED001A83ED000ABCF1010CA6D112F065
:10046000030208BF704700BFD0ED000A90ED011AEB
:1004700008300B4660EEA00A091D41EE010AF5EEB8
:10048000C00AF1EE10FAA6BFB1EEE01A83ED001A31
:1004900083ED000A521EE7D1704700000000000003
:1004A0002DE9F04F00264FEA910C35462DED048BD7
:1004B00082B06446CDF804C006EB0C0909EB0C08C9
:1004C00008EB0C0700EBC60A00EBC808DAED000ADF
:1004D00098ED001A00EBC90900EBC70730EE810A5E
:1004E00070EEC12A9AED013AD8ED014AD9ED011A10
:1004F000D7ED013A99ED005A97ED002A73EE240AE0
:1005000031EEA34A35EE021A33EE643A71EEE34A55
:100510004FEA450B35EE422A0BEB050E30EE015A41
:1005200002EBCB0B70EE845ADBED001ADBED013AE7
:1005300030EE410A70EEC40A8AED005ACAED015A43
:1005400032EEA41A32EEE44A02EBC50A73EE422AF6
:1005500020EE216A60EEA11A32EE033ADAED004A8B
:1005600060EEA30A9AED012A60EE233A21EE240AF6
:1005700062EEA44A02EBCE0B62EE822A61EE026AC0
:100580009BED005ADBED015A30EE220A23EE052ADC
:1005900074EEE62A24EE051A23EE253A76EE204A7A
:1005A00024EE254A71EEE31AC9ED004A71EE030A02
:1005B000C9ED011A32EE441A88ED000AC8ED012A8D
:1005C000C7ED000A641E87ED011A06F101061D44FD
:1005D0007FF472AF019C4FF6FF7505EA830B009420
:1005E000042C7CD90027E0464FEA9C0CBA46ACF1BB
:1005F000010E7D00EC1902EBC70302EBC50502EB0F
:10060000C40493ED005A93ED014AD5ED002AD5EDCF
:10061000015AD4ED004AD4ED013A5F444FEA0A038F
:1006200003EB0C0505EB0C0404EB0C0900EBC30613
:1006300000EBC40496ED001A94ED002A00EBC5050A
:1006400000EBC90996ED013A94ED016AD5ED007A07
:1006500099ED007A71EE421A31EE022A33EE461A13
:1006600033EE066A37EE873A95ED010AD9ED010AB5
:1006700077EEC76A72EE437A30EE607A30EE200A87
:1006800072EE038A434471EE870A31EEC77A71EE47
:10069000661A36EE811A76EE406A76EE009A21EE00
:1006A000852A20EE850A61EE841A20EE846A67EEC0
:1006B000A20A26EEA23A27EE249A21EE248AC6ED5B
:1006C000008A8B4266EEA56A67EEA57A21EE231AB0
:1006D00027EE237AC6ED019A30EE210A00E026E0EB
:1006E00072EE461A70EEA60A33EE672A39EE011A48
:1006F000C5ED000A85ED012A38EE473A84ED000A7F
:10070000C4ED011A89ED001A89ED013A88D30AF186
:10071000010AF2457FF66DAF009B9B080093009C99
:100720004FF6FF7303EA8B0B042C3FF65BAF019986
:10073000D0ED002A90ED041AD0ED010A90ED054AA3
:1007400072EE811AD0ED023A90ED063A72EEC12AAD
:1007500030EE841A90ED030A90ED072A70EEC40A79
:1007600033EE834A73EEC33A30EE023A30EE420A79
:1007700031EE842A71EEC44A71EE031A31EE433A27
:1007800080ED002A32EE801AC0ED011A30EEE34A05
:10079000C0ED024A72EEC02A80ED033A33EEA00AA1
:1007A00080ED041A80ED054AC0ED062A80ED070AA7
:1007B000491E00F12000BBD102B0BDEC048BBDE8A6
:1007C000F08F2DE9F04F00264FEA910C35462DEDC4
:1007D000068B82B06446CDF804C000BF06EB0C085F
:1007E00008EB0C0909EB0C0700EBC80800EBC70786
:1007F00000EBC60A00EBC909DAED000A99ED001A10
:10080000DAED015A99ED013A30EE815A98ED002A5D
:10081000D8ED013A30EEC11AD7ED002AD7ED014AE2
:1008200075EE830A72EE221A33EEA44A4FEA450BA4
:1008300035EEC33A0BEB050E72EE622A73EEE44A14
:1008400002EBCB0B30EE846A75EE215A9BED002A49
:10085000DBED013A30EEC44A75EE611ACAED005A7A
:100860008AED016A71EE640A61EE826A24EE022A60
:1008700031EE241A24EE234A73EE224A02EBC50A13
:1008800061EEA33A33EE623ADAED002ADAED015A6C
:1008900002EBCE0B60EEA21A64EEA22A64EEA54A29
:1008A0009BED005A9BED016A60EEA55A61EE050AC8
:1008B00023EE055A23EE063A36EEC44A21EE061A16
:1008C00032EE232A71EEE41A72EEA52A88ED004A70
:1008D00070EEC30A88ED012A35EE011AC9ED001A3F
:1008E000C9ED012AC7ED000A641E87ED011A06F161
:1008F00001061D447FF472AF019C4FF6FF7505EAB7
:10090000830B0094042C7CD90027E0464FEA9C0C12
:10091000BA46ACF1010E7D00EC1902EBC70302EB05
:10092000C50502EBC404D3ED005A93ED015A95EDD1
:10093000002AD5ED014AD4ED002A94ED016A5F4406
:100940004FEA0A0303EB0C0505EB0C0404EB0C095E
:1009500000EBC30600EBC40496ED007A94ED001A98
:1009600096ED014A94ED013A00EBC50500EBC9098B
:1009700077EE413AD5ED001AD9ED007A37EE011A3B
:1009800034EE437A34EE033A31EEE74AD5ED010A0C
:10099000D9ED016A71EEA71A37EE448A70EEE67A55
:1009A00070EEA66A71EE218A28EE229A73EEE70AAB
:1009B00073EEA77A77EE043A33EE26AA31EE617A27
:1009C00033EE664A20EEA51A23EE853A63EEA51AA9
:1009D00060EE856A67EE020A64EE023A67EEA29A5A
:1009E000C6ED008A43448B4224EE244A27EE247A43
:1009F00028EE068A67EE867A86ED01AA31EE431A62
:100A000000E026E070EEC40A33EE873A71EEA61AD3
:100A1000C5ED000A79EEC83A85ED013A39EE274A6C
:100A200084ED001AC4ED011AC9ED003A89ED014ABE
:100A300088D30AF1010AF2457FF66DAF009B9B084F
:100A40000093009C4FF6FF7303EA8B0B042C3FF6D8
:100A50005BAF0199D0ED000AD0ED042A90ED012A98
:100A600090ED054A70EEA23A90ED021AD0ED064ADA
:100A700070EEE20A72EE042AD0ED031A90ED073A06
:100A800032EE442A31EE244A31EE641A71EE834A82
:100A900071EEC31A33EE843A73EEC43A32EEA44ACE
:100AA00072EEE42A70EEE14A70EEA11A72EE010ACB
:100AB00032EE415A23EE001A24EE002A23EE803A49
:100AC00062EE802A80ED001A64EE803A80ED012A01
:100AD00060EE800A80ED023A21EE804AC0ED032AE2
:100AE00065EE001AC0ED043AC0ED050A80ED064A35
:100AF000C0ED071A491E00F12000ABD102B0BDECD9
:100B0000068BBDE8F08F70B5044680780D4601284D
:100B10002188A38962680ED02846FFF7C1FCE078DF
:100B2000012818BF70BDE28928462188A368BDE866
:100B3000704000F0CFB894ED040A2846FFF741FE5C
:100B4000EDE7000082700022C370B1F5807F234B77
:100B50000180436023D004DC102934D0402928D000
:100B600005E0B1F5806F10D0B1F5805F03D04FF094
:100B7000FF32104670471B4B01219FED190A83601D
:100B800080ED040A8181C181F3E7174B0421818143
:100B90009FED160A8360C18180ED040AE9E7144BDA
:100BA000102181819FED130A8360C18180ED040AC9
:100BB000DFE7114B402181819FED100A8360C181E5
:100BC00080ED040AD5E70E4B4FF4807181819FEDD3
:100BD0000D0A8360C18180ED040ACAE79C8B02087C
:100BE000000080399C830208A28302080000803A3A
:100BF000BA8302080000803B1A8402080000803C8F
:100C00009A8502080000803DF0B44F1E002590ED4B
:100C1000000ABE082C4600F1040C2ED0DCED000AC0
:100C20009CED011A0CF10800B4EEE00AF1EE10FAA6
:100C30003CBF6C1CB0EE600AB4EEC10AF1EE10FAD3
:100C4000F0EC010A3CBFAC1CB0EE410AB4EEE00A85
:100C500000F1040CF1EE10FA90ED001A3CBFEC1C10
:100C6000B0EE600AB4EEC10AF1EE10FA3CBF2C1DE2
:100C7000B0EE410A2D1D761ED0D117F0030017D01B
:100C8000B0F1004F19D20028C4BF002506460FDD81
:100C9000DCED000AF4EEC00AF1EE10FA03DD4C19A7
:100CA000241AB0EE600A6D1C761E0CF1040CEFD114
:100CB00082ED000A1C60F0BC7047FCEC010AB4EE47
:100CC000E00AF1EE10FA3CBF0C1AB0EE600A401ECA
:100CD000F3D1EDE72DE9F0074FF0010C0CEB5109D2
:100CE0004FF0000C4FEA51086146A8F1020A2DE0CE
:100CF00061452BD200EBCC0400EBC105D4ED000A1A
:100D000095ED000AC5ED000A84ED000AD4ED010A54
:100D10000CEB090695ED010A01EB0907C5ED010A87
:100D200000EBC60684ED010A00EBC707D6ED000A0A
:100D300097ED000AC7ED000A86ED000AD6ED010A1C
:100D400097ED010AC7ED010A86ED010AC44400EBE4
:100D5000C10400EBCC0C94ED020ADCED000A891C06
:100D6000C4ED020A8CED000ADCED010A94ED030AE1
:100D7000C4ED030A8CED010A89B2B3F800C05145F5
:100D800003EB4203B4D9BDE8F00770472DE9F04FFB
:100D90004FF0010C0CEB51094FF0000C4FEA5108D9
:100DA0006146A8F1020A25E0614523D200EBC106A5
:100DB00000EBCC0501EB0907D6F800E00CEB0904C9
:100DC000D5F800B000EBC707C6F800B000EBC404CC
:100DD000C5F800E0D6F804E0D5F804B0C6F804B0D1
:100DE000C5F804E03D6826683E6025607D68666859
:100DF0007E606560C44400EBC10400EBCC0C891C30
:100E0000A5685145DCF80060A660CCF80050E668A3
:100E1000DCF80450E560CCF80460B3F800C003EBE4
:100E20004203C1D9BDE8F08F2DE9F00F4F084FF014
:100E3000010C0CEB51084FF0000C7C0804BFBDE81E
:100E4000F00F704700EB88050146002615E000BF53
:100E5000BCEB460F11D950F82CB00CEB0809D1F8B7
:100E600000A0C1F800B040F82CA050F829B0D5F887
:100E700000A0C5F800B040F829A0BC44D1F8049007
:100E800005F1080506F1010650F82CA0C1F804A0F0
:100E9000083140F82C90B3F800C0641E03EB420305
:100EA000D6D1BDE8F00F7047704700000FB4044979
:100EB00010B503AA029800F0EFFC10BC5DF814FB1B
:100EC000140002202DE9F0410E4604460020206265
:100ED0002046E168884730B3252805D0D4E90121B0
:100EE0009047206A401CF2E7E168204600278847C7
:100EF000050018D0A5F14100192802D820354FF47B
:100F000000673246294620462760FFF7CFF940B1F7
:100F1000012804D0F61D26F007060836D8E7361D4E
:100F2000D6E72846DAE7206ABDE8F08170B50C46BE
:100F30000546012A05D02878800600D5EA690023F5
:100F400002E0012305E05B1C934202D2E05C002832
:100F5000F9D1A869E618C01AA861286A184428625D
:100F60002846AFF3008004E0D5E9012114F8010B15
:100F70009047B442F8D32846AFF3008070BD00001C
:100F80002DE9F0410646002410687529314616A562
:100F900010D0AFF30080002802DA404213A507E02A
:100FA00031688A0701D512A502E0490704D511A5C9
:100FB000012401E0AFF3008000210A2206F124079A
:100FC00009E0B0FBF2FCB0FBF2F302FB1C00303096
:100FD00078541846491C0028F3D123462A46304647
:100FE000BDE8F04100F0DBB9000000002D0000007A
:100FF0002B0000002000000070B504460D4621467D
:101000001068AFF300802188090502D50F4A7A44A1
:1010100002E00E4A7A440E32002104F1240305E076
:1010200000F00F060009965D5E54491C0028F7D1B8
:1010300020780023000704D5702D02D009B10223C7
:1010400011322046BDE8704000F0A9B9BE1003007F
:1010500040EA010310B59B070FD1042A0DD310C835
:1010600008C9121F9C42F8D020BA19BA884201D987
:10107000012010BD4FF0FF3010BD1AB1D30703D0CF
:10108000521C07E0002010BD10F8013B11F8014B85
:101090001B1B07D110F8013B11F8014B1B1B01D1A1
:1010A000921EF1D1184610BD40EA0103024630B548
:1010B0009B0710D14FF0013400E008C208C91D1B86
:1010C0009D4315EAC41FF8D013F0FF0102F8011B7D
:1010D0000DD01B0AF8E711F8013B002B02F8013B89
:1010E00005D011F8013B002B02F8013BF3D130BDD4
:1010F00010B5431C02E010F8011B71B18107FAD151
:101100004FF0013202C88C1A8C4314EAC211F9D094
:10111000C01A0A0603D0C01E10BDC01A10BD0A04B2
:1011200001D0801E10BD0902FCD0401E10BD421E21
:1011300012F8013F002BFBD111F8013B002B02F804
:10114000013BF9D17047032A40F2308010F0030CC4
:1011500000F0158011F8013BBCF1020F624498BF0A
:1011600011F801CB00F8013B38BF11F8013BA2F1A7
:10117000040298BF00F801CB38BF00F8013B11F022
:10118000030300F06780083AC0F0088051F8043B80
:10119000083A51F804CBA0E80810F5E7121D5CBF2F
:1011A00051F8043B40F8043BAFF30080D20724BF62
:1011B00011F8013B11F801CB48BF11F8012B24BFF6
:1011C00000F8013B00F801CB48BF00F8012B704745
:1011D000431A28BF9A427FF6B6AF032A104411443F
:1011E00040F2268010F0030F1EBF11F8013D521E81
:1011F00000F8013D10F0030F7FF4F6AF11F0030388
:1012000000F06F83083AC0F00B8051F8043D083AB3
:1012100051F804CD40F8043D40F804CDFFF7F3BF8A
:10122000121D5CBF51F8043D40F8043DAFF300804F
:10123000D20724BF11F8013D11F801CD48BF11F8C4
:10124000012C24BF00F8013D00F801CD48BF00F893
:10125000012C704710B5203AC0F00B80B1E818504F
:10126000203AA0E81850B1E81850A0E81850BFF490
:10127000F5AF5FEA027C24BFB1E81850A0E818502F
:1012800044BF18C918C0BDE810405FEA827C24BF83
:1012900051F8043B40F8043B08BF7047D20728BF11
:1012A00031F8023B48BF11F8012B28BF20F8023B60
:1012B00048BF00F8012B704702F0FF0343EA032206
:1012C00042EA024200F039BB4FF0000200B513467B
:1012D00094469646203922BFA0E80C50A0E80C5056
:1012E000B1F12001BFF4F7AF090728BFA0E80C5007
:1012F00048BF0CC05DF804EB890028BF40F8042B00
:1013000008BF704748BF20F8022B11F0804F18BF6C
:1013100000F8012B704700004FF0013C50F8042BFF
:1013200051F8043B9A4215D1A2EB0C03934313EA04
:10133000CC130BD150F8042B51F8043B9A4209D13D
:10134000A2EB0C03934313EACC13E7D04FF0000059
:10135000704700BFD01A01BAB1FA81F101F018014B
:1013600022FA01F0CB40C1F12001DBB2C0B2C01AB9
:101370002CFA01F3D11A914311EAC311E6D1704757
:10138000704770477047704710B500F0FBFA00686F
:1013900010BD10B5044600F0F5FA046010BD2DE94B
:1013A000F0470D4699469246044600F1240801682C
:1013B000880604D5E06921F01001216000E00120D9
:1013C000A84201DD471B00E00027A1697A1902EB62
:1013D0000900081AA0612078C00602D42046AFF3A5
:1013E0000080002608E0D4E901211AF806009047A1
:1013F000206A401C761C20624E45F4DB2078C00633
:101400000AD52046AFF3008006E0D4E90121302060
:101410009047206A401C2062381EA7F10107F4DCC7
:1014200007E0D4E9012118F805009047206A401C24
:101430002062281EA5F10105F3DC2046AFF30080F1
:101440002078000602D50220BDE8F0870120FBE7E6
:1014500070472DE9FF4F0C461E464FF0FF378BB00B
:10146000D2E90001DDF860800A908A46C1F30A558E
:1014700005B93D46002108461FF074FDBAF1000F82
:1014800000F4400005DA00EB80004FF4400101EA6F
:1014900050004FEA9059B9F1010F00DDB9460A98A2
:1014A00050EA4A000ED044F61050A5F2FF354543ED
:1014B0002F14B8F1000F1ED07542291E1EDDC9F190
:1014C00000021CE0B8F1010F4FF0000001D0302104
:1014D00003E0F24305E02154401CB042FBDB304600
:1014E0000022002121540B99C1F80880C1E9002095
:1014F0000FB0BDE8F08FBD1B6D1CDEE74A4600DA79
:10150000694206A800F0E0FA06AB93E8070003ABD7
:1015100083E8070050460A9900F07AFB8DE807003F
:10152000A0F500501F3800900398002D09DD42F20D
:101530001F014A46084403A90390684600F0D9FDFC
:1015400008E0A0F500504A461F3803A903906846FA
:1015500000F0E3FD8DE807000004000C03D04FF01D
:10156000FF30410800E01046B8F1000F03D0002220
:10157000009215461EE0751E05D400F007FA3032C1
:1015800062556D1EF9D5B3460122084302D00022F0
:101590007F1C04E02078302801D100227F1E002A21
:1015A000099786D01DE0112D07DA00F0EFF93032EF
:1015B00062556D1C50EA0102F5D1084302D0009833
:1015C000C8B10EE00021681E05E0235C625C635434
:1015D0002254401E491C8142F7DBAB46A81B401E2B
:1015E0000990002004F80B000B98099AC0F80880B5
:1015F000C0E9002B7CE711264FF0000859E72DE9E0
:10160000F04F88460446D21D22F0070191B0D1E97F
:101610000001CDE90A011EF0AFF802460B98C00F99
:1016200001D02D2007E02068810701D52B2002E0A2
:10163000202101EAC000032A099001D0072A05DB16
:1016400003464146204600F0FFF90BE12078800672
:1016500001D5E06900E00620B8F1650F814606D0AB
:10166000B8F1660F18D0B8F1670F70D131E00020E3
:10167000B9F1110F009001DB112301E009F1010321
:101680000AAA01A90CA8FFF7E4FEDDE90C70002608
:1016900009F10105834647E001204B4600904FF0D9
:1016A00000470AAA01A90CA8FFF7D3FEDDE90DB097
:1016B0000C995D46002610B909F101000D18B9EB2F
:1016C000050003D4C0F1FF3609F10105A5EB0900BF
:1016D0002BE0B9F1010F01DA4FF001090020B9F157
:1016E000110F0090484601DD112300E003460AAACD
:1016F00001A90CA8FFF7ADFEDDE90C704D460026F0
:101700008346207800070AD4AB4500DA5D4601A87D
:10171000012D04DD411911F8011C302907D04F4576
:1017200002DA17F1040F04DA012082460FE06D1E81
:10173000EEE7002F02DCED1B3E4403E0781CA842DC
:1017400000DD7D1CB81B00F1010A4FF00047207836
:10175000000703D4AA4501DB4FF0FF3A0021B7F19F
:10176000004F0DF143088DF8431024D002202B23A5
:10177000002F01DA7F422D230A21021EA0F1010071
:1017800000DC5FB197FBF1FC97FBF1F201FB1C7CE5
:1017900017460CF1300C08F801CDEEE7A8F1010076
:1017A00003702188090501D5452100E06521A0F1DC
:1017B000010800F8011C09980FA9A1EB0807FF1DFB
:1017C00000B10120411901EBEA70A1693844081AFF
:1017D000401EA0612078C00602D42046AFF30080EE
:1017E000099828B1D4E901219047206A401C206261
:1017F0002078C00622D52046AFF300801EE0002EE0
:1018000004DBB34502DD01A8805D00E03020D4E9AF
:1018100001219047206A401C2062761CAAF1010039
:101820005FEA000A0AD100F0A9F8C0680168405CCC
:10183000D4E901219047206A401C2062281EA5F1AE
:101840000105DCDC07E0D4E9012118F8010B904721
:10185000206A401C2062381EA7F10107F3DC2046F5
:10186000AFF30080032011B043E610B5436913B114
:10187000AFF3008001E0FFF759FB012010BD1278A3
:1018800000F124010A7000224A700122EDE711687C
:101890004FF0FF32E9E70000074B70B50D467B447F
:1018A00000F0BFF80446284600F07CF910B14FF074
:1018B000FF3070BD204670BD73F20100431A28BF8F
:1018C0009A427FF6C7AC104410F0030F11441EBFBC
:1018D00011F8013D521E00F8013D10F0030F7FF496
:1018E000F6AF103AC0F00A8010B531E91850103A3E
:1018F00020E91850BFF4F9AFBDE81040530724BFEA
:1019000031E9081020E9081044BF51F8043D40F8BF
:10191000043D12F0030F08BF7047D20728BF31F80B
:10192000023D48BF11F8012C28BF20F8023D48BFF6
:1019300000F8012C70474FF000020429C0F012801B
:1019400010F0030C3FF4C2ACCCF1040CBCF1020F5C
:1019500018BF00F8012BA8BF20F8022BA1EB0C0147
:10196000FFF7B4BC5FEAC17C24BF00F8012B00F88C
:10197000012B48BF00F8012B70470000004870475A
:10198000980F052000487047780F052030B5B0F15A
:101990000A024FEA900E71F100034EEA817EB0EB2D
:1019A0000E0061EB91014FEA101E4EEA017E10EB32
:1019B0000E0041EB11114FEA102E4EEA016E10EBB2
:1019C0000E0041EB11214FEA104E4EEA014E10EB92
:1019D0000E0041EB1141401841F100014FEAD000E7
:1019E00040EA41704FEAD10110EB80054FEA8104D3
:1019F00044EA907444EB01046D1944EB0404521B57
:101A0000A3414FF0000348BF0A3200D530BD401C4F
:101A100041F1000130BD000001694A1C02610878F3
:101A2000704700B58FB0CDE901310021059105491E
:101A30007944CDE9031011466846FFF743FA0FB029
:101A400000BD0000E5FFFFFF2DE9F0411F46044601
:101A500003260168072A01F4006004DB08B116A51B
:101A600005E016A503E008B115A500E015A521F0D5
:101A700010002060A069C01EA0610FB1401EA061CF
:101A80002046AFF300804FB1D4E90121384690479A
:101A9000206A401C2062C01C206206E0206AFAE72F
:101AA000D4E9012115F8010B9047761EF8D22046A3
:101AB000AFF30080BDE8F0814E414E006E616E00D4
:101AC000494E4600696E66002DE9F047814616468C
:101AD0008AB0334878440DC88DE80D00304878440A
:101AE000801C03AC0DC884E80D0041F69B3008440F
:101AF000372190FBF1F290FBF1F5A5F1800501FB98
:101B000012041B3C02D56442012000E00020DFF8F3
:101B100090A080460027FA44AAF1BE0A0DE0E00733
:101B200009D03246684607EB47010AEB810100F015
:101B3000F4FA8DE8070064107F1C002CEFD1184FD9
:101B40007F44AC3F18E0E80714D007EB04100DF118
:101B5000180A90E80E008AE80E00C068F04201D131
:101B600098190890324606A903A800F0D6FA03ABEC
:101B700083E807006D10641C002DE4D132466946ED
:101B8000B8F1000F03A802D000F0B3FA01E000F0B2
:101B9000C4FAC9E90001C9F808200AB0BDE8F08715
:101BA0009C060300007B00F08000704700487047EF
:101BB000780F05207546FFF7F9FFAE460500694628
:101BC000534620F00700854618B020B5FEF7B8FB55
:101BD000BDE820404FF000064FF000074FF000082E
:101BE0004FF0000B21F00701AC46ACE8C009ACE8AF
:101BF000C009ACE8C009ACE8C0098D46704710B513
:101C00000446AFF300802046BDE81040FEF773BBEA
:101C10005FEA400C08BF91F0000F4FEA8C234FEAB7
:101C2000C12243EA51514FEA1C5018BF00F5F04061
:101C30004FEA300018BF41F000415FEA6C5C00F0F1
:101C40002980BCF1FF3F08BF40F080407047130C73
:101C500006BF12044FF0100C4FF0000C130E04BF1F
:101C600012020CF1080C130F04BF12010CF1040C4A
:101C7000930F04BF92000CF1020CD30F04BF52006B
:101C80000CF1010C11464FF00002A0F11F00A0EB77
:101C90000C00704711F0004F08BF704731F0004151
:101CA0003FF4D5AF0B0C06BF09044FF0100C4FF0FA
:101CB000000C0B0E04BF09020CF1080C0B0F04BF43
:101CC00009010CF1040C8B0F04BF89000CF1020C0C
:101CD000CB0F04BF49000CF1010CCCF12003A0EBA9
:101CE0000C0022FA03F302FA0CF241EA030100F1BC
:101CF0000100704720F07F4C80EA030023F07F470B
:101D0000ACEB070303F57C5300F0004003F1FF0345
:101D10002DE980494FEA154B09B44FEA144325EAEF
:101D20000B4E24EA03480FF2042606EB132749085A
:101D30003E785FEA320203FB0667C7F5000707FB40
:101D400006F64FEA54374FEAD64606F1020607FB7D
:101D5000066CCCF1005C4FEA1C472CEA074C07FBF1
:101D600006F40CFB06F504EB15464FEA961634BF55
:101D700000204FF000404FEAD13706FB07FC4FEA46
:101D80001C4C0CFB0BF7D21B03FB0CF761EB0701A0
:101D90000CFB0EF7B0EB074072EB17420CFB08F799
:101DA00034BFA2EB0742B2EB074261EB17414FEAA7
:101DB0000C444FEA910706FB07FC4FEA1C4C0CFB56
:101DC0000BF7B0EBC74072EB573203FB0CF734BF95
:101DD000A2EBC742B2EBC74261EB57310CFB0EF7E7
:101DE000B0EBC70072EB57720CFB08F734BFA2EBE5
:101DF000C702B2EBC70261EB5771039F4FEA8161E3
:101E000041EA921104EBCC044FEAD1374FEA8262E7
:101E100006FB07FC42EA90124FEA80604FEA1C4C36
:101E20000CFB0BF7D21B03FB0CF761EB07010CFB60
:101E30000EF7B0EB074072EB17420CFB08F734BF0C
:101E4000A2EB0742B2EB074261EB17414FEA8C5518
:101E50004FEA910704EB9C2406FB07FC4FEA1C4C5D
:101E60000CFB0BF7B0EBC74072EB573203FB0CF7E0
:101E700034BFA2EBC742B2EBC74261EB57310CFB58
:101E80000EF7B0EBC70072EB57720CFB08F734BFCC
:101E9000A2EBC702B2EBC70261EB577115EB4C2501
:101EA0004FEA816141EA92114FEA82624FEAD137EB
:101EB00042EA901206FB07FC44F100044FEA8060FE
:101EC0004FEA1C4C0CFB0BF7D21B03FB0CF761EB2E
:101ED00007010CFB0EF7B0EB074072EB17420CFB4F
:101EE00008F734BFA2EB0742B2EB074261EB1741A0
:101EF00015EB1C154FEA813141EA92414FEA8232DB
:101F000042EA90424FEA80304FEA0C7644F10004F6
:101F100048EA03434EEA0B484FF0000EB2EB080CC0
:101F200071EB030724BF624639464EEB0E0E4FF0AD
:101F3000000B0018524149414BEB0B0BB2EB080C64
:101F400071EB03077BF1000B24BF624639464EEB71
:101F50000E0E4FF0000B0018524149414BEB0B0B9A
:101F6000B2EB080C71EB03077BF1000B24BF624658
:101F700039464EEB0E0E51EA020718BF46F0010635
:101F800016EB0E7655F1000254F1000103D5BDE8C1
:101F90008901BDE80088BDE88901BDE80048B6199F
:101FA000524141EB0101A3F10103704780807F7E24
:101FB0007D7C7B7A797877767675747372717170BF
:101FC0006F6E6E6D6C6C6B6A6A6968686766666571
:101FD0006464636362616160605F5F5E5E5D5D5CFF
:101FE0005C5B5B5A5A595958585757565655555570
:101FF0005454535352525251515050504F4F4F4ED0
:102000004E4D4D4D4C4C4C4B4B4B4A4A4A4949491D
:10201000484848474747474646464545454444445F
:10202000444343434342424242414141002B26D470
:10203000770021D01CB54FEA370703B44FF01000EA
:102040004FF010011EF08EFF0FBCBDE810400BF1E9
:10205000010BBBF1010F08BF5FEA170722BF12F1A6
:10206000010211F101014FF0004143F1000300F0C2
:10207000004043EA00007047F9D35708DAE746EA20
:10208000064613F1400F4FEA16461FDD13F1200FED
:10209000DFBF16430A46002120335B42C8D0C3F19C
:1020A000200746EA064602FA07F74FEA164646EACE
:1020B0000706C3F1200722FA03F201FA07F721FA13
:1020C00003F14FF0000342EA0702B1E746EA0206D5
:1020D00046EA06464FEA164646EA0106BCBF46EA0D
:1020E0000646360C4FF000034FF000024FF000019F
:1020F0009EE72DE9C048934630B491E8380007C800
:1021000031EA400C48BF34EA430C03D5FFF7F2FD37
:10211000FFF78CFFF0BCBDE800882DE9C04893466E
:1021200030B491E8380007C810F0804F08BF13F0B2
:10213000804F03D100F005F8FFF778FFF0BCBDE851
:10214000008820F07F4780EA030023F07F4C07EBF4
:102150000C03A3F57C5300F00040A3F1FE0392F0C2
:10216000000F00F0B38095F0000F00F077802DE9AC
:1021700001494FEA11404FEA144621EA004800FBAA
:1021800006FC24EA064708FB06F607FB08F800FBF6
:1021900007F718EB06484CEB164C4FEA124B18EBBE
:1021A00007484FEA15464CEB174022EA0B4E0BFB53
:1021B00006FC25EA06470EFB06F607FB0EFE0BFBA8
:1021C00007F71EEB064E4CEB164C4FF000061EEBCD
:1021D000074E4CEB174B18EB0B0840F1000018EBC7
:1021E0000E0B58EB000840F100008F1A4FF0000171
:1021F0003CBFC943661B14BFB5EB040C00213CBFB8
:10220000C943F61B4FEA17444EEA8E0E27EA0445EF
:102210004FEA1C4704FB07622CEA074C05FB07F753
:102220000CFB05F604FB0CFC16EB074642EB1742D1
:1022300016EB0C4642EB1C421BEB060658EB020267
:10224000414146EA9E0601D5BDE80189B6195241D1
:1022500041EB0101A3F10103BDE801894FEA1445F7
:102260004FEA114724EA054621EA074C05FB07F42B
:1022700006FB07F70CFB06F105FB0CFC11EB074115
:1022800044EB17444FEA124711EB0C4144EB1C445A
:1022900022EA074C05FB07F206FB07F70CFB06F6E4
:1022A00005FB0CFC16EB074642EB174216EB0C46FF
:1022B00042EB1C456A1854F1000148BF7047B6193B
:1022C000524141EB0101A3F10103704795F0000F6A
:1022D00037D04FEA11424FEA144721EA024624EA76
:1022E000074C02FB07F106FB07F70CFB06F402FBA9
:1022F0000CFC14EB074441EB17414FEA154714EB74
:102300000C4441EB1C4125EA074C02FB07F506FB98
:1023100007F70CFB06F602FB0CFC16EB074645EB39
:10232000174516EB0C4645EB1C42121951F1000102
:1023300048BF7047B619524141EB0101A3F10103B7
:1023400070474FEA14454FEA114724EA054621EA4F
:10235000074C05FB07F106FB07F70CFB06F24FF0F5
:10236000000605FB0CFC12EB074241EB174112EB98
:102370000C4251EB1C4148BF7047921841EB0101E0
:10238000A3F1010370470000EFF3098141B1F1EEC1
:10239000101A40F8041D20ED200A3E490A6810601A
:1023A0007047B0EC200A02C8E1EE101A3A490A68F8
:1023B0001060704772B64EF62250CEF2000040F226
:1023C000FF01C0F2000101704FF0000080F30988A6
:1023D0000DF0E2FC40F27C10C2F20200016881F3D1
:1023E000088840F21610C2F2020040F21711C2F241
:1023F00002010A78027040F27415C2F2020540F23E
:102400007811C2F202010A682A60106880F3098814
:10241000EFF3148040F0020080F31488BFF36F8F55
:10242000BDE8F00F0FBCBDE8005006BC62B608471F
:102430001A484FF080510160704718484FF08051A2
:102440000160704772B6EFF3098020E9F00F40F2A7
:102450007415C2F202052E68306074460DF09CFCC3
:1024600040F21610C2F2020040F21711C2F202014D
:102470000A78027040F27811C2F202010A682A60FA
:1024800044F0F40E1068B0E8F00F80F3098862B6EB
:1024900070470000740102207801022004ED00E082
:1024A0004A4910B5D1F8042322F44032C1F804237C
:1024B000D1F8042343681A43C1F8042301684A6829
:1024C00022F480724A6001684A68036942EA032282
:1024D0004A6001684A6822F040724A6001684A68AE
:1024E00083681A434A6001688A6822F400628A603D
:1024F00001688A68C3681A438A60816A6FF07062F3
:10250000D14201688A6822F070628A6001688A6834
:102510000CD0836A1A438A6001688A6822F04052AC
:102520008A6001688A68C36A1A4301E022F0405257
:102530008A6001688A6822F002028A6001688A68FB
:10254000836942EA43028A60016A002901684A6895
:1025500015D042F400624A6001684A6822F4604281
:102560004A6001684B684FF46044426A94FAA4F4EC
:10257000521EB4FA84F4A24013434B6002E022F4EA
:1025800000624A600168CA6A22F47002CA62016885
:10259000CA6A838B0E4C04EB03531A43CA62016868
:1025A0008A6822F400728A6001688A68036B42EAD2
:1025B00043228A6001688A6822F480628A60016826
:1025C0008A68406942EA8020886010BD002001408E
:1025D0000000F0FF08F02ABF2DE9F0410D4601464A
:1025E00000204E19044608E00702301B401E80B24E
:1025F00000F007F8641C3844E4B2AC42F4D3BDE800
:10260000F08110B5044608F0CBFF200AA02101EBB1
:102610004000C0B208F08EFF09F012F8E0B208F0F6
:1026200089FF09F00DF808F0BBFFA12008F082FF38
:1026300009F006F8002008F049FF044608F0D8FF2A
:10264000204610BD2DE9F041002416460D460746F0
:1026500009E0E00025FA00F0C1B2381980B200F0BC
:1026600006F8641CE4B2B442F3D3BDE8F08170B55F
:102670000D46044608F094FF200AA02101EB40001B
:10268000C0B208F057FF08F0DBFFE0B208F052FFDD
:1026900008F0D6FF284608F04DFF08F0D1FF08F0FB
:1026A000A7FFBDE870400A201EF0E6B9002800DC54
:1026B0004042704738B5456804460146284614F044
:1026C00099F800282BD02068304A11280DD006DC5C
:1026D0000B2825D00E2833D00F2852D112E02828FD
:1026E00049D0B0F5107F4CD108E09268002A16D08E
:1026F0002146284601B0BDE8304010472146284613
:102700005268F7E7284603F075FA0090406E0468B7
:10271000684603F0D9FA002C01D02846A04738BDFE
:10272000284603F067FA0090683003F0B9F9009882
:1027300003216C3003F0C2F9684603F0C5FA20E0CB
:10274000E168486809680D2902D0202913D105E005
:10275000002810DD28461AF014FC06E0002804DDED
:102760002846BDE838401AF00CBC2846BDE8384081
:1027700002211AF01CBCE06818B90021284600F0BC
:1027800097F92046BDE8384014F09CBC7402022042
:10279000F0B5044685B08069B4F90850668A002710
:1027A000CDE90265CDE900170490B4F90C00B4F945
:1027B0001060C118B4F90A00B4F90E501044334641
:1027C0002A4600F007F80546616800F07AF905B07E
:1027D0002846F0BD2DE9F04F85B01F46DDE911B464
:1027E000DDE90E5690468946824604F06DFA164899
:1027F0004C34CDE90204CDE900563B4642464946F9
:10280000504614F0A7FB040018D003F0F3F910228F
:102810005946049014F0D0F9049830220B49343012
:10282000FEF718FD094D04990C3D2868486604A878
:1028300003F04AFA286841682046884705F018FDE9
:1028400005B02046BDE8F08FB526000880020220C2
:10285000F0B5044680688B4989B051F82050606813
:1028600000287DD0052804D006287AD0122879D1F6
:10287000AEE0E86900284FD095E80E008DE80F0023
:1028800004F110010FC906F08FF9002655F8260053
:1028900005F00DF8A169E8690A1A21690144606927
:1028A000304403F063FFA169E8690A1A2169014411
:1028B000E069801B03F05AFFE169E8690A1A61695F
:1028C00001442069304404F007F8E169E8690A1A14
:1028D00061690144A069801B03F0FEFF761C022E93
:1028E000D4DBA86804F0E3FFE069E9696669431A8C
:1028F000206942183144801C521E04F037F8E16907
:10290000E869A2690B1A61690144101A401C921E01
:1029100004F02CF8EE6913E05FF0000655F826008D
:1029200004F0C5FFE069831BA069821B60698119FF
:102930002069304403F090FF761C022EEEDB022665
:10294000D5E90301CDE900016169E069084443105C
:10295000A069891C821B2069304403F0CBFE02E091
:1029600089E012E08AE0D5E90501CDE90001E369DB
:1029700060690121184401EB6001A0699B1E821B64
:102980002069304403F0B6FE78E0206803F032F9A5
:102990000490206815F04CFF40B1A06808B10020F9
:1029A00008E00498006F28B1012003E00498406F0C
:1029B00000B10220049901EB8000C56E04A803F069
:1029C00083F900231A462846216803F0FFFB55E0EF
:1029D000206803F00FF90490866EEEB3B0F95C70D6
:1029E000A168D1B3032942D05FF0000100EB81015F
:1029F000406D0C6C04F078FF204604F058FF05A8E9
:102A000004F076F8BDF81410A88B0144ADF814104A
:102A1000BDF81810081AADF81800BDF81600801C93
:102A2000ADF81600BDF81A00801EADF81A00049823
:102A3000B0F96020B0F95E1005A804F02FFE04A8DC
:102A400003F042F9022004F0BBFF304603F0D2F855
:102A50003A4605A9079001E00BE006E003F0BAFC56
:102A60000DF11C0003F030F908E00121BEE702215E
:102A7000BCE704A8F6E7206815F09AFB09B000202F
:102A8000F0BD00009417030838B50D4604000ED0C1
:102A900004F01AF9204603F0ADF800904565684649
:102AA00003F012F9204615F055F805F0E1FB38BDAA
:102AB0004FF480720029114601D013F02FBF13F09C
:102AC00080BE2DE9FF410E4605004FF0010421D0E4
:102AD00004F0FAF8284603F08DF80190876E01A8FB
:102AE000009703F0F1F83146684606F037FB78B1FD
:102AF00000980024B84208D0284603F07BF80190E3
:102B00000099816601A803F0DFF8284615F022F845
:102B100005F0AEFB04B02046BDE8F081FEE7000002
:102B20000549002010B5486000F0A6F800F006F84E
:102B3000BDE8104000F086B8A40002202DE9F04165
:102B4000104F002635463E807E80BE60FE607E616E
:102B5000BE613E61FDF70EFC002480467E6100F000
:102B600049F800F057F8641C786924040544240CE3
:102B7000F4D0C7E904564046BE61BDE8F041FDF718
:102B8000FDBB0000A400022003490969884201D965
:102B9000401A704700207047A400022010B5FDF7CE
:102BA000E9FB04494C69FDF7E9FB2046BDE810400C
:102BB000FFF7EABFA400022010B5FFF7EFFF0446BD
:102BC000FDF7D8FB034A00215161FDF7D7FB2046F2
:102BD00010BD0000A400022010B5FDF7CBFB044996
:102BE0008C69FDF7CBFB2046BDE81040FFF7CCBF5A
:102BF000A400022010B5064C2088401C208060886C
:102C000010B900F051F8A0606088401C608010BDD1
:102C1000A400022010B50A4C6088401E0004000C7D
:102C200060800CD100F040F8E060A168401A616952
:102C3000814200D26061A169814200D2A06110BDD1
:102C4000A400022010B5FDF795FB0446FFF7D2FF64
:102C5000054810210BF0B6FEFFF7DCFF2046BDE86B
:102C60001040FDF78BBB000000E4042001494860E0
:102C700070470000A400022010B507F0DFFC0849EF
:102C80000A6842F080720A60064900224A600A68B7
:102C900042F001020A60BDE81040FFF7E7BF000004
:102CA000FCED00E0001000E00148406870470000C3
:102CB000001000E070B5144D00224021284606F0B7
:102CC0005AFE124C206820F0C0002060206840F0BE
:102CD0004000206002201DF0F7FE0022204608215F
:102CE00006F049FE02201DF0EFFE01222846402199
:102CF00006F041FE02201DF0E7FE2846BDE87040C8
:102D00000022402106F037BE001C02400020024095
:102D1000124800B587B0016841F080010160016888
:102D200001F080010591016841F480710160006843
:102D3000694600F4807005904020009001200190C9
:102D4000029003200390064806F01EFD0820009024
:102D50000448694606F018FD07B000BD303802404F
:102D6000001C02400020024070B5144D002240219A
:102D7000284606F000FE124C206820F0C0002060BB
:102D8000206840F04000206002201DF09DFE0122DE
:102D90002046082106F0EFFD02201DF095FE0122DD
:102DA0002846402106F0E7FD02201DF08DFE284652
:102DB000BDE870400022402106F0DDBD001C02404D
:102DC000002002402DE9F041184E074600243068EB
:102DD00020F0C0003060306830601E201DF074FEAE
:102DE000B046134E002500223046402106F0C3FDB8
:102DF00002201DF069FE01223046402106F0BBFD95
:102E000060060821040E404606F0ACFD08B1641CC3
:102E1000E4B26D1CEDB2082DE5D327B1FFF74AFFF0
:102E20002046BDE8F081FFF79FFFF9E70020024050
:102E3000001C02402DE9F0411A4F0546386820F089
:102E4000C0003860386840F040003860164E0022FC
:102E50004021304606F08FFD02201DF035FE002493
:102E6000280601D5012200E000223846082106F09C
:102E700082FD68060122050E3046402106F07BFDEA
:102E800002201DF021FE00223046402106F073FD95
:102E900002201DF019FE641CE4B2082CE0D3BDE84A
:102EA000F081000000200240001C024070B5134C6D
:102EB000206820F0C0002060206840F040002060C2
:102EC00001222046082106F056FD0D4D0122402129
:102ED000284606F050FD1E201DF0F6FD002220467B
:102EE000082106F048FD02201DF0EEFD2846BDE851
:102EF00070400022402106F03EBD0000002002404C
:102F0000001C024010B5104C206820F0C00020606A
:102F1000206840F0400020600C480122402106F06B
:102F20002AFD1E201DF0D0FD00222046082106F0BB
:102F300022FD02201DF0C8FD01222046BDE8104000
:102F4000082106F018BD000000200240001C0240CD
:102F500070B5164D00242846296821F0C00129606B
:102F6000296829600122082106F005FD104E012282
:102F70004021304606F0FFFC07E0641CE4B2FA2C66
:102F800003D9FFF7BFFF012070BD02201DF09CFD9B
:102F90000821284606F0E6FC0028EED10022304643
:102FA000402106F0E8FC002070BD00000020024037
:102FB000001C0240F0B5BFF34F8FBFF36F8F18496D
:102FC00000200860174C216841F400312160BFF3F4
:102FD0004F8FBFF36F8F134970310860BFF34F8F6E
:102FE000081F006843F6FF750D4E1036C0F34E31D2
:102FF000C0F3C90305EA4112184642EA80773760F8
:10300000401EFAD2491EF5D2BFF34F8F206840F41C
:1030100080302060BFF34F8FBFF36F8FF0BD000093
:1030200050EF00E014ED00E010B51C4C2046A188E4
:10303000C088E1B100284FF000000ED00FF0BCFCBA
:1030400001200FF0B9FC207A28B100202072002066
:103050000FF046FC13E00120F8E70FF0ADFC207AFA
:1030600018B10020207200200AE00120FAE760B1C8
:1030700001200FF0A1FC207A28B10020207201204D
:103080000FF02EFC05E00120F8E7207A18B10020AF
:103090002072207A10BD0120FAE70000760002209D
:1030A00041F27C52101A10B584B2064811B1448026
:1030B000C08801E00480808810B1204613F072FBC4
:1030C000204610BD760002201CB514F06DF90346B1
:1030D000044A0020009001900421034802F05EFFA2
:1030E0001CBD0000D5FE0108E45A02081CB514F00E
:1030F0005BF90346044A0020009001900121034837
:1031000002F04CFF1CBD00009D090208845D02080E
:103110001CB514F049F90346054A002000900190BF
:103120000E21044802F03AFF034908601CBD00006C
:10313000E5F801085C5902089C0102201CB514F056
:1031400033F90346054A00200090019014210448F9
:1031500002F024FF034908601CBD0000E9010208D9
:10316000545B0208BC0102207047000010B52DED31
:10317000028BB0EE408A84B0BCEEC80A694610EEFD
:10318000100A84B2204608F08DFA16A16846FDF7B1
:10319000CEFF00EE104AF2EE040A02A9B8EE400A91
:1031A00038EE400A20EE200ABCEEC00A10EE100AEB
:1031B00080B208F077FA01466846FDF7B8FF0AA129
:1031C0006846FDF7B4FF09486946006800F027FA31
:1031D00007486946006800F022FA04B0BDEC028B93
:1031E00010BD00002E000000487A0000D801022027
:1031F000B00102202DE9FC470E465FEA00097FD0AE
:1032000003F062FD484602F0F5FC009090F854701F
:10321000D0F85880456BC46C684602F055FDB8F193
:10322000000F04D0314648464246904761E0122ED6
:1032300018D006DC082E43D0102E3CD0112E06D11B
:1032400012E0132E21D01D2E43D01E2E3DD0202E55
:103250004FDB17B1484616F04AFBB1B2484619F0A9
:10326000F1FC60B3611C27E04DB3284602F0C2FCBC
:1032700005462146019004F0E9FE4419204604F079
:1032800085FE01462346012210E0C5B1284602F022
:10329000B1FC05462146019004F0D8FE44192046B1
:1032A00004F074FE014623464FF0FF32484616F004
:1032B00081F801A81BE0611E484600F02DFA18E0D5
:1032C000BCB1611E484600F027FA484616F00FFBD5
:1032D0000FE0484602F08EFC0090012F12D0012131
:1032E00080F854102146484600F016FA684602F06D
:1032F000EBFC484614F02EFC00E001E004F0B8FFBF
:10330000BDE8FC87002180F85410EFE7FEB5446863
:103310000546204615F08CFA06462946204613F04D
:1033200069FA002837D028680F2830D004DC0B2831
:1033300032D00E2853D13AE0A0F58070133804D073
:10334000A0F580702D384AD110E0204614F0D4FD4D
:10335000204600211AF04AF9204602F04BFC019069
:10336000C06F002114F08FFD01A81DE0E86860B176
:10337000017A29B10168204600F0DEF8012100E061
:103380000221204614F0C7FC29E00321F9E70121BE
:1033900020461AF02BF9FEBD204602F02BFC0090CF
:1033A000343002F07DFB684602F08EFC17E0B6B1C7
:1033B000E8684168002912DD01681B290FD006DC8E
:1033C00009290CD00A290AD00D2904D107E02129A6
:1033D00005D0222903D02046FFF70CFFFEBD28466A
:1033E00013F070FEFEBDF0B587B004460DF1080C79
:1033F000D4E90567B0F90850408A8CE8E100002064
:10340000CDE90010B4F90C00B4F91060C118B4F99A
:103410000A00B4F90E50104433462A4600F008F86A
:10342000050002D0618A00F062F907B02846F0BDBD
:103430002DE9F04F85B01F46DDE91254DDE90E6A33
:1034400090468946834603F03FFC0DF1040C4AF494
:1034500080501F49583400968CE813003B46424682
:103460004946584613F076FD04002AD002F0C2FB0C
:1034700010220490119913F09FFB04981C22154907
:103480006030FDF7E7FE049A012082F85500681CC1
:1034900000D0012082F88000002D00DC08252DB22C
:1034A000158700205087506304A86D1C02F00CFCA7
:1034B0002946204619F0A9FA18B9204613F03AFE19
:1034C000002404F0D5FE05B02046BDE8F08F0000D2
:1034D0000D330008B00202202DE9FC4115460E0014
:1034E000044627D0002C25D003F0EEFB204602F046
:1034F00081FB002701903770406BB0B102F07AFB7E
:10350000009005F0D5FC0146009804F09FFD0446AC
:10351000681E844200DD0446224630460099FDF7CD
:1035200012FE684602F0D0FB375501A802F0CCFB32
:1035300004F09EFEBDE8FC812DE9F04186B00C460A
:10354000060055D003F0C0FB304602F053FB00905C
:10355000406B98B302F04EFB03900098806E04F02D
:10356000C3F98046304614F027F80746039803F065
:1035700009FB0546009890F8601001F0030101294D
:1035800016D002290DD0416EC06A00680844241A82
:10359000641E039805F08CFC0146002C0FDA002114
:1035A00015E0781B401C00EBD070A4EB6004F0E742
:1035B000406E791B081A241A641CEAE713E0AC4237
:1035C00005DC02462146039805F01CFC0146304606
:1035D00000F0A2F803A802F077FB404604F084F95B
:1035E000304614F0B7FA684602F06EFB04F040FE75
:1035F00006B0BDE8F08138B50D4604000ED003F0EA
:1036000063FB204602F0F6FA00908566204614F02F
:10361000A1FA684602F058FB04F02AFE38BD2DE9F5
:10362000FC4788465FEA00094FF0000652D003F0DD
:103630004BFB484602F0DEFA0090B0F93850446B7C
:10364000684602F041FB0027B8F1000F44D04CB1AE
:10365000204602F0CFFA0190FDF74AFD461C01A872
:1036600002F032FB404605F023FC0446A84200DD90
:103670002C462146404604F0E9FC451CA91B48465F
:1036800019F08BFB08B3484602F0B4FA0090406B87
:1036900002F0B0FA2A4641460190FDF754FD019828
:1036A000284400F8017C0098C464B0F938108C42BA
:1036B00005D190F85410012901D1641EC46401A8F9
:1036C00002F002FB684602F0FFFA484614F042FAA4
:1036D00004F0CEFDBDE8FC87484602F08BFA00906E
:1036E000343002F0DDF900984787C764EAE738B55F
:1036F0000C4605000FD003F0E7FA284602F07AFAEC
:10370000009018B10466284614F024FA684602F0C6
:10371000DBFA04F0ADFD38BD1CB50C4602F06AFAC8
:103720000090406BF0B102F065FA019005F0C0FB2B
:10373000009991F8542002B10122002C00DA0024F3
:10374000844200DD0446B1F93800801AA04200DA54
:103750000446C86CA04200D0CC640020086501A8D3
:1037600002F0B2FA684602F0AFFA1CBD70B5B3F5CC
:10377000804F05D06FF0704140F82210002070BDDE
:1037800050F82230084C2340D1E900458E8944EAA4
:1037900005148D6889692D0245EA06452C430C43C2
:1037A0001C4340F82240E9E70000F0CFF0B50C6878
:1037B00050F824501A4A1540D1E90123D1E9036792
:1037C0001A433E4332434E6932438E693243CE69D7
:1037D00032430E6A32434E6A32438E6A3243CE6AB5
:1037E00032430E6B32438E6B32434E6B32432A436D
:1037F000082B01D142F0400240F824200A6BB2F5B8
:10380000801F05D10A684AB1026842F48012026042
:103810000A681AB10268496B0A4302600020F0BDD1
:103820008004C0FF00EB8202F0B553688E8903F07C
:103830004044D1E9003543EA05138D682D0245EA7D
:1038400006450E8A2B430D4D05EB065633430E7D80
:103850006F0107EB066633438E693343234353609E
:103860000268D20207D54268098A22F4700205EB89
:103870000151114341600020F0BD00000000F0FF45
:103880002DE9F047044640688EB00027804602F0DC
:10389000B1F90090B0F87CA0D0F86890D0F88060C2
:1038A000D0F88850C06D00B10768684602F00CFA85
:1038B00005E0696820468847002843D12D68002D1F
:1038C000F7D12068172853D00CDC0F283DD004DC3A
:1038D0000B2877D00D2825D18BE0112810D0142883
:1038E00020D13BE0262846D004DC1E2851D02028D9
:1038F00018D18AE02A2816D0B0F5107F12D128E01E
:103900004046E56802F076F90290697A39B9297A79
:10391000012904D130F87C1F41F48071018002A894
:1039200002F0D2F975E0404602F064F90090E168D7
:1039300011B1C0F8841002E0D0F88400E06068465D
:1039400002F0C2F90EB0BDE8F087D7B34046B847E1
:103950005FE02146404619F025FCF3E705A9404603
:1039600000F05AFBE0680699016007994160E9E7B9
:10397000C4F80C90E6E7E0680228E3D1CDF8308087
:10398000E0680D9027200A900AA9A06815F060F958
:10399000D8E7E068012804D00021404600F0BBFAD7
:1039A000D0E7304614F051F968B1304614F07AFB94
:1039B000304613F0FBFF98B10121304612F0AEFF04
:1039C0000EE026E02FE0484614F0C0FB06464046D5
:1039D00002F010F90090C0F88060684602F074F9B7
:1039E0000121404600F097FA002EABD10020E060A4
:1039F000A8E75FEA0A700CD4E068C06848B1007AB2
:103A000038B1404614F04EFB03E02146404619F021
:103A1000EBFA2146404612F0EDFE002892D02046F7
:103A200013F050FB8EE7404602F0E4F8009070304F
:103A300002F036F8684673E7F0B587B0B0F9084091
:103A40000DF10C0C0C9E876945688CE8F000448AE7
:103A50000025CDE900150294B0F90C10B0F9105012
:103A6000B0F90E40B0F90A00194410442B46224622
:103A700000F002F807B0F0BD2DE9F04F8BB098468A
:103A8000DDE9155691468A468346149F1A9C03F039
:103A90001BF93348603445F48055CDE90204CDE983
:103AA000007543464A465146584613F053FA0400FF
:103AB0004FD002F09FF830220490179913F07CF851
:103AC0000498282227493430FDF7C4FB049819993B
:103AD000244F4166A0F87C600026C0F88060C6666E
:103AE000083FC0F888607968C16504A802F0ECF866
:103AF00005A9204600F090FA1B4841F28271039616
:103B00000094CDE90110BDF91E00BDF91A10BDF9F0
:103B10001C20431ABDF918005B1C121A521C13F02A
:103B200019FA06467868416820468847204602F020
:103B300061F80490866604A802F0C6F842F2040018
:103B4000054202D1204613F090FB2046189900F060
:103B500027FA04F08DFB0BB02046BDE8F08F000083
:103B600081380008D4020220214300082DE9F041E9
:103B7000044694B0006800F0B7F908B1D94D01E0EF
:103B8000D84D2C35606815281ED00CDC0B281FD0B2
:103B900004DC00287ED005287DD12FE10E287BD0C3
:103BA0001228F9D141E1162806D0172808D0182884
:103BB00008D01C28F0D109E0E86914B0BDE8F08114
:103BC000286AFAE7686AF8E7A86AF6E76869F4E736
:103BD00020680B901C200C90206802F00BF80390DA
:103BE000016D0BA88847064603A802F06DF8022E67
:103BF0000FDB95E807008DE80700D4E9040233469F
:103C0000A16904F097FF20698719A069A0EB060855
:103C10002CE0286803F04BFE2169E8690A18521E5F
:103C2000606902F0A3FDA269E869111A491C606984
:103C300002F09CFDD4E904077F1C394602F0E6FD42
:103C40003946A06902F0E2FD686803F030FE2069A1
:103C50003946401C02F0DAFDA0693946401E02F0E8
:103C6000D5FDA0692769A0F10208BF1C286803F0F0
:103C70001EFE42463946606902F078FD686803F02E
:103C800016FE606942463946401C02F06FFD686AC4
:103C9000022802E015E1B0E000E10BDDA86803F0C6
:103CA00006FE61696A6A881C8B18014642463846DE
:103CB0005B1E27E0296AB14226DD6069022E0746B5
:103CC00000F1020801DB374401E007F10207206937
:103CD00001DB304401E000F1020022693B460A4466
:103CE0004146A2F1010202F041FE022E02DBA06970
:103CF000821B01E0A269921EA069E9693B46401A55
:103D00004146401C02F032FE022E02DB606906448E
:103D100001E06669B61CE76928687F1E03F0C7FDED
:103D20003A463146206902F0D7FD3A463146A0694D
:103D300002F0D2FDE7696868BF1E03F0B8FD206994
:103D40003A463146401C02F0C7FDA0693A4631466A
:103D5000401E02F0C1FDE869022802DC286A022840
:103D600023DDA86A022802DDE1690F1A01E0E76994
:103D7000BF1EA86803F09BFDE969022909DD2069DF
:103D80003B46421800F1020C31466046521E02F0DA
:103D9000EDFD286A022808DDA269E8693B46101A91
:103DA0003146401C921E02F0E1FD286803F07FFDC1
:103DB000D4E90620216902F0D9FC686803F077FD98
:103DC000D4E906202169401E491C521E02F0CEFC97
:103DD000A86A022811DDA1692669E469A1F1020837
:103DE000271AA41EB61C7F1CA86803F060FD23469A
:103DF00042463946304602F0B9FD71E0208A00B2F1
:103E0000ADF81400A18A09B2ADF81610228B12B2D7
:103E1000ADF81820A38B1BB2ADF81A302C69ED68F1
:103E2000CDE9005402F066FC5AE0208A298B084450
:103E3000ADF81400A08AADF81600208B298B401A2B
:103E4000ADF81800A08BADF81A00206801F0D2FE82
:103E50000390006FF0B1022003F0B2FD039890F8D8
:103E60007C10C1F3C00100EB8100006C03F01FFD6A
:103E70000398406B03F038FD0398006F01F0BAFE21
:103E800003990990B1F95A2005A902F0A3FA09A8EB
:103E900001F01AFF03A801F017FF21E0208AADF816
:103EA0001400A08AADF81600208BADF81800A08B86
:103EB000ADF81A00A86803F0FAFC05A802F082FD2C
:103EC0000EE0206801F096FE039030F85A1F41F092
:103ED0000C01018003A801F0F7FE206814F068F9D6
:103EE00000206AE61405022038B505004FF00004F2
:103EF0000FD002F0E9FE284601F07CFE009090F819
:103F00007C00000700D50124684601F0DDFE04F0C6
:103F1000AFF9204638BD70B50D46040009D002F057
:103F2000D3FE294620461AF04DFABDE8704004F051
:103F30009FB970BD2DE9FC410D46804602F0C4FEDC
:103F40005FEA080028D001F055FE0190C16D8C6831
:103F500000F0C9F807460198456301A801F0B4FED6
:103F600022680121404690470646226803214046C8
:103F70009047054622680021404690470446404647
:103F800000F097F92B46324639464046009400F03F
:103F900020F9404613F0DEFD04F06AF9BDE8FC812B
:103FA0007CB50D4604001DD002F08EFE204601F0C7
:103FB00021FE0090006F0190684601F085FE2946C1
:103FC00001A805F0CBF858B1204601F013FE00908F
:103FD00001990167684601F077FE204613F0BAFDAB
:103FE00004F046F97CBD38B50C46050013D002F04C
:103FF0006BFE284601F0FEFD0090B0F95A10A14278
:1040000004D0A0F85A40284613F0A4FD684601F0F9
:104010005BFE04F02DF938BD2DE9F34F85B0002784
:104020000C46B846059801F0E5FD0090C06D0121F1
:10403000856805982A68904782462A680321059872
:10404000904704902A6802210598904703902A68B7
:104050000021059890470646009814F067FA8346B9
:10406000009814F06AFA8146009890F83210890698
:1040700001D5B0F9588000F036F805460098C06EBA
:1040800010B113F0B0FA074625806780A4F804A0A9
:10409000049AABEB020006EB0802401E2A44208182
:1040A0003A44E280039BA9EB0302521E6281A4F80A
:1040B0000CA020827019E681401E6082684601F0E3
:1040C00003FEB4F90C000190B4F91000029002AAAA
:1040D00001A9059800F03AF80198A0810298208281
:1040E00007B0BDE8F08F10B50146002091F83220EE
:1040F000920607D5B1F95400002803D1486B02F0AD
:104100006BFD801C10BD70B58AB00C46054601F0F1
:1041100071FD0990C06D866809A801F0D5FD009574
:1041200034B1012C06D0022C0BD0032C04D10AE0B0
:10413000182000E0162001907168684688470AB090
:1041400070BD1520F7E71720F5E700002DE9FC41C9
:1041500017468846044601F04DFD0090C16D056884
:1041600068468E6801F0B0FD326800212046904715
:104170000646204613F03FF927E000BF01F03AFD64
:104180000190B0F900102AB2B0F90430891A9A1AD5
:10419000B0F90230A3EB2543B34210D190F82800C8
:1041A000000605D53868884209DB491E396006E0FB
:1041B000D8F80000904202DC521CC8F8002001A888
:1041C00001F082FD204613F059F90400D6D1BDE874
:1041D000FC812DE9FF4F83B00E460746DDF8409085
:1041E00001F008FD0190C16D8D68FFF77CFF04466A
:1041F00001A801F069FD2A680121384690478346ED
:104200002A6803213846904782462A6800213846AA
:1042100090470546B44207D105998B4504D10699CC
:104220008A4501D14D4541D0A41B0026B0463846F1
:1042300013F0E1F838E001F0DDFC0090806A01063F
:1042400001D5800502E0810528D50006002825DB80
:1042500024B122461146384613F09BFD009890F891
:10426000280000060AD50698A5EB0902A0EB0A0073
:1042700004FB16013846761C13F03EFD0098008DB5
:1042800080050BD50599A5EB0902ABEB010004FBFA
:10429000080108F10108384613F02EFD684601F0C8
:1042A00013FD384613F0EAF80700C4D107B0BDE8A3
:1042B000F08F70B586B0064601F09CFC0590D0E901
:1042C0001A4505A801F000FD54EA050026D069460C
:1042D0003046FFF7A1FEACB1BDF90620BDF90410D0
:1042E000204613F0CDFCBDF90A00BDF90610421AB4
:1042F000BDF90800BDF90410521C411A2046491CA2
:1043000013F07AFF002D09D0BDF90600BDF90210A7
:10431000421ABDF90410284613F0B2FC06B070BD75
:104320002DE9F0430446406889B0054613F0B3F820
:10433000814601F05FFC0290D0F84880D0F8807090
:10434000466E02A801F0C0FC2068172853D008DC94
:104350000E283AD00F2811D014284CD015283DD162
:1043600049E01E281ED01F282AD0222840D03128FC
:1043700034D10020E06009B0BDE8F0836FF07041F7
:104380004046884503D008F0A9FA01F0BBFD002E95
:10439000F1D0D4E902122068CDE90405CDE9061276
:1043A00004A81FE0E0680028E5D02FB1AF4203D099
:1043B000384613F077FEDEE7284613F0C7FEDAE74B
:1043C0002146484612F016FAD5E7E0684168002910
:1043D00004DD00680928EFD00A2805D05EB1204628
:1043E000C4F80490B047C6E7284613F0BEFEC2E703
:1043F000C4F80C80BFE7204612F064FEBBE7000063
:1044000070B54C4888B0016841F0800101600168D6
:1044100001F080010791016841F48071016000683A
:1044200002A9002400F4807007908020012681E812
:10443000510003200590404805F0A6F93502CDE96A
:1044400002563E4E02A9304605F09EF9FEF760FC8A
:1044500000222946304605F08EFA14201CF00CFB91
:1044600001222946304605F086FA32201CF004FB72
:1044700002226946A1208DF8004000F06FF89DF8F7
:104480000010302903D19DF80100032831D09DF898
:10449000010001282DD002282BD00422694648F2C1
:1044A000401000F05FFD26A069468DF80440FCF73F
:1044B000FDFC264848F2400500990122C0F8021090
:1044C000022069468DF80000284600F0A1FE012276
:1044D0006946E81D00F046FD0A201CF0CDFA0122D5
:1044E000694628468DF8004000F092FE08B0002092
:1044F00070BDC0B200EB012115A0FCF7D7FC012272
:104500006946002000F078F901226946A42000F0F5
:1045100073F91620694601228DF80000802000F012
:104520006BF90C20694601228DF80000882000F00C
:1045300063F9DBE730380240001C024000200240F3
:104540004354502049443A25730D0A006400022068
:104550004354502049443A25780D0A002DE9F04192
:1045600015460F460446FEF7A1FC7020FEF762FCDC
:10457000FEF7EEFCE0B2FEF75DFCFEF7E9FCFEF7AD
:1045800095FC7120FEF756FCFEF7E2FC00246E1E3F
:1045900009E0B44201D0012000E00020FEF712FC47
:1045A0003855641CE4B2AC42F3D3BDE8F041FEF7E9
:1045B000A9BC00002DE9F1478A4D83B000274FF0D8
:1045C0000A0A894CB8468DF804706878401CC0B25D
:1045D0006870B0FBFAF20AFB120109B10A2870D226
:1045E000804882A1801CFCF797FE03A94FF00102CE
:1045F00008B30220FFF7B2FF9DF80C00010760D05E
:1046000000F00F01287881425BD8FF2294F82090B7
:1046100004EB40008A40D14341F0C00184F82010EF
:10462000A1894181E18A818204201CF025FA704E23
:104630008DF8047085E048F24E16304600F092FC8A
:104640009DF80C000106D7D5297800F00F008842AC
:10465000D2D80122304601A98DF8047000F0D8FDAF
:10466000CAE7012294F820108240114264D05D48CC
:104670005EA1801CFCF750FE20B35E4804229DF82A
:10468000041030F811006946FFF768FF94F8300015
:104690009DF80010C0079DF8010001F00F0139D00E
:1046A00000EB01219DF8040004EB4000C1829DF85D
:1046B00002209DF8031002F00F0201EB022181811C
:1046C0003AE058E04B4804229DF804100A3030F8D4
:1046D0001100694600F046FC94F830009DF8011086
:1046E000C0079DF8000000EB01219DF8040004EBD9
:1046F000400005D081819DF802109DF8032018E04C
:10470000C1829DF803209DF8021001EB022132883E
:10471000511AD4E700EB01203188091A9DF80400F2
:1047200004EB400081819DF802209DF8031002F007
:104730000F0201EB0221C1829DF80400401C8DF89C
:1047400004009DF80400297888428AD3A0894FF09C
:1047500001083188884203D8E08A7188884209D9E3
:104760009DF80C0000F00F00012812D9E089A0810B
:10477000208BE0826F701DA11A48801CFCF7CCFDD5
:1047800000289DF80C004FF6FF710FD0C00624D012
:104790001AE0287804EB40004189A181808AE082F8
:1047A00080208DF80C0084F82090E4E700F08F0062
:1047B000802812D008E020F0800003E0A18100F002
:1047C000E000E18284F820006878F02801D985F8BB
:1047D00001A004B04046BDE8F08794F8200002062E
:1047E000ECD5E8E7640002203000022039313100C6
:1047F000481A0220E45602082DE9F0410027154628
:104800000E460446FEF752FB7020FEF713FBFEF740
:104810009FFBE0B2FEF70EFBFEF79AFB002408E0D8
:10482000305DFEF707FBFEF793FB070003D1641C26
:10483000E4B2AC42F4D3FEF765FB3846BDE8F08144
:104840001CB50024019401AC009400F0E7F81CBDF5
:104850002DE9FF4F83B0814606988A46A0EB0A08EF
:10486000109E00200090A2EB09043568934654EA9C
:10487000080018D02046FDF719FF07464046FDF70F
:1048800015FF87420BDA2046444680464846D1460B
:1048900082465846DDF818B0069001200090002CA2
:1048A00007DD204606E007B04846BDE8F04F00F0BF
:1048B0003BB96042A0420AD04846D9466442C8F19A
:1048C000000883464FF0FF37DDF818A000E001270D
:1048D0005148B8F1000F11D004EBD4714FEA610BCD
:1048E00001DACBF1000B4C480068807E88B3002FC2
:1048F00002DA30682044306000257BE0009900290E
:10490000016821D0897E11B10027804615E007B0EB
:104910005A4649465046BDE8F04F07F057BA284678
:104920006D1C19F02BFE38B9D8F8000009EB07010F
:10493000406E4268504690477F1CA742EFDD6D1ED7
:10494000356007B0BDE8F08F8A7E1AB10027804637
:1049500017E019E0486E5A465146036807B04846CA
:10496000BDE8F04F184728466D1C19F007FE38B90E
:10497000D8F8001009EB0700496E4A685146904785
:104980007F1CA742EFDDDAE700250FE008FB05B04A
:1049900090FBF4F101EB0A00009951B11E4A09EBBA
:1049A00005011268526E526890476D1CA542EDDDFC
:1049B000C7E7194909EB05030968496E4A680146CA
:1049C0001846F1E708FB05B090FBF4F101EB0A0093
:1049D000019030683844306019F0D0FD48B9009833
:1049E00090B10D4809EB05010068406E42680198DE
:1049F00090476D1CA542E5DD3068002F01DA2044A8
:104A00003060C01B30609CE7034909EB0500096872
:104A1000496E4A680199EBE7F80102202DE9FF474A
:104A20000F4640491646804609680C981D460A7E86
:104A3000012A1CD0A8EB0600791B50EA01031CD008
:104A4000A2F101091AF0E4FE00F58060824604F04C
:104A500074FC00FB09F4504604F074FC00FB09F1FF
:104A6000002C0CDAC4F50070801240420AE000907D
:104A7000324639464046FFF7EBFEBDE8FF8704F5B6
:104A80000074A012002904DAC1F5007189124C42A9
:104A900002E001F500718C12002804DD411C01EBDD
:104AA000D171491003E000EBD0714910401E00EBBA
:104AB000D0704210002C04DD601C00EBD070401060
:104AC00003E004EBD4704010641E04EBD47308EBD5
:104AD0000104ADF800403C18ADF80240A8EB020418
:104AE0005B10B21AADF80440ADF808203144FC1A4E
:104AF000EA1AADF80C102844ADF80A20ADF80E0003
:104B00000023ADF806401A460421684600F07AF802
:104B10003946404616F090FC2946304616F08CFC8B
:104B2000ABE70000F8010220064A13681A7E012A4A
:104B300005D0521E02EBD272521000F005B85A6E28
:104B400052681047F80102202DE9F05F06468846BA
:104B500040F2C32002FB00F14FF47A7091FBF0F7B2
:104B600002FB02F102EBD27001EB600B1446B118AC
:104B7000234A301B7F1C1268526E13680A46414656
:104B80009847012538E000BF05FB05F004FB040150
:104B900059451CDDBC4219DD194B06EB050AA6EB95
:104BA00005091B68AAF1010208EB04015B6E09F11B
:104BB00001001B689847124BAAF10102A8EB0401FF
:104BC0001B6809F101005B6E1B689847641E0C4B63
:104BD0003219301B1B68924608EB05015B6E81465B
:104BE0001B689847064B5246A8EB05011B684846D0
:104BF0005B6E1B6898476D1CBD42C5DDBDE8F09F2C
:104C0000F80102202DE9FF4F43F6FF740F4666427C
:104C100083B09B46814600210BE000BF09EB810079
:104C2000B0F90200A04200DA0446B04200DD0646B8
:104C3000491CB942F2DB67480068406900280DD082
:104C4000B0F906101A46A1EB0B01B14200DA0E468C
:104C5000B0F90200801AA04200DD0446B4E0DFF89B
:104C600078A100200546CAF8000088E0781E854239
:104C700001DA6B1C00E0002309EB850C09EB8302D1
:104C8000BCF90200B2F90210A04244D1A14215D1F0
:104C900039F92330059A39F9251003EB020C4D4AF6
:104CA00005981268084404EB0B01526E60451368C6
:104CB00001DA62462AE00246604627E02846A4461A
:104CC0004FF000087A1E0BE008B1401E00E0781E8D
:104CD00009EB8003B3F90230634504D108F1010800
:104CE0009045F1DB2346A34248D01A1B39F9250031
:104CF000A1EB040C059B92EA0C0F09D4354A184429
:104D000004EB0B011268526E13680246984735E0B7
:104D100014F08CF832E0A14230D001DBA04203DD78
:104D2000A0422BDBA14229DCE04688420ADC034694
:104D3000A04223DC0846A14220DBB8F900C0B2F94A
:104D4000001008E00B46A14218DCA04216DBB2F9C5
:104D500000C0B8F90010E21AA1EB0C015143002980
:104D6000A0EB030202DD01EB620102E0A1EB6201B4
:104D7000491CC01A91FBF0F06044C9E76D1CBD42AC
:104D8000FFF674AF0598009004EB0B000190002033
:104D90008046054613E01149B8F1000F31F915A01E
:104DA00009D0009901EB0A0208440A490968496ED2
:104DB0000B680199984788F0010850466D1C064918
:104DC00009688D42E7DB641CB4427FF748AF07B047
:104DD000BDE8F08FF801022044070220540F05209F
:104DE00010B5002002F058FD6FF07F4002F05FFD2B
:104DF000012002F0C7FD002002F0D2FD002002F0E9
:104E0000DFFD002002F064FD0448006802F06CFD44
:104E1000BDE81040002002F087BD0000F401022030
:104E20002DE9F043414889B0016841F080010160FB
:104E3000016801F080010791016841F4807101600F
:104E4000006801AADFF8E890802500F480700790E0
:104E500000240095012669460327484682E8D000D1
:104E600004F092FC4FF480786946CDE90086314E1B
:104E7000304604F089FCFDF74BFF002241463046E6
:104E800004F079FD0A201BF0F7FD0122414630466F
:104E900004F071FD0A201BF0EFFDCDE90054CDE9CF
:104EA00002476946484604F06FFC64201BF0E4FDAD
:104EB000042248F2401005A900F054F805A98DF825
:104EC00018401DA0FBF7F2FF1EA105A8FCF724FA6D
:104ED00040BB022048F2400501228DF8140005A9CC
:104EE000284600F095F90122E81D05A900F03AF8DE
:104EF0009DF8141060290BD214A0FBF7D7FF1848B7
:104F00008088A0F5AA41103902D1012000F05AF999
:104F10000A201BF0B1FD0122284605A98DF8144096
:104F200000F076F909B00020BDE8F0833038024087
:104F3000001C0240002002404354502049443A25BE
:104F4000730D0A0039313437000000004465666192
:104F5000756C74205665723A25640D0A00000000D5
:104F6000481A02202DE9F04115460F460446FDF788
:104F70009DFF2820FDF75EFFFDF7EAFF200AFDF701
:104F800059FFFDF7E5FFE0B2FDF754FFFDF7E0FF45
:104F9000FDF78CFF2920FDF74DFFFDF7D9FF002419
:104FA0006E1E09E0B44201D0012000E00020FDF7B0
:104FB00009FF3855641CE4B2AC42F3D3BDE8F041BC
:104FC000FDF7A0BF2DE9F14F7A4E00244FF00A0BF8
:104FD000794D82B0A1463078401CC0B23070B0FB31
:104FE000FBF20BFB120109B10A2878D248F24E17E6
:104FF0000122384602A9FFF7B5FF9DF808004FF0DF
:10500000000801060AD500F00F00062806D201228A
:10501000384601A98DF8048000F0FAF89DF80800E0
:1050200001075CD000F00F01062958D2FF20634F22
:105030004FF0010988408DF80400C04395F820A086
:1050400040F0C00085F82000A889A882E88AE8839B
:1050500095F8201009FA04F0014268D0584804225B
:10506000694630F81400FFF77DFFB888A0F5AA4123
:10507000103908D0A0F5864142391AD0A0F58641F2
:1050800084392DD053E095F83000C0072CD09DF81E
:1050900001109DF8000000EB012105EB4400C182E6
:1050A0009DF803209DF8021001EB0221C1F5487123
:1050B0003CE095F83000C00716D19DF801109DF82E
:1050C000000000EB012105EB4400C1829DF80320A4
:1050D0009DF8021001EB0221C1F5887126E041E044
:1050E00095F83000C00710D09DF801109DF8000021
:1050F00000EB012105EB440081819DF803209DF820
:10510000021001EB0221C18211E09DF801109DF80F
:10511000000000EB012105EB4400C1829DF8032053
:105120009DF8021001EB0221C1F5F0718181641C30
:10513000E4B2052C8CD3A9894FF001093A8828469E
:10514000914203D8C18A7A88914209D99DF8081002
:1051500001F00F0101290CD9C1898181018BE982FC
:1051600086F800809DF8080000F08F0080280AD0A3
:1051700018E0818A8181C18BC18280218DF808105D
:1051800085F820A0EEE795F82000010602D520F072
:10519000800005E04FF6FF71A98100F0E000E98290
:1051A00085F820003078F02801D986F800B048460C
:1051B000BDE8FE8F6B00022030000220481A02205A
:1051C000B057020808B500218DF800108DF80100D5
:1051D0000E489DF80020435C491CC9B2B8291A4406
:1051E0008DF80020F5D3D0B20849C043401C8DF89B
:1051F0000000B82248F2470000F00AF8022269468F
:1052000048F2FF0000F004F8002008BDF85602083C
:105210002DE9F041002715460E460446FDF746FEEF
:105220002820FDF707FEFDF793FE200AFDF702FE9A
:10523000FDF78EFEE0B2FDF7FDFDFDF789FE0024CF
:1052400008E0305DFDF7F6FDFDF782FE070003D1B3
:10525000641CE4B2AC42F4D3FDF754FE3846BDE81A
:10526000F08100002DE9F0433F4889B0016841F02A
:1052700080010160016801F080010791016841F43B
:1052800080710160006801AADFF8E090802500F4D9
:105290008070079000240095012669460327484640
:1052A00082E8D00004F070FA4FF480786946CDE9C6
:1052B00000862F4E304604F067FAFDF729FD0022E4
:1052C0004146304604F057FB0A201BF0D5FB012273
:1052D0004146304604F04FFB0A201BF0CDFBCDE9E0
:1052E0000054CDE902476946484604F04DFA64206F
:1052F0001BF0C2FB042248F2401005A900F050F850
:1053000005A98DF818401BA0FBF7D0FD1DA105A82D
:10531000FCF702F818B1012009B0BDE8F0830220C3
:1053200048F2400501228DF8140005A92846FFF730
:105330006FFF0122E81D05A9FFF714FE9DF8141068
:10534000412905D211A0FBF7B1FD012000F02EF993
:105350000A201BF091FB0122284605A98DF8144074
:10536000FFF756FF0020D7E730380240001C02400C
:10537000002002404354502049443A25730D0A0D41
:105380000A000000393237310000000044656661D0
:10539000756C74205665723A25640D0A0000000091
:1053A0002DE9F04115460F460446FDF77FFD282004
:1053B000FDF740FDFDF7CCFD200AFDF73BFDFDF7B5
:1053C000C7FDE0B2FDF736FDFDF7C2FDFDF76EFD4E
:1053D0002920FDF72FFDFDF7BBFD00246E1E09E01F
:1053E000B44201D0012000E00020FDF7EBFC38556D
:1053F000641CE4B2AC42F3D3BDE8F041FDF782BDDA
:105400002DE9F14783B000258DF800504FF00A0ACE
:10541000624C2F46624E4FF6FF792078401CC0B296
:105420002070B0FBFAF20AFB120109B10A287DD202
:1054300048F24E180122404603A9FFF7B1FF9DF83C
:105440000C0001060AD500F00F000B2806D28DF8DB
:10545000005001226946404600F0CEF89DF80C004D
:10546000010771D000F00F000B286DD209FA00F18E
:1054700096F82080C84340F0C00086F82000B0892C
:10548000F083F08A30858DF8005042E096F82000D5
:105490009DF8002001219140084235D041499DF8F6
:1054A0000000062231F8100001A9FFF779FF96F8F5
:1054B00030009DF80710C0079DF8060000EB0120A2
:1054C00010D09DF8001006EB4101C8829DF8050040
:1054D0009DF8041001EB00209DF8001006EB41013F
:1054E000888111E09DF80010C0F5487006EB41017D
:1054F00088819DF805109DF8040000EB01209DF8BF
:10550000001006EB4101C8829DF80000401C8DF898
:1055100000009DF800000A28B8D323480127B1896C
:105520000288914205D8F18A408800E00CE081426F
:1055300009D99DF80C0000F00F0001280BD9F08963
:10554000B081308BF08225709DF80C0000F08F0048
:1055500080280AD018E0F08BB081308DF082802056
:105560008DF80C0086F82080EEE796F82000010602
:1055700004D520F0800086F8200005E0A6F80C9005
:10558000A6F8169086F820502078F02801D984F8E3
:1055900000A004B03846BDE8F08700006D0002208E
:1055A000300002207E580208481A022008B5002167
:1055B0008DF800108DF801000E489DF80020435C26
:1055C000491CC9B2B8291A448DF80020F5D3D0B2CD
:1055D0000849C043401C8DF80000BA2248F2470039
:1055E00000F00AF80222694648F2FF0000F004F8D1
:1055F000002008BDC45702082DE9F04100271546D8
:105600000E460446FDF752FC2820FDF713FCFDF77B
:105610009FFC200AFDF70EFCFDF79AFCE0B2FDF7B7
:1056200009FCFDF795FC002408E0305DFDF702FC65
:10563000FDF78EFC070003D1641CE4B2AC42F4D346
:10564000FDF760FC3846BDE8F08100002DE9F04F21
:10565000DFF828B191B04FF0FF35DBF80030B3F937
:1056600022100691DE69B3F92490F469A189814280
:1056700006D8E289824203D3471AD4F8008012E0A8
:10568000D4E9018100296FD00A8882426CD84D8804
:10569000854269D3801A82B2486800EB8200B0F973
:1056A0000070B0F90250781C5ED0307EA17C10FBF7
:1056B00001FA217CCDE90701B3F92A60304607F0F1
:1056C000E1F9C0B20E90DBF8000007FB0A81A37C71
:1056D000826B0127CDE90412CDE90273C069089AF3
:1056E000C17E807ECDE90001DDE90603494606F072
:1056F000A7F9681C18D046F0020007F0C3F9DBF8E0
:105700000000A37C05FB0A81826BCDE90273CDE921
:105710000412C069089AC17E807ECDE90001DDE9EE
:105720000603494606F08CF9DBF800005D46C069C7
:10573000417E007E814214D9022E12D086F00400F0
:1057400007F0A0F92868C069027EC37E12FB0391AE
:10575000437E857E089A06984B4412FB050206F0AC
:1057600069FC0E9807F08EF9DBF80000627C418C32
:105770001144418411B0BDE8F08F0000F80102200F
:1057800004480068C069C06909B1027C0A60407CB5
:1057900070470000F8010220022008807047C069AD
:1057A00082898A4202D8C2898A4210D2806880B136
:1057B00002888A420DD843888B420AD3406800EBA6
:1057C0008100A0EB8200B0F90000002801DB01207D
:1057D00070470020704700002DE9F043304C03462D
:1057E00087B020681946B0F92A60C069C06900F026
:1057F00086F8002850D041680088181A01EBC005CF
:105800003046AF7807F03EF9814620686A68012388
:10581000816BCDE90237CDE90421C169CB7E8A7E57
:10582000CDE900230B7EB0F924102A78B0F92200CC
:1058300006F006F92068C069417E027E91421FD9B8
:10584000C07E11FB00F812FB00F7022E18D001F009
:1058500054F9064601F01AF902F029F821682A786D
:10586000CB69B1F92200DB7E12FB0302B1F92410EF
:1058700001EB0803394406F0DDFB304602F017F86F
:10588000484607F0FFF820686A78C369B0F922102B
:105890009B7E12FB0311418407B0BDE8F08300003A
:1058A000F801022030B50F4C05460B46206829460A
:1058B000C069C06900F023F8002812D04168008850
:1058C00024682A1A0120E46900EBC200085CA47E67
:1058D00010FB04F0002B04D011F8321011FB04F17E
:1058E000196030BDF801022001200880704700B522
:1058F000C06900F004F8002800D0012000BD06E0D7
:1059000002888A4202D842888A4202D280680028ED
:10591000F6D1704770B50025124C19E02069124984
:10592000C5EB051600EBC60070220968001DFBF7E9
:1059300091FC2069002140F8361000EBC60000F110
:105940000C018161011D0A1DC0E90F126D1C41642B
:10595000A0688542E2DB01F0B7F9BDE8704002F0D3
:1059600087BC000028040220F801022070B50F490E
:105970000D480860084603F0E9FB0C4C143CA06895
:10598000C0EB0010C500284600F0A6F82A4600210A
:10599000206103F054FC4FF0FF30206002F0CEFC99
:1059A000BDE8704016F08CBFDDD001083C04022039
:1059B000F8B50C0005460FD001F086F9204600F03E
:1059C00017F8060010D000F015F9224600902DB10E
:1059D0002946FBF7B8FB04E00020F8BD002103F0E6
:1059E0002EFC684600F070F902F042FC3046F8BD2B
:1059F00010B5040009D001F067F9204613F0ECFA65
:105A0000044602F035FC204610BD002010BD38B51C
:105A1000054601F059F92846FFF7EAFF040009D0CE
:105A200000F0E8F82A460021009003F008FC6846E0
:105A300000F04AF902F01CFC204638BD024A106012
:105A400021F00300506070477C0D052010B5040064
:105A500016D001F039F90B48406B10F8341059B1E9
:105A6000022909D2042101EBC4014158486813F00E
:105A7000F9F9204618F0A0FBBDE8104002F0F8BB91
:105A800010BD0000BC0C0520002805D0034AD16BD6
:105A9000016001B14860D06370470000BC0C052074
:105AA00010B5044601F010F92068FFF7CFFF002081
:105AB0002060BDE8104002F0DBBB000070B50D4671
:105AC0000646002405E000BF06EB8400FFF7E8FF70
:105AD000641CAC42F8DB70BD2DE9F041044617F0C0
